:100000000C949C010C94430E0C941C0E0C94C40193
:100010000C94C4010C94C4010C94C4010C94C4014C
:100020000C94C4010C94C4010C94C4010C94C4013C
:100030000C94C4010C94C4010C94C4010C94C4012C
:100040000C94D20D0C94C4010C94E6100C94C010C6
:100050000C94C4010C94C4010C94C4010C94C4010C
:100060000C94B8080C94C4016572726F72206F70A2
:10007000656E696E6720746573742E7478742000E1
:1000800000030C0F30333C3FC0C3CCCFF0F3FCFF78
:10009000AED580A81FD300408D142002A1C8DA027B
:1000A000817FD9F1DB40A4A6AF5344206361726421
:1000B00020696E697469616C697A6174696F6E2018
:1000C0006661696C6564000000050720600000003F
:1000D000000000005F00000007000700147F147F8D
:1000E00014242A7F2A1223130864623649562050AA
:1000F0000008070300001C2241000041221C002AC6
:100100001C7F1C2A08083E08080080703000080880
:10011000080808000060600020100804023E5149F1
:10012000453E00427F400072494949462141494DC0
:10013000331814127F1027454545393C4A49493147
:1001400041211109073649494936464949291E00C6
:100150000014000000403400000008142241141470
:10016000141414004122140802015909063E415D8D
:10017000594E7C1211127C7F494949363E4141411A
:10018000227F4141413E7F494949417F0909090197
:100190003E414151737F0808087F00417F410020A4
:1001A00040413F017F081422417F404040407F0290
:1001B0001C027F7F0408107F3E4141413E7F0909B8
:1001C00009063E4151215E7F0919294626494949C0
:1001D0003203017F01033F4040403F1F2040201F6A
:1001E0003F4038403F6314081463030478040361FC
:1001F00059494D43007F414141020408102000410C
:1002000041417F0402010204404040404000030796
:10021000080020545478407F2844443838444444EB
:1002200028384444287F385454541800087E090262
:1002300018A4A49C787F0804047800447D40002022
:1002400040403D007F1028440000417F40007C0476
:100250007804787C080404783844444438FC182432
:10026000241818242418FC7C080404084854545406
:100270002404043F44243C4040207C1C2040201C9B
:100280003C4030403C44281028444C9090907C44A2
:1002900064544C44000836410000007700000041DF
:1002A00036080002010204023C2623263C90001975
:1002B000802000534420636172642069732072655A
:1002C00061647920746F207573652E007C3C3E5EFE
:1002D0002B3D3F2F5B5D3B2C2A225C000000000081
:1002E000240027002A0000000000250028002B0021
:1002F0000000000023002600290004040404040474
:1003000004040202020202020303030303030102C4
:100310000408102040800102040810200102040893
:100320001020000000080002010000030407000084
:10033000000000000000BD2011241FBECFEFD8E058
:10034000DEBFCDBF12E0A0E0B1E0E8E9FAE402C010
:1003500005900D92A030B107D9F725E0A0E0B2E0FA
:1003600001C01D92A33EB207E1F711E0CCE9D1E054
:1003700004C02197FE010E94F323CB39D107C9F7AE
:100380000E94BE1C0C944A250C940000DC01599676
:10039000ED91FC915A973097B9F083899489A5899A
:1003A000B6894285538564857585841B950BA60B9C
:1003B000B70B811520E89207A105B10538F08FEF42
:1003C0009FE7A0E0B0E0089580E090E00895CF932B
:1003D000DF931F92CDB7DEB76983DC01ED91FC910D
:1003E0000280F381E02D41E050E0BE016F5F7F4F5E
:1003F00009950F90DF91CF91089585ED8093BC0012
:100400008091BC0084FDFCCF10924A020895409177
:100410002602262F30E0240F311D21323105DCF475
:1004200020914A022430C9F4FC0180E090E0861754
:1004300058F4309126022191DC01AA5FBD4FA30F31
:10044000B11D2C930196F3CF80912602680F609323
:10045000260280E0089581E0089582E008950895DD
:100460008FEF9FEF08958FEF9FEF08958091050222
:1004700090E09195819591090895CF93DF93CB01F9
:10048000EA01642F0E940702CE01DF91CF91089507
:10049000CF93DF931F92CDB7DEB7698361E0CE01C2
:1004A00001960E94070281E090E00F90DF91CF91CA
:1004B0000895FC016093BC008091BC0087FFFCCFD5
:1004C0009091B900987F90830895CF92DF92EF9238
:1004D000FF920F931F93CF93DF93EC01C62ED42E80
:1004E0008889882351F0411108C084E98093BC00B9
:1004F0008091BC0084FDFCCF188AE8888E01025FE1
:100500001F4FE11014C0FF8464EAC8010E94590221
:100510008E85883011F1803101F1DD2011F080E409
:10052000E82EE092BB0064E8C8010E945902C09224
:10053000BB0064E8C8010E94590282E0D81204C0DE
:1005400088898F5F888B11C084E98093BC0080917B
:10055000BC0084FDFCCF188A08C0FF0CF092BB00E1
:1005600064E8C8010E945902D8CFDF91CF911F9152
:100570000F91FF90EF90DF90CF900895089580E065
:1005800090E00895FC01818D928D009711F00C94FC
:1005900085120895CF93DF93EC01898D9A8D009792
:1005A00039F481E090E09B838A8380E090E00BC087
:1005B000FC01138212820E945513E98DFA8D22816B
:1005C0003381232B71F7DF91CF910895CF92DF9282
:1005D000EF92FF9280910C01811103C064E771E0FA
:1005E00006C080910002813039F46BE771E082EC43
:1005F00095E00E94AB0F15C0823019F461E871E0FC
:10060000F6CF833071F467E871E082EC95E00E94E8
:10061000AB0F609108017091090182EC95E00E9496
:1006200015180E94181C60938405709385058093AB
:10063000860590938705809183050E94481BFC01E5
:100640002091800530E091E0E217F30709F090E097
:100650009093A4054091840550918505609186058D
:1006600070918705A0919605B0919705C0908C0573
:10067000D0908D05E0908E05F0908F05CA0EDB1EA0
:10068000E11CF11C4C155D056E057F05C8F1E217F4
:10069000F30781F08091A605882361F010929805F8
:1006A0004093900550939105609392057093930544
:1006B00081E001C080E09093A60540938C055093A3
:1006C0008D0560938E0570938F058130C9F49091EC
:1006D0000C01911103C080930C0112C09091000293
:1006E000992319F0913021F482E08093000208C030
:1006F000923011F483E0F9CF933011F4109200029C
:10070000FF90EF90DF90CF9008950E94241C90916D
:100710000002911189C08130D1F580910A01909138
:100720000B01449734F480910A0190910B010196DA
:1007300069C080910A0190910B018436910534F4CF
:1007400080910A0190910B010A965CC080910A0188
:1007500090910B018A3F910534F480910A019091A8
:100760000B0149964FC080910A0190910B01843F83
:10077000914034F480910A0190910B01C29642C0DD
:1007800080910A0190910B018C599F4F3BC08230A0
:10079000E9F580910A0190910B01449734F480911E
:1007A0000A0190910B0101972DC080910A0190914F
:1007B0000B018436910534F480910A0190910B016C
:1007C0000A9720C080910A0190910B018A3F910500
:1007D00034F480910A0190910B01499713C08091E4
:1007E0000A0190910B01843F914034F480910A01F9
:1007F00090910B01C29706C080910A0190910B0164
:100800008456910990930B0180930A0180910A010B
:1008100090910B01892B09F081C082E090E09093C8
:100820000B0180930A010895913059F5813079F4D4
:100830002AE037ED43E25CE360910102709102022D
:1008400080910302909104020E94632111C08230C2
:1008500009F064C02AE037ED43E25CE360910102F5
:100860007091020280910302909104020E94622121
:10087000609301027093020280930302909304023A
:100880000895923051F5813079F42AE037ED43E252
:100890005CE36091000170910101809102019091EF
:1008A00003010E94632110C08230C1F52AE037EDB8
:1008B00043E25CE3609100017091010180910201CB
:1008C000909103010E9462216093000170930101E5
:1008D000809302019093030108959330F9F48130DD
:1008E00079F420910801309109014AE0429FC0014A
:1008F000439F900D1124909309018093080108955E
:10090000823061F480910801909109016AE070E001
:100910000E949E23709309016093080108953F92FD
:100920004F925F926F927F928F929F92AF92BF92FF
:10093000CF92DF92EF92FF920F931F93CF93DF93AB
:10094000CDB7DEB72C970FB6F894DEBF0FBECDBF84
:100950005C01DC015B968D909C905C971696CD9027
:10096000DD90ED90FC901997C114D104E104F104DD
:1009700039F0BFEFCB1ADB0AEB0AFB0A312C07C0B8
:10098000F401C080D180E280F38033243394F401F9
:1009900081859285A385B4859C01AD012F5F3F4F72
:1009A0004F4F5F4F29873A874B875C872601370176
:1009B0001D821E821F821886F40181859285A3857F
:1009C000B4852D813E814F815885281739074A0704
:1009D0005B0708F063C089859A85AB85BC858C155B
:1009E0009D05AE05BF0550F482E0C82ED12CE12C48
:1009F000F12C92E0492E512C612C712C9E012F5F1D
:100A00003F4FB701A601C4010E940212882309F4D6
:100A100045C089819A81AB81BC81892B8A2B8B2B24
:100A200041F0260137019FEF491A590A690A790AEC
:100A300005C0C414D504E604F70491F02D813E816D
:100A40004F8158852F5F3F4F4F4F5F4F2D833E8320
:100A50004F8358873FEFC31AD30AE30AF30AACCF98
:100A60000FEF1FEF2FEF3FE0B301A201C4010E947F
:100A70006111882399F0D50116964D915D916D9184
:100A80007C911997411551056105710549F0930154
:100A90008201C4010E946111811102C080E02AC05C
:100AA000D50116964D925D926D927C9219973320E6
:100AB00051F0D301C2010196A11DB11DF401808343
:100AC0009183A283B383F5018789908DA18DB28D27
:100AD000892B8A2B8B2B69F4D50157964D925D9209
:100AE0006D927C925A9714968C9114978068149604
:100AF0008C9381E02C960FB6F894DEBF0FBECDBF6D
:100B0000DF91CF911F910F91FF90EF90DF90CF90E9
:100B1000BF90AF909F908F907F906F905F904F901D
:100B20003F9008958FB7F894809171028FBF089518
:100B300061E0FC0184810E94711B8091700281112F
:100B40001092700208958EBD00000DB407FEFDCF17
:100B50008EB508958FEF0C94A3050F931F93CF9339
:100B6000DF93EB010E94181C8B010E94AA058F3FA6
:100B700049F00E94181C601B710B6C177D07A8F3CD
:100B800080E001C081E0DF91CF911F910F91089526
:100B9000CF93DF93EC018E81882389F08F81988534
:100BA0009C012F5F3F4F38872F838230924018F48B
:100BB0000E94AA05F3CFCE010E9498051E82DF9104
:100BC000CF9108958CBD9DBD0895CF93DF93EC0127
:100BD00080917002811109C081E080937002809140
:100BE0003505909136050E94E20560E08C81DF9129
:100BF000CF910C94711B8F929F92AF92BF92FF92F4
:100C00000F931F93CF93DF93EC01F62E49015A0106
:100C10000E94C805CE010E94E5056CE271E0CE019C
:100C20000E94AD058F2D80640E94A30508E110E0AD
:100C3000D501C401002E04C0B695A7959795879558
:100C40000A94D2F70E94A30508501109083F8FEFBC
:100C5000180771F7FF2029F088E0F81204C087E830
:100C600003C085E901C08FEF0E94A30510E00E9438
:100C7000AA058A8787FF04C01F3F11F01F5FF7CFC7
:100C8000DF91CF911F910F91FF90BF90AF909F90F8
:100C90008F900895AF92BF92CF92DF92EF92FF9222
:100CA0000F931F93CF93DF93EC016901C801820F6B
:100CB000931F8130924008F070C08E81882371F0BC
:100CC00088819981AA81BB8184179507A607B707F8
:100CD00029F48F819885C816D906B0F548835983C1
:100CE0006A837B838B85833039F089E0440F551FFD
:100CF000661F771F8A95D1F79A01AB0161E1CE019A
:100D00000E94FB05882319F083E08D8346C00E9472
:100D1000181C5B010E94AA058A878F3F49F40E9434
:100D2000181C6A197B096D327140A0F38FE003C073
:100D30008E3F31F08DE08D83CE010E9498052DC04D
:100D400018861F8281E08E838F8198858C159D0582
:100D500040F40E94AA058F819885019698878F8319
:100D6000F3CF6701E00EF11EEC14FD0431F00E9498
:100D7000AA05F60181936F01F7CF8F819885080F3F
:100D8000191F18870F838985882319F001151240D0
:100D900048F0CE010E94C80505C0CE010E9498050A
:100DA00080E001C081E0DF91CF911F910F91FF9012
:100DB000EF90DF90CF90BF90AF900895EF92FF92A9
:100DC0000F931F93CF93DF93EC01790141155105E8
:100DD0006105710511F482E13CC08B85833039F0E7
:100DE00089E0440F551F661F771F8A95D1F79A0136
:100DF000AB0168E1CE010E94FB05882311F084E07D
:100E000028C08EEF0E94A30587018EEFF81AF80123
:100E100081918F010E94A305E016F106C1F78FEFC3
:100E20000E94A3058FEF0E94A3050E94AA058A874E
:100E30008F71853031F081E18D83CE010E9498055C
:100E400009C068E572E0CE010E94AD05811107C0BE
:100E500085E18D83CE010E94980580E014C020E0DA
:100E600030E0A9016DE0CE010E94FB05811109C0AF
:100E70000E94AA05811105C0CE010E94980581E05B
:100E800002C084E1E6CFDF91CF911F910F91FF90D7
:100E9000EF900895FC01DB0112968D919C911397C0
:100EA000938382838EE291E09183808314968C9168
:100EB0001497848315968C911597858316964D917A
:100EC0005D916D917C9119974683578360877187F7
:100ED0001A964D915D916D917C911D974287538734
:100EE000648775871E964D915D916D917C915197A8
:100EF00046875787608B718B52968C915297828B65
:100F000053964D915D916D917C915697438B548B87
:100F1000658B768B57964D915D916D917C915A972B
:100F2000478B508F618F728F5B968D919C915C97F0
:100F3000948F838F08954F925F926F927F92AF92BA
:100F4000BF92CF92DF92EF92FF920F931F93CF93B6
:100F5000DF931F92CDB7DEB7FC012581222309F470
:100F6000C1C0848180FFBEC083899489A589B68968
:100F7000428453846484758484159505A605B70559
:100F800009F4B0C06F015201F1E0BF22D6015B96B7
:100F90008D919C915C97B301A20139E0769567959C
:100FA000579547953A95D1F7223071F4FC01828D1F
:100FB000938DA48DB58D8A019B01080F191F2A1FDF
:100FC0003B1FC901B8014AC0DC0114961C911150A5
:100FD0001423A114B104F9F411111DC045284628A9
:100FE000472851F4F6018789908DA18DB28D8683B3
:100FF0009783A087B1870FC0D60116964D915D915A
:101000006D917C91199796012A5F3F4F0E940212C1
:10101000882309F467C0F601238D348D868197817A
:10102000A085B1850297A109B109AC01BD01F90103
:10103000058404C0440F551F661F771F0A94D2F71A
:1010400086859785A089B189840F951FA61FB71F34
:10105000BC01CD01610F711D811D911DD60114963A
:101060002C9126FF0DC040900D0150900E01609014
:101070000F0170901001461657066806790699F41C
:1010800040E00E941811882369F1F501EA56FD4FEE
:10109000DE0111969F012F5F3F4F2E173F0799F0FA
:1010A00081918D93FACFFE0131967F0101E010E02E
:1010B0009501AB01BC0180919604909197040E9428
:1010C0004A06882379F0F60182859385A485B58543
:1010D0000196A11DB11D82879387A487B587898159
:1010E00090E002C08FEF9FEF0F90DF91CF911F91A3
:1010F0000F91FF90EF90DF90CF90BF90AF907F90D7
:101100006F905F904F900895FC01818D928D0097B4
:1011100011F00C949B078FEF9FEF08950F931F938F
:10112000CF93DF93FC01818D928D0097B9F0EF0191
:101130000E949B078C010F3F8FEF180791F0898D5C
:101140009A8DFC014285538564857585415051090E
:10115000610971090E94BE12C80105C080E090E0DB
:1011600002C08FEF9FEFDF91CF911F910F910895F4
:101170001F920F920FB60F9211242F933F934F930C
:101180005F936F937F938F939F93AF93BF93EF93EF
:10119000FF938091B900887F803609F49CC068F580
:1011A000883209F45BC090F4803109F454C038F4FB
:1011B000882309F4F2C0883009F44DC0F2C08831A8
:1011C00009F44CC0803209F45DC0EBC0803409F4EE
:1011D00068C048F4803309F455C0883309F0E1C091
:1011E00080934902D4C0803509F44FC0883509F492
:1011F0005DC0883409F0D5C0D2C0883909F4C3C0B5
:10120000A8F4883709F467C038F4883609F463C055
:10121000803709F460C0C5C0883809F4B4C080398B
:1012200009F45FC0803809F0BCC05BC0803B09F4A2
:1012300084C038F4803A09F466C0883A09F47DC065
:10124000B0C0803C09F4A3C0883C09F4A0C0883B2E
:1012500009F486C0A6C080916F0210C090916E0202
:1012600080916D02981770F5E0916E0281E08E0F0B
:1012700080936E02F0E0E35BFD4F80818093BB00C2
:1012800085EC82C0809349028AC0E0916E0281E0C1
:101290008E0F80936E028091BB00F0E0E35BFD4F08
:1012A000808390916E0280916D026AC0E0916E021F
:1012B00081E08E0F80936E028091BB00F0E0E35BD3
:1012C000FD4F808380914C02811169C081E0809341
:1012D0004B0284EA5DC083E080934A021092480288
:1012E000CFCF80914802803208F04DC0E091480293
:1012F00081E08E0F809348028091BB00F0E0E85DB2
:10130000FD4F8083BDCF85EC8093BC0010924A02D4
:1013100080914802803230F4E0914802F0E0E85DCC
:10132000FD4F10826091480270E088E292E0E0E0B8
:10133000F0E009951092480234C084E080934A029C
:101340001092270210922602E0E0F0E009958091C9
:101350002602811105C081E08093260210920602C8
:10136000E091270281E08E0F80932702F0E0EA5F90
:10137000FD4F80818093BB009091270280912602CF
:10138000981708F47DCF85E88093BC000AC085ECEF
:101390008093BC0010924A0204C0109249020E943D
:1013A000FD01FF91EF91BF91AF919F918F917F913F
:1013B0006F915F914F913F912F910F900FBE0F90C2
:1013C0001F901895CF93DF93EC019C818E81981725
:1013D00068F48C856827E881F9810084F185E02D27
:1013E00042E0CE0109958C818F5F8C83DF91CF9194
:1013F0000895DC01ED91FC910084F185E02D40E041
:101400000994FC012781269526952695621720F4DC
:101410006583606B0C94F90908950F931F93CF9324
:10142000FC0126816217A0F4C62F8C01648390858D
:10143000C90F6C2F6F70CF010E94F9096C2F629554
:101440006F706061C801CF911F910F910C94F909E1
:10145000CF911F910F9108952F923F924F925F92DB
:101460006F927F928F929F92AF92BF92CF92DF92B4
:10147000EF92FF920F931F93CF93DF93CDB7DEB719
:1014800029970FB6F894DEBF0FBECDBFDC011A96C8
:101490002D913C911B972115310509F408C19987BD
:1014A0008887F9013296449031967491072F10E0A5
:1014B000095F1F4F83E0159507958A95E1F70A8329
:1014C0003196A4913196E4916A1750F0462F50E07E
:1014D0008E2F90E0FC01EA0FF11D4E175F07CCF054
:1014E0006D3031F460E0888599850E940D0ADCC07A
:1014F0006A3009F0DCC060E0888599850E940D0A99
:10150000E885F98585856581809F600D1124CF016F
:10151000C9C0A9014A5F5F4F6A1BA885B9851996A2
:10152000FC9119971D96EC91FE9FE02D1124EF83FD
:10153000F901A4913196249130E03A2B2230310503
:1015400070F4409EC001419E900D1124689F70016F
:10155000699FF00C1124E40EF51E312C22C0777027
:1015600021F028E0322E371A01C0312CFA0120E098
:10157000A0E0B0E0261731F03491A30FB11D2F5F2A
:101580003196F8CFFA01E20FF11D44900A9F7001E5
:101590000B9FF00C1A9FF00C1124E80EF91EE40EBC
:1015A000F51EA885B9851496BC91BB83E885F9859D
:1015B000F581FC83842D90E09E838D83812C912C7A
:1015C000C12CD12CC9829A81C91608F068C0212C7F
:1015D0003601BFEF6B1A7B0AE885F98585852816E9
:1015E00008F055C0F981F11102C0222079F0A885D8
:1015F000B9851596BC901597B3946B81CD010E9467
:101600000D0A6B2D888599850E94010AA12CB12CA9
:10161000A41410F0B12C2FC0F501E80DF91DEE0D4A
:10162000FF1D5490332061F00615170549F4E52D90
:10163000F0E0032C02C0F595E7950A94E2F75E2EE0
:10164000E885F9858585823069F4E52D2110E295DC
:10165000EF70F0E0E058FF4F5490652D8885998534
:101660000E94E209652D888599850E94E209FFEFB5
:10167000AF1ABF0ACDCF8F81B81639F060E08885E8
:1016800099850E94E209B394F6CF2394A5CF9FEFEA
:10169000C91AD90AAD81BE818A0E9B1E93CF6C8177
:1016A000888599850E94010A81E090E002C080E06F
:1016B00090E029960FB6F894DEBF0FBECDBFDF9144
:1016C000CF911F910F91FF90EF90DF90CF90BF903F
:1016D000AF909F908F907F906F905F904F903F90D2
:1016E0002F900895CF92DF92EF92FF920F931F9366
:1016F0000E94181C6B017C010E94181C209108019B
:10170000309109018901330F220B330B0C0D1D1D84
:101710002E1D3F1D601771078207930718F40E9462
:10172000E602EACF1F910F91FF90EF90DF90CF90EC
:101730000895CF92DF92EF92FF928EE00E94FB1B02
:10174000BC01990F880B990B0E94772220E030E0B2
:1017500040EA5BE30E942C236B017C0120E030E037
:10176000A9010E942723181624F0F7FAF094F7F83D
:10177000F094A7019601609101027091020280919C
:101780000302909104020E9463216093800270938F
:10179000810280938202909383028FE00E94FB1B60
:1017A000BC01990F880B990B0E94772220E030E052
:1017B00048E45DE30E942C2323E333E347EC51E448
:1017C0000E9462216B017C0120E030E0A9010E94AF
:1017D0002723181624F0F7FAF094F7F8F094A701ED
:1017E0009601609100017091010180910201909138
:1017F00003010E94632160937C0270937D028093B9
:101800007E0290937F0282EC95E00E944B1862E981
:1018100071E082EC95E00E94AB0F60910A0170913B
:101820000B016150710982EC95E00E9415186BE97B
:1018300071E082EC95E00E94AB0FC0908502D090E1
:10184000860281E0C81AD1080D2C000CEE08FF08B2
:10185000F7FE0EC06DE282EC95E00E946A0E44270E
:101860005527BA014C195D096E097F092AE003C0AA
:101870002AE0B701A60182EC95E00E94860E63EA99
:1018800071E082EC95E00E94710E809184028111DA
:1018900003C086EA91E002C086EB91E00E94351B0E
:1018A00040917C0250917D0260917E0270917F0296
:1018B00022E082EC95E00E94CF0E63EC71E082ECB6
:1018C00095E00E94AB0F409180025091810260919F
:1018D00082027091830222E082EC95E00E94CF0E9A
:1018E00086EC91E00E94351B68EC71E082EC95E09B
:1018F0000E94AB0F20E030E041E655E460917402B5
:101900007091750280917602909177020E94D421A5
:101910006B017C016091080170910901072E000C98
:10192000880B990B0E94772220E030E04AE754E4CC
:101930000E94D4219B01AC01C701B6010E942C2357
:10194000AB01BC0123E082EC95E00E94CF0E6BEC72
:1019500071E082EC95E00E94AB0F20E030E041E6C0
:1019600055E4609178027091790280917A029091A9
:101970007B020E94D4216B017C016091080170916F
:101980000901072E000C880B990B0E94772220E09A
:1019900030E04AE754E40E94D4219B01AC01C70126
:1019A000B6010E942C23AB01BC0123E082EC95E040
:1019B0000E94CF0E409178025091790260917A0294
:1019C00070917B0222E088E994E00E94CF0E63EAE6
:1019D00071E088E994E00E94710E81ED91E00E942F
:1019E000351BFF90EF90DF90CF900C94E602CF92E2
:1019F000DF92EF92FF9261E085E00E94711B0E94EE
:101A0000181C6B017C0120EDC20E27E0D21EE11CE8
:101A1000F11C0E94181C6C157D058E059F0518F49D
:101A20000E94990BF6CFFF90EF90DF90CF90089532
:101A3000CF93DF93CDB7DEB76B970FB6F894DEBFC9
:101A40000FBECDBFCE0101960E949019CE01019626
:101A50000E947B18E091C005F091C105309709F410
:101A600058C08581882309F454C063EA71E087EA8D
:101A700095E00E94AB0F6091840270E087EA95E0E8
:101A80000E94151864ED71E087EA95E00E94AB0FA3
:101A9000609185027091860287EA95E00E94151890
:101AA00064ED71E087EA95E00E94AB0F40918002FF
:101AB00050918102609182027091830222E087EA54
:101AC00095E00E94CF0E64ED71E087EA95E00E94F8
:101AD000AB0F40917C0250917D0260917E0270912B
:101AE0007F0222E087EA95E00E94CF0E8091C00538
:101AF0009091C1050097B1F00E94AB178091C0058D
:101B00009091C1050E94A0241092C1051092C005B9
:101B100009C06AE088E994E00E946A0E88E690E0D5
:101B20000E94B1186B960FB6F894DEBF0FBECDBF02
:101B3000DF91CF9108950895CF92DF92EF92FF92B7
:101B40000F931F93CF93DF936C017A018B01C0E059
:101B5000D0E0CE15DF0581F0D8016D918D01D60161
:101B6000ED91FC910190F081E02DC6010995892B42
:101B700011F02196EECF7E01C701DF91CF911F9129
:101B80000F91FF90EF90DF90CF9008950E9429254C
:101B900088E994E00E94DE0F21E0892B09F420E01F
:101BA000822F08951F920F920FB60F9211242F9338
:101BB0003F938F939F93AF93BF93809192029091A5
:101BC0009302A0919402B091950230918C0223E08F
:101BD000230F2D3720F40196A11DB11D05C026E865
:101BE000230F0296A11DB11D20938C0280939202B7
:101BF00090939302A0939402B093950280918802EF
:101C000090918902A0918A02B0918B020196A11D48
:101C1000B11D8093880290938902A0938A02B093A9
:101C20008B02BF91AF919F918F913F912F910F9018
:101C30000FBE0F901F9018951F920F920FB60F9224
:101C400011242F933F934F935F936F937F938F93C1
:101C50009F93AF93BF93EF93FF93E0910601F091B1
:101C600007010995FF91EF91BF91AF919F918F91DE
:101C70007F916F915F914F913F912F910F900FBE88
:101C80000F901F9018951F920F920FB60F9211246C
:101C90002F933F934F935F936F937F938F939F9374
:101CA000AF93BF93EF93FF93E0910401F09105018F
:101CB0000995FF91EF91BF91AF919F918F917F9186
:101CC0006F915F914F913F912F910F900FBE0F90A9
:101CD0001F901895DC01ED91FC910190F081E02DB1
:101CE00009946115710579F0FB0101900020E9F775
:101CF0003197AF01461B570BDC01ED91FC9102803F
:101D0000F381E02D099480E090E008958F929F92F6
:101D1000AF92BF92EF92FF920F931F93CF93DF93F7
:101D2000CDB7DEB7A1970FB6F894DEBF0FBECDBF1B
:101D30007C01FA01CB0119A2223008F42AE08E01BD
:101D40000F5D1F4F822E912CA12CB12CBF01A5013C
:101D500094010E94B223F901CA01015011096A30AD
:101D600014F4605D01C0695CD8016C93232B242BB3
:101D7000252B61F7B801C7010E94710EA1960FB61D
:101D8000F894DEBF0FBECDBFDF91CF911F910F91B1
:101D9000FF90EF90BF90AF909F908F9008957F92AB
:101DA0008F929F92AF92BF92CF92DF92EF92FF926B
:101DB0000F931F93CF93DF938C016A017B01722EE7
:101DC0009A01AB01C701B6010E949923882319F03B
:101DD00067ED71E027C046015701E894B7F82FEF8F
:101DE0003FEF4FE75FE7C501B4010E9499238111DE
:101DF0000DC02FEF3FEF4FE75FE7C501B4010E9431
:101E0000CF2118161CF46BED71E00CC02FEF3FEFE3
:101E10004FE75FE4C701B6010E942723181694F428
:101E20006FED71E0C801DF91CF911F910F91FF908D
:101E3000EF90DF90CF90BF90AF909F908F907F906A
:101E40000C94710E2FEF3FEF4FE75FECC701B60127
:101E50000E94CF2187FDE4CF20E030E0A901C70137
:101E6000B6010E94CF2187FF0AC06DE2C8010E941F
:101E70006A0EEC01F7FAF094F7F8F09402C0C0E0B3
:101E8000D0E0B12C60E070E080E09FE37B1441F093
:101E900020E030E040E251E40E94D421B394F6CF38
:101EA000A70196010E9463216B017C010E944622DA
:101EB0004B015C012AE0AB01BC01C8010E94860E07
:101EC000C80FD91F7720C1F1C501B4010E94752246
:101ED0009B01AC01C701B6010E9462216B017C012C
:101EE0006EE2C8010E946A0EC80FD91F20E030E0E0
:101EF00040E251E4C701B6010E942C234B015C0172
:101F00000E9446226B01E12CF12C2AE0B701A601C8
:101F1000C8010E94860EC80FD91FC701B6010E94D2
:101F200075229B01AC01C501B4010E9462216B01C5
:101F30007C017A947110DACFCE01DF91CF911F919D
:101F40000F91FF90EF90DF90CF90BF90AF909F9058
:101F50008F907F9008950C94710EFC01538D448DE9
:101F6000252F30E0842F90E0821B930B541710F044
:101F7000CF96089501970895FC01918D828D981751
:101F800061F0828DDF01A80FB11D5D968C91928D5D
:101F90009F5F9F73928F90E008958FEF9FEF08955A
:101FA000FC01918D828D981731F0828DE80FF11D23
:101FB000858D90E008958FEF9FEF0895FC01918D3E
:101FC000228D892F90E0805C9F4F821B91098F7337
:101FD00099270895FC01848DDF01A80FB11DA35A34
:101FE000BF4F2C91848D90E001968F739927848F39
:101FF000A689B7892C93A089B1898C91837080645C
:102000008C93938D848D981306C00288F389E02DFC
:1020100080818F7D80830895EF92FF920F931F93AD
:10202000CF93DF93EC0181E0888F9B8D8C8D98138B
:1020300005C0E889F989808185FD26C0F62E0B8DC3
:1020400010E00F5F1F4F0F731127E02E8C8DE812E9
:102050000CC00FB607FCFACFE889F989808185FFAB
:10206000F5CFCE010E94EA0FF1CF8B8DFE01E80F74
:10207000F11DE35AFF4FF0829FB7F8940B8FEA8966
:10208000FB89808180620AC09FB7F894EE89FF893E
:102090006083E889F98980818370806480839FBF31
:1020A00081E090E0DF91CF911F910F91FF90EF9031
:1020B0000895CF93DF93EC01888D8823C9F0EA89D6
:1020C000FB89808185FD05C0A889B9898C9186FD31
:1020D0000FC00FB607FCF5CF808185FFF2CFA8892E
:1020E000B9898C9185FFEDCFCE010E94EA0FE7CF31
:1020F000DF91CF91089580E090E0892B29F00E9434
:10210000C80D81110C940000089580918D028823E0
:10211000A9F140910D0150910E0160910F01709154
:10212000100126E932E080919604909197040E9474
:10213000DE06811102C080E0089540918E02509128
:102140008F026091900270919102411551056105D5
:10215000710591F026E932E0809196049091970400
:102160000E94DE06882339F310928E0210928F02AD
:10217000109290021092910210928D0281E00895C7
:102180001F920F920FB60F9211242F933F934F93EC
:102190005F936F937F938F939F93AF93BF93EF93CF
:1021A000FF9388E994E00E94EA0FFF91EF91BF91BD
:1021B000AF919F918F917F916F915F914F913F91DF
:1021C0002F910F900FBE0F901F9018951F920F9296
:1021D0000FB60F9211242F938F939F93EF93FF933A
:1021E000E091A804F091A9048081E091AE04F091FF
:1021F000AF0482FD12C090818091B1048F5F8F7314
:102200002091B204821751F0E091B104F0E0E85659
:10221000FB4F958F8093B10401C08081FF91EF91B6
:102220009F918F912F910F900FBE0F901F90189537
:102230008F929F92AF92BF92EF92FF920F931F9354
:10224000CF934B015C01C42F80910D0190910E0141
:10225000A0910F01B091100188159905AA05BB0541
:1022600001F10E948510811102C080E020C086E942
:10227000E82E82E0F82E00E012E020E030E0B50128
:10228000A40180919604909197040E944A068823A5
:1022900061F380920D0190920E01A0920F01B09215
:1022A000100180918D02C82BC0938D0281E0CF91E7
:1022B0001F910F91FF90EF90BF90AF909F908F90E4
:1022C00008954F925F926F927F928F929F92AF92FA
:1022D000BF92CF92DF92EF92FF920F931F93CF9313
:1022E000DF93EC01423051056105710510F480E087
:1022F00078C089859A85AB85BC850196A11DB11DE5
:1023000084179507A607B70790F3CB88DC88ED887C
:10231000FE888F89803129F4BB27A72F962F852F20
:1023200009C0DB01CA01E7E0B695A79597958795A7
:10233000EA95D1F7480159012A013B01C80ED91E7F
:10234000EA1EFB1E80910D0190910E01A0910F01DC
:10235000B0911001C816D906EA06FB0681F48F89F0
:102360008031A9F4B301A201552766277727440FCE
:10237000551FFA01EA56FD4F9182808219C040E054
:10238000C701B6010E9418118111E9CFB0CFB30186
:10239000A2014F77552766277727440F551F440F13
:1023A000551FFA01EA56FD4F80829182A282B382C4
:1023B00080918D02816080938D028A89823080F0C5
:1023C0008D819E81AF81B885C80ED91EEA1EFB1E85
:1023D000C0928E02D0928F02E0929002F09291020F
:1023E00081E0DF91CF911F910F91FF90EF90DF90EF
:1023F000CF90BF90AF909F908F907F906F905F90A5
:102400004F9008958F929F92AF92BF92CF92DF929A
:10241000EF92FF920F931F93CF93DF93FC0181857F
:102420009285A385B4850196A11DB11D84179507DA
:10243000A607B70710F480E05BC083889488A5885E
:10244000B6888789803129F4BB27A72F962F852F3F
:1024500009C0DB01CA01C7E0B695A7959795879596
:10246000CA95D1F7E9016A017B018F01BC01CD0159
:10247000680D791D8A1D9B1D80900D0190900E01A5
:10248000A0900F01B0901001681579058A059B0591
:1024900091F4F80187898031A1F4DD24EE24FF2432
:1024A000C601880F991FFC01EA56FD4F808191817A
:1024B000A0E0B0E018C040E00E9418118111E9CFFF
:1024C000BACFE894C7F8DD24EE24FF24C601880FB4
:1024D000991F880F991FFC01EA56FD4F8081918159
:1024E000A281B381BF7088839983AA83BB8381E073
:1024F000DF91CF911F910F91FF90EF90DF90CF90E0
:10250000BF90AF909F908F900895CF93DF93EC0191
:102510008D81882379F18C8187FF28C06E857F8526
:102520008889998941E00E941811882319F1EA8964
:1025300080E2E89FF0011124EA56FD4F3097D1F078
:102540008D81823040F48B899C89AD89BE89848FCE
:10255000958FA68FB78F8F89988DA98DBA8D938F00
:10256000828FB58BA48B8C818F778C83DF91CF91F9
:102570000C94851080E0DF91CF9108958F929F9207
:10258000AF92BF92CF92DF92EF92FF920F931F9381
:10259000CF93DF93EC018D81811102C080E078C080
:1025A0000B891C892D893E890417150726073707D3
:1025B000A8F36A017B01823029F4CA86DB86EC86A7
:1025C000FD860DC0C114D104E104F10451F41E8252
:1025D0001F82188619861A861B861C861D8681E036
:1025E00057C08A849B84AC84BD84EB8DFC8D25858B
:1025F00030E0275F3F4FB501A40141505109610907
:102600007109022E04C076956795579547950A94EF
:10261000D2F7D701C6010197A109B10904C0B69547
:10262000A795979587952A95D2F784179507A607BA
:10263000B70720F089288A288B2871F44F89588D94
:10264000698D7A8D4E835F83688779874C015D0140
:102650008E010A5F1F4F16C0841B950BA60BB70B8C
:10266000F5CF4E815F816885798598018B8D9C8D32
:102670000E94021291E0891A9108A108B1088823EA
:1026800009F48CCF81149104A104B10451F795CFC2
:10269000DF91CF911F910F91FF90EF90DF90CF903E
:1026A000BF90AF909F908F9008952F923F924F923E
:1026B0005F926F927F928F929F92AF92BF92CF92D2
:1026C000DF92EF92FF920F931F93CF93DF9300D08F
:1026D00000D0CDB7DEB78C015B011A01DC01159685
:1026E0008C9115978130C9F414968C9181FF15C097
:1026F00082FF1DC0F80143895489658976898285E6
:102700009385A485B58584179507A607B70779F043
:10271000C8010E94BE1281110AC081E090E0D80178
:1027200013969C938E93129780E090E036C16101DE
:1027300083C05B968D919C915C97FC0174802FEF18
:10274000270D2A013B0139E076946794579447940A
:102750003A95D1F7722E74207A01F1E0FF227720AA
:1027600009F476C080E092E08E199F0946018C152D
:102770009D0508F44C01D8015B962D913C915C9726
:1027800016968D919D910D90BC91A02D0297A10957
:10279000B109F901058404C0880F991FAA1FBB1F46
:1027A0000A94D2F74685578560897189840F951FF1
:1027B000A61FB71F9C01AD01270D311D411D511DE5
:1027C00029013A01811432E0930609F088C0809112
:1027D0000D0190910E01A0910F01B09110014816CA
:1027E00059066A067B0659F48FEF9FEFDC01809350
:1027F0000D0190930E01A0930F01B093100195016C
:10280000B301A20180919604909197040E94DE0684
:10281000882309F482CF9EEFB91AC818D908F801A5
:1028200082859385A485B585880D991DA11DB11D4F
:1028300082879387A487B587D8011A964D915D91B9
:102840006D917C911D97C114D10409F072CF87C09E
:10285000E114F10409F086CF16964D915D916D91CA
:102860007C911997411551056105710559F45796E9
:102870008D919D910D90BC91A02D0097A105B10562
:1028800041F521C09E012F5F3F4F0E940212882315
:1028900009F44BCF89819A81AB81BC81F801238DEA
:1028A000348DF9012789203129F048EF5FEF6FEF70
:1028B0007FE004C048EF5FEF60E070E084179507A9
:1028C000A607B70730F0C8010E948F0481114ACFD4
:1028D00024CFF80186839783A087B18743CFE11483
:1028E000F10429F5D8011A964D915D916D917C9175
:1028F0001D9753968D919D910D90BC91A02D4817D9
:1029000059076A077B0798F00E948510882309F40D
:1029100004CF40920D0150920E0160920F0170920F
:10292000100180918D02816080938D0208C041E08A
:10293000C301B2010E941811882309F4EECED5011B
:10294000F701EA56FD4F9F01280D391D2E173F074D
:1029500019F08D918193FACFA80CB91C5ECFF801C4
:1029600083899489A589B68984179507A607B7072F
:1029700038F4438B548B658B768B84818068848399
:10298000F801848183FD02C0C10107C0C8010E9413
:102990008512882309F4C1CEF7CF0F900F900F90C6
:1029A0000F90DF91CF911F910F91FF90EF90DF90EB
:1029B000CF90BF90AF909F908F907F906F905F90DF
:1029C0004F903F902F900895CF93DF931F92CDB7F4
:1029D000DEB7698341E050E0BE016F5F7F4F0E9428
:1029E00055130F90DF91CF9108958F929F92AF92E0
:1029F000BF92CF92DF92EF92FF920F931F93CF93EC
:102A0000DF9300D000D0CDB7DEB77C0180E2689FB5
:102A1000F0011124EA56FD4F9385917121F0842F26
:102A2000827409F08FC0142FD70152966C9352977D
:102A300040910D0150910E0160910F0170911001B4
:102A40001E964D935D936D937C9351974489558960
:102A500060E070E0BA0155274427828D938DA0E095
:102A6000B0E0482B592B6A2B7B2BD70157964D93FF
:102A70005D936D937C935A978385887159F4848D07
:102A8000958DA68DB78DF701838B948BA58BB68B17
:102A900081E012C0803109F055C097012D5E3F4F93
:102AA000D7015B968D919C915C970E94D3188823E7
:102AB00009F448C084E0F7018583812F8F70D70126
:102AC00014968C931497F70116821782108611863C
:102AD0001A961D921D921D921C921D9716FF34C0CE
:102AE00015968C91813071F511FF2CC0F701438947
:102AF000548965897689452B462B472B09F461C09B
:102B000040E050E0BA01C7010E94BE128823D1F014
:102B1000F7018788908CA18CB28CC38CD48C82E016
:102B200090E0A0E0B0E0F60180839183A283B383BC
:102B30009E012F5F3F4FB501A401C6010E94021202
:102B4000811104C080E03DC081E03BC000E010E0A6
:102B50009801B501A401C6010E946111882391F377
:102B600089809A80AB80BC80D60157968C91803149
:102B700029F088EF9FEFAFEFBFE004C088EF9FEF31
:102B8000A0E0B0E088169906AA06BB0688F2D70135
:102B900057961D921D921D921C925A97F701138A07
:102BA000148A158A168A848180688483C7010E94EA
:102BB0008512882339F240E050E0BA01C7010E9433
:102BC000BE120F900F900F900F90DF91CF911F9139
:102BD0000F91FF90EF90DF90CF90BF90AF909F90BC
:102BE0008F9008952F923F924F925F926F927F92B3
:102BF0008F929F92AF92BF92CF92DF92EF92FF920D
:102C00000F931F93CF93DF93CDB7DEB72B970FB6FC
:102C1000F894DEBF0FBECDBF7C01FE013196CE0120
:102C20000C966F0130E23193E817F907E1F7DA010A
:102C300030E087E09D91992331F19E3231F48A3062
:102C400009F46BC138E08AE0F5CFECECF2E0449196
:102C5000442321F031969413FACF5FC1831708F40F
:102C60005CC14FED490F4E3508F057C141E0430FAD
:102C7000F601E30FF11D3FE9390F3A3108F49052A4
:102C80009083342FD7CF8981803209F446C1322E08
:102C90008B01DB015B968D919C915C97F701948F82
:102CA000838F16961D921D921D921C921997FB01FF
:102CB0001286138614861586B12CF80182859385B9
:102CC000A485B585438954896589768984179507D4
:102CD000A607B70708F05BC025E0B695A7959795BE
:102CE00087952A95D1F7F82FFF70AF2ED80115964A
:102CF0008C91823008F411C1C8010E949B0797FD96
:102D00000CC1F80182859385A485B5854F96A11DD8
:102D1000B11D82879387A487B587F0E2AF9EB0018B
:102D200011246A567D4F6115710509F4F6C0DB0167
:102D30008C91882319F0853EC1F4F1C0B1100EC00A
:102D4000F701A28A80910D0190910E01A0910F01CF
:102D5000B091100186879787A08BB18BDB018C9196
:102D6000882399F0BB24B394A8CF4BE050E0C60170
:102D70000E942E25892B09F0A0CF832D80738033EC
:102D800009F4CBC0432D6A2DC4C0BB24B394832D5A
:102D90008271823109F0C1C0BB20C1F0F7016685A4
:102DA00077858089918941E00E941811882309F470
:102DB000B4C0D70152968C91B0E28B9FC001112410
:102DC0008A569D4F009709F078C0A7C0F801858109
:102DD000823009F4A2C0C8010E948F04882309F43C
:102DE0009CC0D8015B96ED91FC915C9716968D90F6
:102DF0009D90AD90BC901997B2E08B1A9108A108F4
:102E0000B108058404C0880C991CAA1CBB1C0A9438
:102E1000D2F786859785A089B189880E991EAA1E4A
:102E2000BB1E2480E1E08E1A9108A108B10822207F
:102E300009F124013501420C511C611C711C0E94D6
:102E40008510882309F469C0E6E9F2E0119224E0D4
:102E5000E639F207D9F740920D0150920E016092C7
:102E60000F017092100180918D02816080938D021C
:102E70002A94DDCFD8015B96ED91FC915C9780E0C0
:102E800092E0A0E0B0E0058404C0880F991FAA1F5B
:102E9000BB1F0A94D2F7F801438954896589768962
:102EA000840F951FA61FB71F838B948BA58BB68BA2
:102EB000D70152961C9286E992E020E2FC01119221
:102EC0002A95E9F72BE0F601DC0101900D922A9595
:102ED000E1F721E238E2DC0151963C932E935097C2
:102EE00040E058E01F965C934E931E9753963C9398
:102EF0002E93529759963C932E93589757965C93DE
:102F00004E9356970E948510882339F0432DF70180
:102F10006289C7010E94F51405C080E003C0B110AA
:102F200021CF0ECF2B960FB6F894DEBF0FBECDBFCC
:102F3000DF91CF911F910F91FF90EF90DF90CF9095
:102F4000BF90AF909F908F907F906F905F904F90C9
:102F50003F902F900895CF93DF93EC010E9485124C
:102F6000882311F01D8281E0DF91CF910895833095
:102F700081F028F4813099F08230A1F008958730F3
:102F8000A9F08830B9F08430D1F4809180008F7D31
:102F900003C0809180008F7780938000089584B56E
:102FA0008F7702C084B58F7D84BD08958091B00075
:102FB0008F7703C08091B0008F7D8093B00008951B
:102FC000EF92FF920F931F93CF93DF93EC017B015E
:102FD0008A011B821A8288EE93E0A0E0B0E08C8325
:102FE0009D83AE83BF838CE491E0998388838DE1D8
:102FF00090E00E9408249A8F898F009779F02DE144
:10300000F701DC0101900D922A95E1F74CE050E0C8
:10301000B801CE010C960E943B25188EDF91CF910E
:103020001F910F91FF90EF900895CF92DF92EF9252
:10303000FF920F931F93CF93DF936B01770FEE08EF
:10304000FF08F7FE1BC0EC016DE20E946A0E8C01C6
:1030500044275527BA014C195D096E097F092AE0FA
:10306000CE010E94860E800F911FDF91CF911F919C
:103070000F91FF90EF90DF90CF9008952AE0B70175
:10308000A601DF91CF911F910F91FF90EF90DF90FC
:10309000CF900C94860EEF92FF920F931F93CF93D5
:1030A000DF93EC011F811695169516951150FE8041
:1030B000FA9400E060E0CE010E940D0A602FCE017C
:1030C0000E94010AE12C6C85CE010E94E209E39482
:1030D000FE14C8F70F5F101768F760E0CE010E947A
:1030E0000D0A60E0CE01DF91CF911F910F91FF900B
:1030F000EF900C94010ACF93DF93FC0182819381BE
:103100009093AA058093A90584819581A681B781B2
:103110008093AB059093AC05A093AD05B093AE053D
:1031200080859185A285B3858093AF059093B00586
:10313000A093B105B093B205EF012C96A3EBB5E0D7
:1031400089918D9385E0A03CB807D1F7818D928D50
:103150009093C1058093C00587EA95E0DF91CF91F8
:1031600008950F931F93CF93DF938C01C0E0D0E0BD
:10317000F801EC0FFD1F6491662341F088E994E0AB
:103180000E940C10892B11F02196F2CF63EA71E0B6
:1031900088E994E00E94710E8C0F9D1FDF91CF9102
:1031A0001F910F9108954F925F926F927F92AF920D
:1031B000BF92CF92DF92EF92FF920F931F93CF9324
:1031C000DF9300D000D0CDB7DEB78C0149835A839E
:1031D0006B837C835901C12CD12C7601412C82E078
:1031E000582E612C712C49815A816B817C819E0102
:1031F0002F5F3F4FC8010E940212882351F1D30173
:10320000C201F801058404C0880F991FAA1FBB1FC3
:103210000A94D2F7C80ED91EEA1EFB1E49815A81B4
:103220006B817C818789803129F088EF9FEFAFEF38
:10323000BFE004C088EF9FEFA0E0B0E04817590757
:103240006A077B0780F2F501C082D182E282F382B5
:1032500081E00F900F900F900F90DF91CF911F9111
:103260000F91FF90EF90DF90CF90BF90AF907F9045
:103270006F905F904F900895CF93DF93FC0125816D
:10328000222311F080E049C0EC0180915A05803181
:10329000C1F482E08583178A108E118E128E809180
:1032A0005B0590915C05A0E0B0E025E0880F991FD8
:1032B000AA1FBB1F2A95D1F7838B948BA58BB68B46
:1032C00019C08032F9F683E0858340915D05509105
:1032D0005E0560915F0570916005478B508F618F2F
:1032E000728F9F012D5E3F4F83E495E00E94D318BB
:1032F000882341F283E495E09C8F8B8F81E08C835F
:103300001E821F82188619861A861B861C861D86B9
:103310001E861F86188A198A1A8ADF91CF9108950E
:10332000EF92FF920F931F93CF93DF93CDB7DEB74A
:10333000C755D1090FB6F894DEBF0FBECDBF8C01C3
:103340001C821B828EE2E82E81E0F82EFA82E9824E
:103350001E82CE0101960E943C19BE016F5F7F4F15
:10336000CE01CB960E944A0719A218A2FF8EEE8EBC
:103370001BA221968FAD2197811113C0F8011382F2
:10338000128288EE93E0A0E0B0E084839583A68368
:10339000B7838CE491E091838083128E118E148622
:1033A00027C027E146EF51E0BE01655C7F4FCE01AB
:1033B0004E960E94F215882309F3CE01CB960E9407
:1033C000AB1749A95AA96BA97CA9CE014E960E94B8
:1033D000BE12BE01625E7F4FCE0101960E944A0777
:1033E00046EF51E0BE016F5F7F4FC8010E94E017BA
:1033F000C801C95ADF4F0FB6F894DEBF0FBECDBF6C
:10340000DF91CF911F910F91FF90EF9008958F92D0
:103410009F92AF92BF92CF92DF92EF92FF92CF93A3
:10342000DF93C82F87E395E09093970480939604E9
:10343000CC2369F1C53010F080E00CC140E060E0C1
:1034400070E0CB010E9418118823B1F320E1C29FE4
:10345000C00111248A579D4FFC01E254FE4F208188
:103460002F7751F73C9640815181628173814436B8
:1034700051056105710500F33497C080D180E28069
:10348000F380C114D104E104F10421F4D5CFC12C9F
:10349000D12C760140E0C701B6010E9418118823A3
:1034A00059F28091A1029091A2028115924021F6D9
:1034B000A091A602AA2309F4BFCF6091A402709143
:1034C000A5026115710509F4B7CF2091A30222234B
:1034D00009F4B2CFA09355052093470580E030E072
:1034E00041E050E0C82FFA01082E02C0EE0FFF1F86
:1034F0000A94E2F72E173F0739F08F5FC83091F733
:1035000089E08093500598CF809350052091AC02BC
:103510003091AD022115310519F040E050E008C0AE
:103520002091BA023091BB024091BC025091BD0281
:10353000209348053093490540934A0550934B0525
:1035400046015701860E971EA11CB11C809256059C
:1035500090925705A0925805B0925905E091A702A4
:10356000F091A802F0935C05E0935B05B0E00E9447
:10357000D423860E971EA81EB91E80925D059092D8
:103580005E05A0925F05B092600585E0EE0FFF1F1B
:103590008A95E1F7E150FE4FEF2FFF27E6958E0E5B
:1035A0009F1EA11CB11C8092510590925205A092C1
:1035B0005305B09254052091A9023091AA02211519
:1035C000310521F0A90160E070E008C04091B60229
:1035D0005091B7026091B8027091B902D701C6014B
:1035E00088199909AA09BB09840F951FA61FB71F3F
:1035F00004C0B695A79597958795CA95D2F78093FD
:103600004C0590934D05A0934E05B0934F05853F13
:103610002FE09207A105B10510F48CE018C0853F9A
:103620009F4FA105B10510F480E111C08091C20245
:103630009091C302A091C402B091C50280935D0530
:1036400090935E05A0935F05B093600580E2809340
:103650005A0581E0DF91CF91FF90EF90DF90CF90FE
:10366000BF90AF909F908F900895CF93DF93BC0150
:1036700082EC95E00E94710EEC0163EA71E082EC4D
:1036800095E00E94710E8C0F9D1FDF91CF910895E0
:10369000CF93DF93282F30E0F901EE5DFC4F84914A
:1036A000F901E25FFC4FD491F901E650FD4FC4915E
:1036B000CC2391F081110E94B717EC2FF0E0EE0FB0
:1036C000FF1FE051FD4FA591B491EC91ED2381E0F6
:1036D00090E021F480E002C080E090E0DF91CF91A3
:1036E00008951F93CF93DF93282F30E0F901EE5D0B
:1036F000FC4F8491F901E25FFC4FD491F901E6504F
:10370000FD4FC491CC23C1F0162F81110E94B71731
:10371000EC2FF0E0EE0FFF1FEA51FD4FA591B491A1
:103720009FB7F894111104C08C91D095D82302C092
:10373000EC91DE2BDC939FBFDF91CF911F91089519
:10374000CF93DF9390E0FC01E25FFC4F2491FC01FA
:10375000E650FD4F8491882361F190E0880F991F16
:10376000FC01E452FD4FC591D491FC01EA51FD4F9B
:10377000A591B491611109C09FB7F89488812095F3
:1037800082238883EC912E230BC0623061F49FB7B3
:10379000F8948881322F309583238883EC912E2BE7
:1037A0002C939FBF06C08FB7F894E8812E2B2883F7
:1037B0008FBFDF91CF91089580918005813061F4B2
:1037C00062E0809181050E94A01B62E080918205E9
:1037D0000E94A01B62E00BC060E0809181050E9406
:1037E000A01B60E0809182050E94A01B60E0809198
:1037F00083050C94A01B8E3008F08E50209111018F
:1038000090E4299F900111248770822B80937C0083
:1038100080917A00806480937A0080917A0086FD9E
:10382000FCCF809178002091790090E0922B089550
:103830002FB7F89460919202709193028091940254
:10384000909195022FBF08958F929F92AF92BF9251
:10385000CF92DF92EF92FF920F931F930E94181C5A
:103860006093840570938505809386059093870502
:103870002091940530919505C0908805D0908905D8
:10388000E0908A05F0908B0546015701820E931E49
:10389000A11CB11C681579058A059B0508F462C056
:1038A000809181050E94481B2091800530E041E015
:1038B0002817390709F040E04093A205809182055E
:1038C0000E94481BFC012091800530E081E0E21756
:1038D000F30709F080E08093A3059091A205409141
:1038E0008405509185056091860570918705911139
:1038F0002DC08091A505882349F1E217F30711F443
:1039000081E001C082E0E0919F05F091A005009167
:103910009B0510919C0520919D0530919E050E0FF1
:103920001F1F211D311D401751076207730718F42F
:103930008091A10502C08093A10540939B055093FF
:103940009C0560939D0570939E0501C080E0909357
:10395000A505409388055093890560938A05709367
:103960008B0501C080E01F910F91FF90EF90DF90D9
:10397000CF90BF90AF909F908F900895CF93DF939B
:10398000CDB7DEB76B970FB6F894DEBF0FBECDBFD5
:10399000789484B5826084BD84B5816084BD85B52A
:1039A000826085BD85B5816085BD80916E00816036
:1039B00080936E00109281008091810082608093DC
:1039C00081008091810081608093810080918000DE
:1039D0008160809380008091B10084608093B10009
:1039E0008091B00081608093B00080917A00846003
:1039F00080937A0080917A00826080937A0080912F
:103A00007A00816080937A0080917A008068809348
:103A10007A001092C100E091A804F091A90482E01C
:103A20008083E091A404F091A5041082E091A604A3
:103A3000F091A7048FEC80831092B004E091AC0465
:103A4000F091AD0486E08083E091AA04F091AB048C
:103A5000808180618083E091AA04F091AB04808131
:103A600088608083E091AA04F091AB048081806833
:103A70008083E091AA04F091AB0480818F7D8083E4
:103A800025E833E03093050120930401809169001B
:103A90008C7F816080936900E89A309307012093BE
:103AA000060180916900837F846080936900E99AB0
:103AB00081E080931101809380050E94DC1B85E0EA
:103AC00090E090939505809394058AEF90E0909311
:103AD000A00580939F050E94241C0E94181C6093DF
:103AE0008405709385058093860590938705809162
:103AF00083050E94481BFC012091800530E091E085
:103B0000E217F30709F090E09093A4054091840533
:103B1000509185056091860570918705A091960565
:103B2000B0919705C0908C05D0908D05E0908E05E2
:103B3000F0908F05CA0EDB1EE11CF11C4C155D05D3
:103B40006E057F0520F18091A605E217F30779F055
:103B5000882309F4F4C281E080939A05409390058C
:103B600050939105609392057093930506C081115F
:103B700004C080919A058111F9C29093A6054093E3
:103B80008C0550938D0560938E0570938F05809101
:103B90006605882321F081E695E00E94AB1710921C
:103BA00042051092400510923D0510923C058AE0B6
:103BB00080933B050E94181C8B0161E080913B05BE
:103BC0000E94A01B61E080913B050E94711BFFB623
:103BD000F89480918702811127C0E4E0F3E084919A
:103BE000E8E1F3E09491E82FF0E0EE0FFF1FE452DC
:103BF000FD4FA591B491EC91E92321F461E08AE0B5
:103C00000E94711B61E08AE00E94A01B8CB580615C
:103C10008CBD8CB580648CBD61E08DE00E94A01BE2
:103C200061E08BE00E94A01B809187028F5F8093F0
:103C30008702FFBE82E5809335051092360580919C
:103C40003505909136050E94E2052AE0F22E8FEFAD
:103C50000E94A305FA94F110FACF87E395E00E9441
:103C6000E50520E030E0A90160E087E395E00E94EF
:103C7000FB05F82E8093410521E0821749F00E9450
:103C8000181C601B710B613D774058F381E056C0F2
:103C90002AEA31E040E050E068E087E395E00E94E6
:103CA000FB0582FF03C0F092420510C094E0F92E9C
:103CB0000E94AA0580934105FA94F110F9CF8A3A3F
:103CC00011F082E03BC082E0809342058091420582
:103CD000823021F0C12CD12C760105C0C12CD12C11
:103CE000E12C80E4F82E20E030E0A90167E387E3CF
:103CF00095E00E94FB05A701960169E287E395E044
:103D00000E94FB0580934105882349F00E94181CFE
:103D1000601B710B613D774030F388E00FC08091EC
:103D20004205823001F520E030E0A9016AE387E333
:103D300095E00E94FB05882341F086E080933C05D6
:103D400087E395E00E949805ACC00E94AA05807C9C
:103D5000803C19F483E0809342050E94AA050E94EA
:103D6000AA050E94AA0587E395E00E94980580E5D0
:103D7000809335051092360581E00E94071A88234A
:103D800041F081E695E00E943C19882309F489C03E
:103D900007C080E00E94071A882309F482C0F1CF8F
:103DA00083EB92E00E94B118CE0101960E94901917
:103DB000CE0101960E947B1863EE71E087EA95E0E0
:103DC0000E94AB0F8091C0059091C105009761F0F2
:103DD0000E94AB178091C0059091C1050E94A0245C
:103DE0001092C1051092C0051092840261E085E036
:103DF0000E94A01B60E085E00E94711B61E086E0EC
:103E00000E94A01B61E086E00E94711B1092D20507
:103E10008CE38093D1051092B9008CE08093B800B8
:103E20001092C6051092C705EDEAF2E085919491D3
:103E3000E82EEFEAF2E0F490E0EBF2E0E491E093B8
:103E4000C805E1EBF2E0E491E093C905E2EBF2E0B2
:103E5000E491E093CA058C01802F8E198F1548F4E8
:103E6000F801649182EC95E00E94F9090F5F1F4F01
:103E7000F3CF82EC95E00E944B18E7ECF0E0F09372
:103E8000CD05E093CC058491E8ECF0E0E491F0E01E
:103E9000F82B319709F06DC11092CB0500E117E2C4
:103EA00012C089EA90E00E94B118F8CF0E94720B0C
:103EB00080910A0190910B01209185023091860238
:103EC000281739076CF080910C018111F1CF32C1B4
:103ED00060E085E00E94711B60E086E00E94711B3B
:103EE000809184028111D6C060E085E00E94711B40
:103EF00061E086E00E94711BE12CF12C60910801C9
:103F000070910901C8010E949E23E616F70684F508
:103F1000FFEFEF1AFF0A0E94990B20917C0230916B
:103F20007D0240917E0250917F02609180027091EB
:103F3000810280918202909183020E942C239B0136
:103F4000AC01609178027091790280917A0290912F
:103F50007B020E94632160937802709379028093C0
:103F60007A0290937B020E94180D0E94720BC6CFBA
:103F70000E94F70C8EE00E94FB1BBC01990F880B7E
:103F8000990B0E94772220E030E040EA5BE30E9438
:103F90002C2326E636E646E050E40E94CF2187FF38
:103FA00037C081E0809384021092740210927502EF
:103FB000109276021092770261E085E00E94711BF8
:103FC0000E94181C6B017C0120E1C20E27E2D21E68
:103FD000E11CF11C0E94181C6C157D058E059F05C7
:103FE00018F0E12CF12C03C00E94990BF3CF6091E3
:103FF000080170910901C8010E949E23E616F70688
:104000000CF066CF8FEFE81AF80A0E94720BEFCF20
:1040100060E085E00E94711B61E086E00E94711BF8
:104020000E94990B5DCF0E94F70C8EE00E94FB1B53
:10403000BC01990F880B990B0E94772220E030E099
:1040400040EA5BE30E942C2323E333E343E650E49E
:104050000E94272318160CF067C0109284028091EA
:104060008502909186020196909386028093850244
:10407000109278021092790210927A0210927B02CA
:1040800060E085E00E94711B61E086E00E94711B88
:104090000E94990B80918402882309F407CF60E085
:1040A00085E00E94711B60E086E00E94711BE12C9C
:1040B000F12C6091080170910901C8010E949E23B2
:1040C000E616F7060CF0AFCFEFEFEE1AFE0A0E94ED
:1040D000990B20917C0230917D0240917E0250919B
:1040E0007F026091800270918102809182029091A2
:1040F00083020E942C239B01AC0160917402709199
:10410000750280917602909177020E9463216093FC
:1041100074027093750280937602909377020E94E6
:10412000180D0E94720BC5CF60E085E00E94711BE4
:1041300060E0ABCF0E94F70C0E947B10C4CE809150
:104140009A05882309F419CD0091900510919105E5
:1041500020919205309193050F5F1F4F2F4F3F4FD6
:10416000041715072607370708F007CD10929A05A0
:1041700004CD81E08093CB0591CECF93DF93E8E926
:10418000F4E01382128288EE93E0A0E0B0E0848332
:104190009583A683B7832CE131E03183208325EC1E
:1041A00030E03587248724EC30E03787268720EC01
:1041B00030E0318B208B21EC30E0338B228B22ECF2
:1041C00030E0358B248B26EC30E0378B268B118E3C
:1041D000128E138E148EE5E3F5E020E52083118224
:1041E000E7E3F5E0158216821186138642E050E07F
:1041F00060E070E0448755876687778713A215A62D
:1042000014A62EE231E033A722A717A6E3EDF5E0CE
:104210001382128284839583A683B7832AE331E0D5
:1042200031832083E2ECF5E013821282138612863A
:10423000148621E025874AE651E051834083E7EA6E
:10424000F5E01382128284839583A683B7838CE47E
:1042500091E091838083128E118E1486C0E8D5E0A0
:10426000288382E090E09D8B8C8B88EC90E09F8B84
:104270008E8B188E198E1A8E84E690E098A38F8FFD
:1042800019A21AA21BA21CA21DA21EA282E089834F
:1042900083E08A8384E08B830E94181C6C837D8377
:1042A0008E839F83688779878A879B876C877D87C2
:1042B0008E879F876B8F7C8F8D8F9E8FDF91CF91A5
:1042C0000C94DC1B5058BB27AA270E947A210C941F
:1042D000ED220E94DF2238F00E94E62220F039F41D
:1042E0009F3F19F426F40C94DC220EF4E095E7FBD2
:1042F0000C94D622E92F0E94FE2258F3BA176207C7
:1043000073078407950720F079F4A6F50C94202311
:104310000EF4E0950B2EBA2FA02D0B01B9019001E0
:104320000C01CA01A0011124FF27591B99F0593F24
:1043300050F4503E68F11A16F040A22F232F342F6C
:104340004427585FF3CF469537952795A795F040BA
:104350005395C9F77EF41F16BA0B620B730B840BCF
:10436000BAF09150A1F0FF0FBB1F661F771F881F87
:10437000C2F70EC0BA0F621F731F841F48F48795DF
:1043800077956795B795F7959E3F08F0B0CF9395D1
:10439000880F08F09927EE0F9795879508950E944A
:1043A000B22208F481E008950E94E8210C94ED22E5
:1043B0000E94E62258F00E94DF2240F029F45F3F7D
:1043C00029F00C94D62251110C9421230C94DC2258
:1043D0000E94FE2268F39923B1F3552391F3951BB4
:1043E000550BBB27AA2762177307840738F09F5F16
:1043F0005F4F220F331F441FAA1FA9F335D00E2E83
:104400003AF0E0E832D091505040E695001CCAF7EF
:104410002BD0FE2F29D0660F771F881FBB1F2617B2
:1044200037074807AB07B0E809F0BB0B802DBF0189
:10443000FF2793585F4F3AF09E3F510578F00C9458
:10444000D6220C9421235F3FE4F3983ED4F3869563
:1044500077956795B795F7959F5FC9F7880F911D79
:104460009695879597F90895E1E0660F771F881F65
:10447000BB1F621773078407BA0720F0621B730B18
:10448000840BBA0BEE1F88F7E09508950E9406236F
:1044900088F09F5798F0B92F9927B751B0F0E1F005
:1044A000660F771F881F991F1AF0BA95C9F714C0B5
:1044B000B13091F00E942023B1E008950C942023A4
:1044C000672F782F8827B85F39F0B93FCCF38695EE
:1044D00077956795B395D9F73EF49095809570954B
:1044E00061957F4F8F4F9F4F0895E89409C097FBC8
:1044F0003EF490958095709561957F4F8F4F9F4FBB
:104500009923A9F0F92F96E9BB279395F6958795FE
:1045100077956795B795F111F8CFFAF4BB0F11F4C1
:1045200060FF1BC06F5F7F4F8F4F9F4F16C0882368
:1045300011F096E911C0772321F09EE8872F762F9E
:1045400005C0662371F096E8862F70E060E02AF0DF
:104550009A95660F771F881FDAF7880F96958795CB
:1045600097F90895990F0008550FAA0BE0E8FEEFA0
:1045700016161706E807F907C0F012161306E40727
:10458000F50798F0621B730B840B950B39F40A2620
:1045900061F0232B242B252B21F408950A2609F4FE
:1045A000A140A6958FEF811D811D089597F99F6702
:1045B00080E870E060E008959FEF80EC08950024AB
:1045C0000A941616170618060906089500240A9478
:1045D00012161306140605060895092E0394000CFE
:1045E00011F4882352F0BB0F40F4BF2B11F460FF8D
:1045F00004C06F5F7F4F8F4F9F4F089557FD9058B6
:10460000440F551F59F05F3F71F04795880F97FB96
:10461000991F61F09F3F79F0879508951216130650
:104620001406551FF2CF4695F1DF08C0161617067F
:104630001806991FF1CF86957105610508940895B4
:10464000E894BB2766277727CB0197F908950E9446
:10465000B22208F48FEF08950E943F230C94ED22BC
:104660000E94DF2238F00E94E62220F0952311F00C
:104670000C94D6220C94DC2211240C9421230E9449
:10468000FE2270F3959FC1F3950F50E0551F629F76
:10469000F001729FBB27F00DB11D639FAA27F00D9B
:1046A000B11DAA1F649F6627B00DA11D661F829FC2
:1046B0002227B00DA11D621F739FB00DA11D621FA7
:1046C000839FA00D611D221F749F3327A00D611DC4
:1046D000231F849F600D211D822F762F6A2F1124A6
:1046E0009F5750409AF0F1F088234AF0EE0FFF1FD9
:1046F000BB1F661F771F881F91505040A9F79E3F30
:10470000510580F00C94D6220C9421235F3FE4F3F2
:10471000983ED4F3869577956795B795F795E79585
:104720009F5FC1F7FE2B880F911D9695879597F98E
:1047300008950E94B222880B990B089597FB072ECB
:1047400016F4009407D077FD09D00E94DF2307FC00
:1047500005D03EF4909581959F4F08957095619591
:104760007F4F0895A1E21A2EAA1BBB1BFD010DC0AD
:10477000AA1FBB1FEE1FFF1FA217B307E407F50711
:1047800020F0A21BB30BE40BF50B661F771F881FED
:10479000991F1A9469F760957095809590959B0183
:1047A000AC01BD01CF0108950E94F923A59F900D92
:1047B000B49F900DA49F800D911D11240895AA1BF4
:1047C000BB1B51E107C0AA1FBB1FA617B70710F0FC
:1047D000A61BB70B881F991F5A95A9F7809590952E
:1047E000BC01CD010895EE0FFF1F0590F491E02D5F
:1047F0000994A29FB001B39FC001A39F700D811DBA
:104800001124911DB29F700D811D1124911D0895D9
:104810000F931F93CF93DF938230910510F482E0C2
:1048200090E0E091E105F091E20520E030E0A0E0C9
:10483000B0E0309719F1408151810281138148170E
:104840005907C8F08417950769F4109731F012964C
:104850000C93129713961C9327C00093E1051093B5
:10486000E20522C02115310519F04217530718F44B
:104870009A01BD01EF01DF01F801DBCF2115310500
:10488000F9F0281B390B2430310580F48A819B8193
:104890006115710521F0FB019383828304C090931D
:1048A000E2058093E105FE01329644C0FE01E20F6D
:1048B000F31F8193919322503109398328833AC0A1
:1048C0002091DF053091E005232B41F42091140164
:1048D000309115013093E0052093DF0520911201FE
:1048E000309113012115310541F42DB73EB74091A8
:1048F000160150911701241B350BE091DF05F09153
:10490000E005E217F307A0F42E1B3F0B2817390729
:1049100078F0AC014E5F5F4F2417350748F04E0F1B
:104920005F1F5093E0054093DF058193919302C090
:10493000E0E0F0E0CF01DF91CF911F910F9108955A
:10494000CF93DF93009709F481C0FC013297138263
:104950001282A091E105B091E205109781F42081C7
:104960003181820F931F2091DF053091E0052817D8
:10497000390751F5F093E005E093DF0567C0ED01DD
:1049800020E030E0CE17DF0740F44A815B819E01D2
:1049900041155105F1F0EA01F5CFD383C28340817F
:1049A0005181840F951FC817D90759F488819981BF
:1049B000840F951F0296918380838A819B819383C4
:1049C00082832115310529F4F093E205E093E10596
:1049D0003DC0E901FB83EA8349915991C40FD51F7A
:1049E000EC17FD0761F480819181840F951F029679
:1049F000E90199838883828193819B838A83E0E0A4
:104A0000F0E012968D919C911397009719F0FD019B
:104A1000DC01F7CF8D919C9111979D012E5F3F4F47
:104A2000820F931F2091DF053091E0052817390789
:104A300069F4309729F41092E2051092E10502C062
:104A400013821282B093E005A093DF05DF91CF912E
:104A5000089581E090E0F8940C944A25FB01DC0174
:104A600004C08D910190801921F441505040C8F745
:104A7000881B990B0895FB01DC014150504048F020
:104A800001900D920020C9F701C01D924150504085
:084A9000E0F70895F894FFCF50
:104A9800BC2278BD9B0D9B0D1027E80301FFFFFF8B
:104AA800FF010000E3058000000000000C109C0DD1
:104AB800AD0F5910DE0FBC0FD00F00000000E4143A
:104AC8009C0DBF02BE020000000048023D02BF026A
:104AD8002F0236023302300200000000E701CA024A
:104AE800BF02C202C60184088E0800000000C60D7D
:104AF8009C0DBF02BE02000000002C0A9C0DBF02E4
:104B0800BE02650250617573656400562061646A6F
:104B180000492061646A00706F6C6C2074206164C5
:104B28006A004379636C65733A200020446F6E65B0
:104B38003A20000D0A004469736368617267696E00
:104B48006720617420004368617267696E6720613D
:104B58007420004120005600433A00576820443A28
:104B6800005768002C20006E616E00696E66006F49
:104B780076660053746174652C2054696D65732CD6
:104B880020562C204900746573742E7478740000C4
:107E0000112484B714BE81FFF0D085E080938100F7
:107E100082E08093C00088E18093C10086E0809377
:107E2000C20080E18093C4008EE0C9D0259A86E02C
:107E300020E33CEF91E0309385002093840096BBD3
:107E4000B09BFECF1D9AA8958150A9F7CC24DD24C4
:107E500088248394B5E0AB2EA1E19A2EF3E0BF2EE7
:107E6000A2D0813461F49FD0082FAFD0023811F036
:107E7000013811F484E001C083E08DD089C08234E0
:107E800011F484E103C0853419F485E0A6D080C0E4
:107E9000853579F488D0E82EFF2485D0082F10E0AE
:107EA000102F00270E291F29000F111F8ED06801E7
:107EB0006FC0863521F484E090D080E0DECF843638
:107EC00009F040C070D06FD0082F6DD080E0C81688
:107ED00080E7D80618F4F601B7BEE895C0E0D1E017
:107EE00062D089930C17E1F7F0E0CF16F0E7DF06D8
:107EF00018F0F601B7BEE89568D007B600FCFDCFD4
:107F0000A601A0E0B1E02C9130E011968C91119780
:107F100090E0982F8827822B932B1296FA010C0160
:107F200087BEE89511244E5F5F4FF1E0A038BF0790
:107F300051F7F601A7BEE89507B600FCFDCF97BE46
:107F4000E89526C08437B1F42ED02DD0F82E2BD052
:107F50003CD0F601EF2C8F010F5F1F4F84911BD097
:107F6000EA94F801C1F70894C11CD11CFA94CF0C13
:107F7000D11C0EC0853739F428D08EE10CD085E9AC
:107F80000AD08FE07ACF813511F488E018D01DD067
:107F900080E101D065CF982F8091C00085FFFCCF94
:107FA0009093C60008958091C00087FFFCCF809118
:107FB000C00084FD01C0A8958091C6000895E0E648
:107FC000F0E098E1908380830895EDDF803219F02E
:107FD00088E0F5DFFFCF84E1DECF1F93182FE3DFCA
:107FE0001150E9F7F2DF1F91089580E0E8DFEE27F6
:047FF000FF270994CA
:027FFE00040479
:0400000300007E007B
:00000001FF
