:100000000C946E010C9496010C9496010C9496013C
:100010000C9496010C9496010C9496010C94960104
:100020000C9496010C9496010C9496010C949601F4
:100030000C9496010C9496010C9496010C949601E4
:100040000C94370B0C9496010C9447040C942104E7
:100050000C9496010C9496010C9496010C949601C4
:100060000C9479040C949601AED580A81FD300405F
:100070008D142002A1C8DA02817FD9F1DB40A4A649
:10008000AF00030C0F30333C3FC0C3CCCFF0F3FCC8
:10009000FF000005072060000000000000005F0076
:1000A000000007000700147F147F14242A7F2A12FF
:1000B00023130864623649562050000807030000E5
:1000C0001C2241000041221C002A1C7F1C2A080817
:1000D0003E0808008070300008080808080000602A
:1000E000600020100804023E5149453E00427F4016
:1000F0000072494949462141494D331814127F1075
:1001000027454545393C4A494931412111090736BE
:1001100049494936464949291E000014000000405B
:100120003400000008142241141414141400412255
:10013000140802015909063E415D594E7C12111204
:100140007C7F494949363E414141227F4141413E00
:100150007F494949417F090909013E414151737F66
:100160000808087F00417F41002040413F017F088F
:100170001422417F404040407F021C027F7F0408E0
:10018000107F3E4141413E7F090909063E41512110
:100190005E7F09192946264949493203017F010337
:1001A0003F4040403F1F2040201F3F4038403F63BA
:1001B0001408146303047804036159494D43007F14
:1001C0004141410204081020004141417F040201E5
:1001D0000204404040404000030708002054547887
:1001E000407F284444383844444428384444287FD5
:1001F000385454541800087E090218A4A49C787F2F
:100200000804047800447D40002040403D007F10F9
:1002100028440000417F40007C047804787C080476
:1002200004783844444438FC18242418182424182A
:10023000FC7C08040408485454542404043F442417
:100240003C4040207C1C2040201C3C4030403C4432
:10025000281028444C9090907C4464544C440008EE
:10026000364100000077000000413608000201021C
:1002700004023C2623263C68001980200000000070
:1002800000240027002A0000000000250028002B81
:1002900000000000002300260029000404040404D8
:1002A0000404040202020202020303030303030123
:1002B00002040810204080010204081020010204FA
:1002C00008102000000008000201000003040700DD
:1002D0000000000000000000BB0EB50E11241FBE80
:1002E000CFEFD8E0DEBFCDBF22E0A2E8B1E001C091
:1002F0001D92AE3FB207E1F711E0A0E0B1E0E8EDFA
:10030000F8E202C005900D92A238B107D9F711E0CA
:10031000CDE6D1E004C02197FE010E945D12CC36EB
:10032000D107C9F70E94810B0C945F140C94000054
:10033000CF92DF92EF92FF920F931F93CF93DF93B1
:100340006C017A018B01C0E0D0E0CE15DF0581F0B1
:10035000D8016D918D01D601ED91FC910190F08154
:10036000E02DC6010995892B11F02196EECF7E0173
:10037000C701DF91CF911F910F91FF90EF90DF9018
:10038000CF900895FC01538D448D252F30E0842FAC
:1003900090E0821B930B541710F0CF9608950197AD
:1003A0000895FC01918D828D981761F0828DDF0197
:1003B000A80FB11D5D968C91928D9F5F9F73928F58
:1003C00090E008958FEF9FEF0895FC01918D828D4D
:1003D000981731F0828DE80FF11D858D90E008951A
:1003E0008FEF9FEF0895FC01918D228D892F90E072
:1003F000805C9F4F821B91098F73992708958AE033
:1004000092E00E94F30121E0892B09F420E0822F81
:100410000895FC01848DDF01A80FB11DA35ABF4FC1
:100420002C91848D90E001968F739927848FA689F3
:10043000B7892C93A089B1898C91837080648C9347
:10044000938D848D981306C00288F389E02D8081F6
:100450008F7D80830895EF92FF920F931F93CF9328
:10046000DF93EC0181E0888F9B8D8C8D981305C004
:10047000E889F989808185FD26C0F62E0B8D10E074
:100480000F5F1F4F0F731127E02E8C8DE8120CC0E9
:100490000FB607FCFACFE889F989808185FFF5CF8F
:1004A000CE010E940902F1CF8B8DFE01E80FF11DF4
:1004B000E35AFF4FF0829FB7F8940B8FEA89FB89CC
:1004C000808180620AC09FB7F894EE89FF896083BB
:1004D000E889F98980818370806480839FBF81E08F
:1004E00090E0DF91CF911F910F91FF90EF900895D1
:1004F000CF93DF93EC01888D8823C9F0EA89FB89CB
:10050000808185FD05C0A889B9898C9186FD0FC0C1
:100510000FB607FCF5CF808185FFF2CFA889B98996
:100520008C9185FFEDCFCE010E940902E7CFDF91CC
:10053000CF91089580E090E0892B29F00E94FF017F
:1005400081110C940000089585ED8093BC0080918A
:10055000BC0084FDFCCF1092C70108954091A30117
:10056000262F30E0240F311D21323105DCF420919B
:10057000C7012430C9F4FC0180E090E0861758F4EC
:100580003091A3012191DC01AD57BE4FA30FB11DE6
:100590002C930196F3CF8091A301680F6093A30180
:1005A00080E0089581E0089582E0089508958FEF36
:1005B0009FEF08958FEF9FEF08958091820190E063
:1005C0009195819591090895CF93DF93CB01EA012D
:1005D000642F0E94AE02CE01DF91CF910895CF9398
:1005E000DF931F92CDB7DEB7698361E0CE0101963C
:1005F0000E94AE0281E090E00F90DF91CF910895CC
:10060000DC01ED91FC910084F185E02D40E009943E
:10061000FC016093BC008091BC0087FFFCCF9091EF
:10062000B900987F90830895CF92DF92EF92FF9266
:100630000F931F93CF93DF93EC01C62ED42E88899E
:10064000882351F0411108C084E98093BC00809157
:10065000BC0084FDFCCF188AE8888E01025F1F4F22
:10066000E11014C0FF8464EAC8010E9408038E856B
:10067000883011F1803101F1DD2011F080E4E82EA5
:10068000E092BB0064E8C8010E940803C092BB006E
:1006900064E8C8010E94080382E0D81204C0888977
:1006A0008F5F888B11C084E98093BC008091BC006F
:1006B00084FDFCCF188A08C0FF0CF092BB0064E8F0
:1006C000C8010E940803D8CFDF91CF911F910F91ED
:1006D000FF90EF90DF90CF900895089580E090E034
:1006E000089561E085E00E94840A61E086E00C9450
:1006F000840ACF92DF92EF92FF92809100018111E4
:1007000004C08AE391E00E9438090E942B0B609399
:10071000AB027093AC028093AD029093AE028091D5
:10072000AA020E945B0AFC012091A70230E091E03E
:10073000E217F30709F090E09093CB024091AB02EF
:100740005091AC026091AD027091AE02A091BD02D9
:10075000B091BE02C090B302D090B402E090B50256
:10076000F090B602CA0EDB1EE11CF11C4C155D05B3
:100770006E057F0530F1E217F30781F08091CD021D
:10078000882361F01092BF024093B7025093B802E1
:100790006093B9027093BA0281E001C080E0909347
:1007A000CD024093B3025093B4026093B5027093AC
:1007B000B602813031F490910001911102C0809312
:1007C0000001FF90EF90DF90CF900895CF92DF92DD
:1007D000EF92FF920E942B0B6B017C0124E6C20E6C
:1007E000D11CE11CF11C0E942B0B6C157D058E05A4
:1007F0009F0518F40E947903F6CFFF90EF90DF90E9
:10080000CF900895CF92DF92EF92FF920E942B0B30
:100810006B017C012CEAC20E26E2D21EE11CF11C07
:100820000E942B0B6C157D058E059F0518F40E9408
:100830007903F6CFFF90EF90DF90CF9008950E945C
:100840004A141F920F920FB60F9211242F933F93C9
:100850004F935F936F937F938F939F93AF93BF93C8
:10086000EF93FF938AE092E00E940902FF91EF91DB
:10087000BF91AF919F918F917F916F915F914F91B8
:100880003F912F910F900FBE0F901F9018951F92C0
:100890000F920FB60F9211242F938F939F93EF9384
:1008A000FF93E0911A02F0911B028081E0912002F7
:1008B000F091210282FD12C09081809123028F5F0E
:1008C0008F7320912402821751F0E0912302F0E00F
:1008D000E65FFD4F958F8093230201C08081FF91D9
:1008E000EF919F918F912F910F900FBE0F901F90BE
:1008F00018951F920F920FB60F9211242F933F93CA
:100900004F935F936F937F938F939F93AF93BF9317
:10091000EF93FF938091B900887F803609F49CC0E3
:1009200068F5883209F45BC090F4803109F454C052
:1009300038F4882309F4F2C0883009F44DC0F2C0BD
:10094000883109F44CC0803209F45DC0EBC08034BA
:1009500009F468C048F4803309F455C0883309F0BD
:10096000E1C08093C601D4C0803509F44FC08835FA
:1009700009F45DC0883409F0D5C0D2C0883909F4C3
:10098000C3C0A8F4883709F467C038F4883609F47E
:1009900063C0803709F460C0C5C0883809F4B4C0AA
:1009A000803909F45FC0803809F0BCC05BC0803B6F
:1009B00009F484C038F4803A09F466C0883A09F42E
:1009C0007DC0B0C0803C09F4A3C0883C09F4A0C03D
:1009D000883B09F486C0A6C08091EC0110C09091BC
:1009E000EB018091EA01981770F5E091EB0181E04D
:1009F0008E0F8093EB01F0E0E653FE4F80818093F1
:100A0000BB0085EC82C08093C6018AC0E091EB01F7
:100A100081E08E0F8093EB018091BB00F0E0E65304
:100A2000FE4F80839091EB018091EA016AC0E091D2
:100A3000EB0181E08E0F8093EB018091BB00F0E031
:100A4000E653FE4F80838091C901811169C081E026
:100A50008093C80184EA5DC083E08093C70110924F
:100A6000C501CFCF8091C501803208F04DC0E09123
:100A7000C50181E08E0F8093C5018091BB00F0E03D
:100A8000EB55FE4F8083BDCF85EC8093BC00109268
:100A9000C7018091C501803230F4E091C501F0E0DA
:100AA000EB55FE4F10826091C50170E085EA91E040
:100AB000E0E0F0E009951092C50134C084E0809335
:100AC000C7011092A4011092A301E0E0F0E00995A3
:100AD0008091A301811105C081E08093A301109250
:100AE0008301E091A40181E08E0F8093A401F0E0E6
:100AF000ED57FE4F80818093BB009091A4018091BF
:100B0000A301981708F47DCF85E88093BC000AC044
:100B100085EC8093BC001092C70104C01092C601FE
:100B20000E94A402FF91EF91BF91AF919F918F918D
:100B30007F916F915F914F913F912F910F900FBED9
:100B40000F901F901895CF93DF93EC019C818E81BD
:100B5000981768F48C856827E881F9810084F1850D
:100B6000E02D42E0CE0109958C818F5F8C83DF916F
:100B7000CF910895FC012781269526952695621729
:100B800020F46583606B0C94000308950F931F930A
:100B9000CF93FC0126816217A0F4C62F8C016483D9
:100BA0009085C90F6C2F6F70CF010E9400036C2FCE
:100BB00062956F706061C801CF911F910F910C9485
:100BC0000003CF911F910F9108952F923F924F9262
:100BD0005F926F927F928F929F92AF92BF92CF92CD
:100BE000DF92EF92FF920F931F93CF93DF93CDB7D6
:100BF000DEB729970FB6F894DEBF0FBECDBFDC017C
:100C00001A962D913C911B972115310509F408C1C5
:100C100099878887F9013296449031967491072F0D
:100C200010E0095F1F4F83E0159507958A95E1F75E
:100C30000A833196A4913196E4916A1750F0462FB9
:100C400050E08E2F90E0FC01EA0FF11D4E175F0778
:100C5000CCF06D3031F460E0888599850E94C6053E
:100C6000DCC06A3009F0DCC060E0888599850E94AC
:100C7000C605E885F98585856581809F600D11240D
:100C8000CF01C9C0A9014A5F5F4F6A1BA885B9851A
:100C90001996FC9119971D96EC91FE9FE02D112459
:100CA000EF83F901A4913196249130E03A2B223060
:100CB000310570F4409EC001419E900D1124689F43
:100CC0007001699FF00C1124E40EF51E312C22C036
:100CD000777021F028E0322E371A01C0312CFA014A
:100CE00020E0A0E0B0E0261731F03491A30FB11D51
:100CF0002F5F3196F8CFFA01E20FF11D44900A9F61
:100D000070010B9FF00C1A9FF00C1124E80EF91ED5
:100D1000E40EF51EA885B9851496BC91BB83E885C1
:100D2000F985F581FC83842D90E09E838D83812C51
:100D3000912CC12CD12CC9829A81C91608F068C0A7
:100D4000212C3601BFEF6B1A7B0AE885F985858572
:100D5000281608F055C0F981F11102C0222079F05F
:100D6000A885B9851596BC901597B3946B81CD0174
:100D70000E94C6056B2D888599850E94BA05A12C15
:100D8000B12CA41410F0B12C2FC0F501E80DF91D01
:100D9000EE0DFF1D5490332061F00615170549F440
:100DA000E52DF0E0032C02C0F595E7950A94E2F7F3
:100DB0005E2EE885F9858585823069F4E52D211060
:100DC000E295EF70F0E0EF57FF4F5490652D888566
:100DD00099850E94A305652D888599850E94A305A4
:100DE000FFEFAF1ABF0ACDCF8F81B81639F060E0A0
:100DF000888599850E94A305B394F6CF2394A5CF47
:100E00009FEFC91AD90AAD81BE818A0E9B1E93CF6E
:100E10006C81888599850E94BA0581E090E002C0C6
:100E200080E090E029960FB6F894DEBF0FBECDBFEC
:100E3000DF91CF911F910F91FF90EF90DF90CF90B6
:100E4000BF90AF909F908F907F906F905F904F90EA
:100E50003F902F900895CF92DF92EF92FF928EE015
:100E60000E940E0BBC01990F880B990B0E94C80FB2
:100E700020E030E040EA5BE30E9427106B017C0138
:100E800020E030E0A9010E943112181624F0F7FA90
:100E9000F094F7F8F09420E030E0A901C701B60122
:100EA0000E941D116093FD017093FE018093FF016C
:100EB000909300028FE00E940E0BBC01990F880BEB
:100EC000990B0E94C80F20E030E048E45DE30E94E7
:100ED000271023E333E347EC51E40E941C116B011C
:100EE0007C0120E030E0A9010E943112181624F0A4
:100EF000F7FAF094F7F8F0942CEB32E248E75DE370
:100F0000C701B6010E941C116093F9017093FA01A8
:100F10008093FB019093FC0184ED92E00E94F6081F
:100F200080910902882319F081E491E002C084E4F1
:100F300091E00E9438098DE591E00E9438096091A6
:100F4000FD017091FE018091FF019091000242E04D
:100F50000E943A0987E491E00E9438096091F90102
:100F60007091FA018091FB019091FC0142E00E9496
:100F70003A098CE491E00E94260920E030E041E645
:100F800055E46091F5017091F6018091F70190911F
:100F9000F8010E94891120E030E040E251E40E9413
:100FA000271042E00E943A098FE491E00E9438093C
:100FB00088E591E00E9438096091EF0184ED92E0AC
:100FC0000E94E50582E591E00E94380920E030E0CA
:100FD00041E655E46091F1017091F2018091F301D5
:100FE0009091F4010E94891120E030E040E251E448
:100FF0000E94271042E00E943A0984E591E00E9495
:1010000038092DE33AE047EB5FE36091F10170911D
:10101000F2018091F3019091F4010E9431121816AF
:101020001CF487E591E002C088E591E00E94380950
:101030006091ED0184ED92E00E94E50582E591E08A
:101040000E9426098CE491E00E9426098AE591E03D
:101050000E94380960910502709106028091070292
:101060009091080242E00E943A0981E691E00E94D4
:1010700038096091010270910202809103029091FF
:10108000040242E0FF90EF90DF90CF900C943A0979
:10109000CF92DF92EF92FF9261E085E00E94840A96
:1010A00061E086E00E94840A0E942B0B6B017C01A8
:1010B00020E8C20E2EEED21E26E3E21EF11C0E9494
:1010C0002B0B6C157D058E059F0518F40E942B07D0
:1010D000F6CFFF90EF90DF90CF900895CF92DF9200
:1010E000EF92FF9261E085E00E94840A61E086E071
:1010F0000E94840A0E942B0B6B017C0120EDC20E22
:1011000027E0D21EE11CF11C0E942B0B6C157D0503
:101110008E059F0518F40E942B07F6CFFF90EF90E5
:10112000DF90CF900895809109028823A9F161E0B2
:1011300085E00E94840A60E086E00E94840A0E94A2
:10114000E6030E942B070E9402040E946E088EE0B4
:101150000E940E0BBC01990F880B990B0E94C80FBF
:1011600020E030E040EA5BE30E94271023E333E312
:1011700043E650E40E94311218161CF41092090242
:1011800008C061E085E00E94840A60E086E00E9479
:10119000840A0E942B07C7CF0895833081F028F47A
:1011A000813099F08230A1F008958730A9F088301D
:1011B000B9F08430D1F4809180008F7D03C080919C
:1011C00080008F7780938000089584B58F7702C068
:1011D00084B58F7D84BD08958091B0008F7703C062
:1011E0008091B0008F7D8093B0000895EF92FF92C0
:1011F0000F931F93CF93DF93EC011F8116951695E4
:1012000016951150FE80FA9400E060E0CE010E9435
:10121000C605602FCE010E94BA05E12C6C85CE0177
:101220000E94A305E394FE14C8F70F5F101768F738
:1012300060E0CE010E94C60560E0CE01DF91CF9153
:101240001F910F91FF90EF900C94BA05009769F0F1
:10125000FC0101900020E9F73197AF01481B590BC1
:10126000BC0184ED92E00C94980180E090E0089538
:101270000C9426092F923F924F925F926F927F9229
:101280008F929F92AF92BF92CF92DF92EF92FF9296
:101290000F931F93CF93DF93CDB7DEB7A4970FB60D
:1012A000F894DEBF0FBECDBF4B015C01F42E9B0155
:1012B000AC010E943612882319F085E791E027C01F
:1012C00024013501E89477F82FEF3FEF4FE75FE710
:1012D000C301B2010E94361281110DC02FEF3FEF02
:1012E0004FE75FE7C301B2010E94C10F18161CF45B
:1012F00089E791E00CC02FEF3FEF4FE75FE4C501B6
:10130000B4010E94311218162CF48DE791E00E946E
:101310002609B8C02FEF3FEF4FE75FECC501B401DE
:101320000E94C10F87FDF1CF20E030E0A901C50187
:10133000B4010E94C10F87FF0BC06DE284ED92E003
:101340000E94E5053C01B7FAB094B7F8B09402C02A
:10135000612C712C10E060E070E080E09FE3F116FA
:1013600041F020E030E040E251E40E9489111F5F2B
:10137000F6CFA50194010E941D114B015C010E9452
:1013800002126AA3C72ED82EE92E19A2262F372FB4
:10139000482F592F8E010F5D1F4F0BA31CA39AE0FE
:1013A000292E312C412C512CCA01B901A2019101E5
:1013B0000E943B12605DF80162938F012115310597
:1013C0004105510589F7CF010E9426098301080FC5
:1013D000191FFF2009F455C06AA17C2D8D2D9E2D6B
:1013E0000E94C60F9B01AC01C501B4010E941C11F3
:1013F0004B015C016EE284ED92E00E94E505080F6E
:10140000191F8AE0282E312C412C512C20E030E08D
:1014100040E251E4C501B4010E9427104B015C0178
:101420000E9402129B0140E050E019A2CBA0DCA078
:10143000762E3AA3642EE52ECA01B901A2019101CC
:101440000E943B12605DF60162936F012115310528
:101450004105510589F7CF010E942609080F191F80
:10146000672D7AA1862D9E2D0E94C60F9B01AC018F
:10147000C501B4010E941C114B015C01FA94F110EA
:10148000C5CFC801A4960FB6F894DEBF0FBECDBF7E
:10149000DF91CF911F910F91FF90EF90DF90CF9050
:1014A000BF90AF909F908F907F906F905F904F9084
:1014B0003F902F900895CF93DF93282F30E0F901CC
:1014C000ED53FD4F8491F901E155FD4FD491F901A0
:1014D000E556FD4FC491CC2391F081110E94CD08B7
:1014E000EC2FF0E0EE0FFF1FEF56FD4FA591B491EA
:1014F000EC91ED2381E090E021F480E002C080E0F7
:1015000090E0DF91CF9108951F93CF93DF93282F21
:1015100030E0F901ED53FD4F8491F901E155FD4FA4
:10152000D491F901E556FD4FC491CC23C1F0162F9B
:1015300081110E94CD08EC2FF0E0EE0FFF1FE9575C
:10154000FD4FA591B4919FB7F894111104C08C91EF
:10155000D095D82302C0EC91DE2BDC939FBFDF91A6
:10156000CF911F910895CF93DF9390E0FC01E15557
:10157000FD4F2491FC01E556FD4F8491882361F1D4
:1015800090E0880F991FFC01E358FD4FC591D4915D
:10159000FC01E957FD4FA591B491611109C09FB7B6
:1015A000F8948881209582238883EC912E230BC0A8
:1015B000623061F49FB7F8948881322F309583238D
:1015C0008883EC912E2B2C939FBF06C08FB7F89485
:1015D000E8812E2B28838FBFDF91CF9108958091D2
:1015E000A702813061F462E08091A8020E94B30AF0
:1015F00062E08091A9020E94B30A62E00BC060E041
:101600008091A8020E94B30A60E08091A9020E9422
:10161000B30A60E08091AA020C94B30A8E3008F0FD
:101620008E502091010190E4299F90011124877030
:10163000822B80937C0080917A00806480937A0072
:1016400080917A0086FDFCCF80917800209179000E
:1016500090E0922B08952FB7F8946091EA02709170
:10166000EB028091EC029091ED022FBF08951F9242
:101670000F920FB60F9211242F933F938F939F9346
:10168000AF93BF938091EA029091EB02A091EC029C
:10169000B091ED023091E90223E0230F2D3720F4C1
:1016A0000196A11DB11D05C026E8230F0296A11DBC
:1016B000B11D2093E9028093EA029093EB02A0937C
:1016C000EC02B093ED028091E5029091E602A091C8
:1016D000E702B091E8020196A11DB11D8093E502D9
:1016E0009093E602A093E702B093E802BF91AF9116
:1016F0009F918F913F912F910F900FBE0F901F9050
:101700001895789484B5826084BD84B5816084BD69
:1017100085B5826085BD85B5816085BD80916E008F
:10172000816080936E0010928100809181008260C0
:1017300080938100809181008160809381008091FD
:1017400080008160809380008091B10084608093EC
:10175000B1008091B00081608093B00080917A00E8
:10176000846080937A0080917A00826080937A000E
:1017700080917A00816080937A0080917A008068FD
:1017800080937A001092C100E0911A02F0911B023E
:1017900082E08083E0911602F09117021082E091BE
:1017A0001802F09119028FEC808310922202E091CE
:1017B0001E02F0911F0286E08083E0911C02F091EE
:1017C0001D02808180618083E0911C02F0911D02E6
:1017D000808188608083E0911C02F0911D028081ED
:1017E00080688083E0911C02F0911D0280818F7DD2
:1017F000808381E0809301018093A7020E94EF0A19
:1018000085E090E09093BC028093BB028AEF90E069
:101810009093C7028093C6020E942B0B6093AB0289
:101820007093AC028093AD029093AE022091BB0204
:101830003091BC02C090AF02D090B002E090B102F3
:10184000F090B202C20ED31EE11CF11C6C157D0596
:101850008E059F0508F45BC08091A8020E945B0A78
:101860002091A70230E041E02817390709F040E055
:101870004093C9028091A9020E945B0A2091A702AD
:1018800030E041E08217930709F040E04093CA023C
:10189000E091C9024091AB025091AC026091AD025F
:1018A0007091AE02E11129C0F091CC02FF2329F121
:1018B0008217930711F421E001C022E0C091C60213
:1018C000D091C7028091C2029091C302A091C4023C
:1018D000B091C5028C0F9D1FA11DB11D481759075E
:1018E0006A077B0710F02093C8024093C20250930E
:1018F000C3026093C4027093C502E093CC0240938C
:10190000AF025093B0026093B1027093B2020E9492
:101910002B0B6093AB027093AC028093AD0290935B
:10192000AE028091AA020E945B0AFC012091A702EC
:1019300030E091E0E217F30709F090E09093CB02DA
:101940004091AB025091AC026091AD027091AE0239
:10195000A091BD02B091BE02C090B302D090B4027B
:10196000E090B502F090B602CA0EDB1EE11CF11C3D
:101970004C155D056E057F0520F18091CD02E217C3
:10198000F30779F0882309F4D0C181E08093C10284
:101990004093B7025093B8026093B9027093BA02B1
:1019A00006C0811104C08091C1028111D7C19093FA
:1019B000CD024093B3025093B4026093B50270938A
:1019C000B60261E085E00E94B30A61E086E00E9411
:1019D000B30A61E087E00E94B30A61E080E00E9400
:1019E000B30A61E085E00E94840A61E086E00E941B
:1019F000840A89E691E00E9438091092E4028CE39F
:101A00008093E3021092B9008CE08093B8001092AA
:101A1000D8021092D902E7E7F2E085919491E82E7E
:101A2000E9E7F2E0F490EAE7F2E0E491E093DA0229
:101A3000EBE7F2E0E491E093DB02ECE7F2E0E49123
:101A4000E093DC02C82FD92F8C2F8E198F1540F40C
:101A5000FE01649184ED92E00E9400032196F4CF90
:101A600084ED92E00E94F608E1E9F0E0F093DF02F5
:101A7000E093DE028491E2E9F0E0E491F0E0F82BFB
:101A8000319709F06EC11092DD020E94020480912C
:101A90000001811103C00E947903F9CF81E0809396
:101AA00009020E9493081092090280910902811193
:101AB000C9C060E085E00E94840A61E086E00E947F
:101AC000840A0E942B07C090F901D090FA01E0909F
:101AD000FB01F090FC012091FD013091FE0140914D
:101AE000FF0150910002C701B6010E9427109B011F
:101AF000AC016091F5017091F6018091F701909130
:101B0000F8010E941D116093F5017093F601809316
:101B1000F7019093F801A70196016091F10170918E
:101B2000F2018091F3019091F4010E941D116093E4
:101B3000F1017093F2018093F3019093F4010E94FC
:101B40006E088EE00E940E0BBC01990F880B990B5A
:101B50000E94C80F20E030E040EA5BE30E942710BB
:101B600020E030E040E050E40E94C10F87FF1FC03A
:101B700081E08093090261E085E00E94840A61E0CF
:101B800086E00E94840A0E942B0B6B017C01F0E12D
:101B9000CF0EF7E2DF1EE11CF11C0E942B0B6C152F
:101BA0007D058E059F0518F40E942B07F6CF60E097
:101BB00085E00E94840A61E086E00E94840A0E9417
:101BC000E6030E942B0720E030E041E655E46091F7
:101BD000F5017091F6018091F7019091F8010E9452
:101BE000891120E030E040E251E40E9427106B01AF
:101BF0007C012CEE31E548EE50E40E94891120E092
:101C000030E048EC52E40E9427100E94FB117093D0
:101C1000F0016093EF012DEC3CEC4CE050E4C70187
:101C2000B6010E94891120E030E048EC52E40E94A5
:101C300027100E94FB117093EE016093ED010E944A
:101C4000020433CF0E9471030E9493080E94710323
:101C500081E080930902C12CD12C86ECE82E82E42D
:101C6000F82EC0920502D0920602E0920702F0928E
:101C700008020E9448080E9448088EE00E940E0B4D
:101C8000BC01990F880B990B0E94C80F23E931E022
:101C900040EA5BE30E9427106093050270930602FE
:101CA0008093070290930802C0920102D092020230
:101CB000E0920302F092040261E085E00E94840A4F
:101CC00061E086E00E94840A0E942B0B6B017C017C
:101CD00024EAD21A29EDE20A2AEFF20A0E942B0B1B
:101CE0006C157D058E059F0518F40E942B07F6CF15
:101CF0008EE00E940E0BBC01990F880B990B0E947D
:101D0000C80F23E931E040EA5BE30E9427106093AB
:101D1000010270930202809303029093040281E017
:101D2000809309020E942B07FFCF8091C102882374
:101D300009F43DCEC090B702D090B802E090B9024D
:101D4000F090BA0228EEC20E23E0D21EE11CF11C74
:101D5000C416D506E606F70608F029CE1092C10291
:101D600026CE81E08093DD0290CE8091CE029091CC
:101D7000CF020C94FB1210920D0210920C0288EE0E
:101D800093E0A0E0B0E080930E0290930F02A09346
:101D90001002B09311022CE031E030930B0220933B
:101DA0000A0225EC30E0309317022093160224EC4F
:101DB00030E0309319022093180220EC30E0309389
:101DC0001B0220931A0221EC30E030931D02209375
:101DD0001C0222EC30E030931F0220931E0226ECFE
:101DE00030E03093210220932002109223021092BF
:101DF000240210922502109226021092F1021092F3
:101E0000F0028093F2029093F302A093F402B09355
:101E1000F5028EE191E09093EF028093EE02109232
:101E2000D7021092D6021092DF021092DE021092B8
:101E3000E00281E08093E10280E391E09093D5029B
:101E40008093D4021092CF021092CE021092D1024F
:101E50001092D0021092D3021092D20264E070E08D
:101E600080E090E00E9484130097A1F09093CF024D
:101E70008093CE0223E030E03093D1022093D00251
:101E80002091D2023091D302232B09F06BC0FC01C8
:101E9000108268C08091CE029091CF02009711F01D
:101EA0000E94FB121092CF021092CE021092D30227
:101EB0001092D2021092D1021092D00281E080934F
:101EC000A70282E090E09093BC028093BB0288EC72
:101ED00090E09093BE028093BD021092BF021092D8
:101EE000C0021092C10284E690E09093C7028093F2
:101EF000C6021092C8021092C9021092CA02109231
:101F0000CB021092CC021092CD0282E08093A80204
:101F100083E08093A90284E08093AA020E942B0BA5
:101F20006093AB027093AC028093AD029093AE02CB
:101F30006093AF027093B0028093B1029093B202AB
:101F40006093B3027093B4028093B5029093B6028B
:101F50006093C2027093C3028093C4029093C5023F
:101F60000C94EF0A83E090E09093D3028093D20226
:101F700061E771E08091CE029091CF020E945814E7
:101F80009DCF0E94031008F481E00895E89409C0F1
:101F900097FB3EF490958095709561957F4F8F4F9C
:101FA0009F4F9923A9F0F92F96E9BB279395F695B2
:101FB000879577956795B795F111F8CFFAF4BB0F30
:101FC00011F460FF1BC06F5F7F4F8F4F9F4F16C094
:101FD000882311F096E911C0772321F09EE8872F1E
:101FE000762F05C0662371F096E8862F70E060E0DA
:101FF0002AF09A95660F771F881FDAF7880F969553
:10200000879597F90895990F0008550FAA0BE0E8F6
:10201000FEEF16161706E807F907C0F012161306AA
:10202000E407F50798F0621B730B840B950B39F4EA
:102030000A2661F0232B242B252B21F408950A2650
:1020400009F4A140A6958FEF811D811D08950E947E
:102050003A100C94AB100E949D1038F00E94A4100E
:1020600020F0952311F00C9494100C949A101124E4
:102070000C94DF100E94BC1070F3959FC1F3950F74
:1020800050E0551F629FF001729FBB27F00DB11DFC
:10209000639FAA27F00DB11DAA1F649F6627B00D8C
:1020A000A11D661F829F2227B00DA11D621F739F75
:1020B000B00DA11D621F839FA00D611D221F749F83
:1020C0003327A00D611D231F849F600D211D822FCA
:1020D000762F6A2F11249F5750409AF0F1F08823F1
:1020E0004AF0EE0FFF1FBB1F661F771F881F91501E
:1020F0005040A9F79E3F510580F00C9494100C9429
:10210000DF105F3FE4F3983ED4F3869577956795AB
:10211000B795F795E7959F5FC1F7FE2B880F911D47
:102120009695879597F9089597F99F6780E870E0ED
:1021300060E008959FEF80EC089500240A9416163D
:10214000170618060906089500240A9412161306A5
:10215000140605060895092E0394000C11F4882333
:1021600052F0BB0F40F4BF2B11F460FF04C06F5F4F
:102170007F4F8F4F9F4F089557FD9058440F551F25
:1021800059F05F3F71F04795880F97FB991F61F0F9
:102190009F3F79F087950895121613061406551F70
:1021A000F2CF4695F1DF08C0161617061806991FDC
:1021B000F1CF86957105610508940895E894BB27D1
:1021C00066277727CB0197F908952F923F924F9278
:1021D0005F926F927F928F929F92AF92BF92CF92B7
:1021E000DF92EF92FF920F931F93CF93DF93CDB7C0
:1021F000DEB7CA1BDB0B0FB6F894DEBF0FBECDBF38
:1022000009942A88398848885F846E847D848C8408
:102210009B84AA84B984C884DF80EE80FD800C8111
:102220001B81AA81B981CE0FD11D0FB6F894DEBFF4
:102230000FBECDBFED0108955058BB27AA270E94BD
:1022400034110C94AB100E949D1038F00E94A41021
:1022500020F039F49F3F19F426F40C949A100EF4F0
:10226000E095E7FB0C949410E92F0E94BC1058F302
:10227000BA17620773078407950720F079F4A6F56B
:102280000C94DE100EF4E0950B2EBA2FA02D0B014E
:10229000B90190010C01CA01A0011124FF27591BAB
:1022A00099F0593F50F4503E68F11A16F040A22FB1
:1022B000232F342F4427585FF3CF46953795279522
:1022C000A795F0405395C9F77EF41F16BA0B620B21
:1022D000730B840BBAF09150A1F0FF0FBB1F661F68
:1022E000771F881FC2F70EC0BA0F621F731F841FAB
:1022F00048F4879577956795B795F7959E3F08F0D1
:10230000B0CF9395880F08F09927EE0F9795879592
:1023100008950E949D110C94AB100E94A41058F0D7
:102320000E949D1040F029F45F3F29F00C94941016
:1023300051110C94DF100C949A100E94BC1068F399
:102340009923B1F3552391F3951B550BBB27AA276E
:1023500062177307840738F09F5F5F4F220F331FA8
:10236000441FAA1FA9F335D00E2E3AF0E0E832D070
:1023700091505040E695001CCAF72BD0FE2F29D073
:10238000660F771F881FBB1F261737074807AB0745
:10239000B0E809F0BB0B802DBF01FF2793585F4FBA
:1023A0003AF09E3F510578F00C9494100C94DF1095
:1023B0005F3FE4F3983ED4F3869577956795B7959C
:1023C000F7959F5FC9F7880F911D9695879597F9A7
:1023D0000895E1E0660F771F881FBB1F6217730720
:1023E0008407BA0720F0621B730B840BBA0BEE1F35
:1023F00088F7E09508950E9402126894B1110C9438
:10240000DF1008950E94C41088F09F5798F0B92FEC
:102410009927B751B0F0E1F0660F771F881F991F19
:102420001AF0BA95C9F714C0B13091F00E94DE10CD
:10243000B1E008950C94DE10672F782F8827B85FDD
:1024400039F0B93FCCF3869577956795B395D9F771
:102450003EF490958095709561957F4F8F4F9F4F7B
:1024600008950E94031008F48FEF08950E9403104E
:10247000880B990B0895A1E21A2EAA1BBB1BFD0124
:102480000DC0AA1FBB1FEE1FFF1FA217B307E40753
:10249000F50720F0A21BB30BE40BF50B661F771FAB
:1024A000881F991F1A9469F760957095809590958B
:1024B0009B01AC01BD01CF010895EE0FFF1F0590F8
:1024C000F491E02D09940F931F93CF93DF93823003
:1024D000910510F482E090E0E091FC02F091FD02A1
:1024E00020E030E0A0E0B0E0309719F14081518168
:1024F0000281138148175907C8F08417950769F4BA
:10250000109731F012960C93129713961C9327C0D4
:102510000093FC021093FD0222C02115310519F031
:102520004217530718F49A01BD01EF01DF01F801CA
:10253000DBCF21153105F9F0281B390B243031058B
:1025400080F48A819B816115710521F0FB019383E1
:10255000828304C09093FD028093FC02FE013296B8
:1025600044C0FE01E20FF31F819391932250310981
:10257000398328833AC02091FA023091FB02232B41
:1025800041F420910401309105013093FB02209326
:10259000FA0220910201309103012115310541F425
:1025A0002DB73EB74091060150910701241B350B12
:1025B000E091FA02F091FB02E217F307A0F42E1B60
:1025C0003F0B2817390778F0AC014E5F5F4F241797
:1025D000350748F04E0F5F1F5093FB024093FA02FD
:1025E0008193919302C0E0E0F0E0CF01DF91CF91C1
:1025F0001F910F910895CF93DF93009709F481C045
:10260000FC01329713821282A091FC02B091FD026C
:10261000109781F420813181820F931F2091FA025B
:102620003091FB022817390751F5F093FB02E09334
:10263000FA0267C0ED0120E030E0CE17DF0740F47A
:102640004A815B819E0141155105F1F0EA01F5CF08
:10265000D383C28340815181840F951FC817D90746
:1026600059F488819981840F951F02969183808304
:102670008A819B81938382832115310529F4F0930C
:10268000FD02E093FC023DC0E901FB83EA8349912E
:102690005991C40FD51FEC17FD0761F4808191811A
:1026A000840F951F0296E901998388838281938123
:1026B0009B838A83E0E0F0E012968D919C911397C2
:1026C000009719F0FD01DC01F7CF8D919C911197D6
:1026D0009D012E5F3F4F820F931F2091FA02309190
:1026E000FB022817390769F4309729F41092FD028C
:1026F0001092FC0202C013821282B093FB02A093DC
:10270000FA02DF91CF910895A0E0B0E0EAE8F3E1AA
:102710000C94E910EC01009721F4CB010E946312A4
:10272000B4C0FC01E60FF71F9C0122503109E217EB
:10273000F30708F4A8C0D9010D911C911197061751
:102740001707B0F00530110508F49BC0C8010497C5
:102750008617970708F495C002501109061B170B3E
:10276000019311936D937C93CF010E94FB1289C05A
:102770005B01A01AB10A4C01800E911EA091FC02CF
:10278000B091FD02612C712CE12CF12C109709F411
:1027900046C08D919C911197A815B905B1F56C01B2
:1027A00042E0C40ED11CCA14DB0478F14C018A1833
:1027B0009B08640142E0C40ED11C1296BC90129793
:1027C0001396AC91B5E0CB16D10440F0B282A3834E
:1027D00091828082D9016D937C9309C00E5F1F4F57
:1027E000800F911FF90191838083EB2DFA2FE11463
:1027F000F10431F0D7011396FC93EE93129741C088
:10280000F093FD02E093FC023CC06816790608F4E0
:102810003C017D0112960D90BC91A02DB7CF809107
:10282000FA029091FB0288169906E1F46616770683
:10283000C8F48091020190910301009741F48DB793
:102840009EB74091060150910701841B950BE81734
:10285000F907C8F4F093FB02E093FA02F9017183DF
:1028600060830FC0CB010E9463127C01009759F076
:10287000A801BE010E944F14CE010E94FB12C701A5
:1028800004C0CE0102C080E090E0CDB7DEB7EEE03C
:102890000C94051181E090E0F8940C945F14FB0116
:1028A000DC0102C001900D9241505040D8F70895CC
:1028B000FB01DC0101900D920020E1F7089511E089
:1028C000CDE6D1E004C0FE010E945D122196CE3615
:0828D000D107C9F7F894FFCF0E
:1028D80001010000FE028000000000002B029801A8
:1028E800C2017802F301D101E50100000000EF0206
:1028F800E4026E03D602DD02DA02D702000000000D
:10290800E50598016E036D031403506175736564E2
:102918000043200044200020433A20000D0A0057BD
:1029280068002500416800212000456E64563A2061
:102938000020323468563A2000626F6F74696E67FF
:1029480000585858006E616E00696E66006F7666B2
:0229580000007D
:00000001FF
