:100000000C946E010C9496010C9496010C9496013C
:100010000C9496010C9496010C9496010C94960104
:100020000C9496010C9496010C9496010C949601F4
:100030000C9496010C9496010C9496010C949601E4
:100040000C9458120C9496010C9426120C940012E5
:100050000C9496010C9496010C9496010C949601C4
:100060000C94A2120C949601AED580A81FD3004028
:100070008D142002A1C8DA02817FD9F1DB40A4A649
:10008000AF00030C0F30333C3FC0C3CCCFF0F3FCC8
:10009000FF00000000240027002A000000000025C7
:1000A0000028002B00000000002300260029000487
:1000B000040404040404040202020202020303030F
:1000C0000303030102040810204080010204081009
:1000D00020010204081020000000080002010000B6
:1000E00003040700000000000000000000050720D6
:1000F00060000000000000005F0000000700070033
:10010000147F147F14242A7F2A1223130864623672
:10011000495620500008070300001C2241000041FE
:10012000221C002A1C7F1C2A08083E080800807038
:10013000300008080808080000606000201008046B
:10014000023E5149453E00427F40007249494946BE
:100150002141494D331814127F1027454545393C3C
:100160004A49493141211109073649494936464929
:1001700049291E000014000000403400000008144B
:1001800022411414141414004122140802015909C4
:10019000063E415D594E7C1211127C7F4949493619
:1001A0003E414141227F4141413E7F494949417F92
:1001B000090909013E414151737F0808087F004148
:1001C0007F41002040413F017F081422417F404091
:1001D00040407F021C027F7F0408107F3E41414166
:1001E0003E7F090909063E4151215E7F09192946D2
:1001F000264949493203017F01033F4040403F1FE8
:100200002040201F3F4038403F631408146303041C
:100210007804036159494D43007F4141410204087C
:100220001020004141417F0402010204404040404F
:1002300040000307080020545478407F2844443885
:100240003844444428384444287F385454541800CF
:10025000087E090218A4A49C787F0804047800444E
:100260007D40002040403D007F1028440000417F39
:1002700040007C047804787C0804047838444444C2
:1002800038FC1824241818242418FC7C08040408BA
:10029000485454542404043F44243C4040207C1CD3
:1002A0002040201C3C4030403C44281028444C90C6
:1002B00090907C4464544C44000836410000007720
:1002C0000000004136080002010204023C262326F9
:1002D0003C68001980200000F913161811241FBE75
:1002E000CFEFD8E0DEBFCDBF11E0A0E0B1E0EAE99A
:1002F000F9E302C005900D92A03AB107D9F725E0C5
:10030000A0EAB1E001C01D92A536B207E1F711E005
:10031000CDE6D1E004C02197FE010E94C31ACC367D
:10032000D107C9F70E94A0140C94C01C0C940000C3
:10033000AF92BF92CF92DF92EF92FF920F931F93F3
:10034000CF93DF936C017B018B01040F151FEB0131
:100350005E01AE18BF08C017D10759F06991D601E8
:10036000ED91FC910190F081E02DC6010995892B5A
:1003700079F7C501DF91CF911F910F91FF90EF9019
:10038000DF90CF90BF90AF900895FC01538D448DC6
:10039000252F30E0842F90E0821B930B541710F030
:1003A000CF96089501970895FC01918D828D98173D
:1003B00061F0A28DAE0FBF2FB11D5D968C91928D15
:1003C0009F5F9F73928F90E008958FEF9FEF089546
:1003D000FC01918D828D981731F0828DE80FF11D0F
:1003E000858D90E008958FEF9FEF0895FC01918D2A
:1003F000228D892F90E0805C9F4F821B91098F7323
:10040000992708958FE294E00E94F60121E0892B5C
:1004100009F420E0822F089580E090E0892B29F0F4
:100420000E94020281110C9400000895FC01A48D29
:10043000A80FB92FB11DA35ABF4F2C91848D90E006
:1004400001968F739927848FA689B7892C93A089E9
:10045000B1898C91837080648C93938D848D981373
:1004600006C00288F389E02D80818F7D8083089506
:10047000EF92FF920F931F93CF93DF93EC0181E0F4
:10048000888F9B8D8C8D98131AC0E889F98980819B
:1004900085FF15C09FB7F894EE89FF896083E889CE
:1004A000F98980818370806480839FBF81E090E0C0
:1004B000DF91CF911F910F91FF90EF900895F62E4D
:1004C0000B8D10E00F5F1F4F0F731127E02E8C8DE7
:1004D0008E110CC00FB607FCFACFE889F98980812C
:1004E00085FFF5CFCE010E941602F1CFEB8DEC0F08
:1004F000FD2FF11DE35AFF4FF0829FB7F8940B8F49
:10050000EA89FB8980818062CFCFCF93DF93EC01B2
:10051000888D8823B9F0AA89BB89E889F9898C91EB
:1005200085FD03C0808186FD0DC00FB607FCF7CFA7
:100530008C9185FFF2CF808185FFEDCFCE010E94A7
:100540001602E9CFDF91CF910895833081F028F42E
:10055000813099F08230A9F008958730A9F0883071
:10056000C9F08430B1F4809180008F7D03C0809108
:1005700080008F7780938000089584B58F7784BD45
:10058000089584B58F7DFBCF8091B0008F778093E5
:10059000B00008958091B0008F7DF9CFCF93DF93A5
:1005A000282F30E0F901E952FF4F8491F901ED5312
:1005B000FF4FD491F901E155FF4FC491CC23A1F035
:1005C00081110E94A502EC2FF0E0EE0FFF1FEB550A
:1005D000FF4FA591B491EC91ED2381E090E009F4F7
:1005E00080E0DF91CF91089580E090E0FACF1F93F3
:1005F000CF93DF93282F30E0F901E952FF4F849128
:10060000F901ED53FF4FD491F901E155FF4FC4912A
:10061000CC23A9F0162F81110E94A502EC2FF0E047
:10062000EE0FFF1FE556FF4FA591B4918FB7F894D9
:10063000EC91111108C0D095DE23DC938FBFDF91C0
:10064000CF911F910895DE2BF8CFCF93DF9390E0E9
:10065000FC01ED53FF4F249181559F4FFC01849184
:100660008823C9F090E0880F991FFC01EF56FF4FD7
:10067000A591B491FC01E556FF4FC591D49161114C
:100680000DC09FB7F8948C91209582238C9388811C
:10069000282328839FBFDF91CF910895623051F4C2
:1006A0009FB7F8943C91822F809583238C93E881A7
:1006B0002E2BEFCF8FB7F894EC912E2B2C938FBF6E
:1006C000EACF80911E0590911D05913069F462E09A
:1006D0000E94250362E080911F050E94250362E0CD
:1006E000809120050C94250360E00E94250360E0C2
:1006F00080911F050E94250360E0F2CF1F93CF93E6
:10070000DF93182FEB0161E00E942503209739F455
:1007100060E0812FDF91CF911F910C94F702CF3FC2
:10072000D10511F461E0F5CFE12FF0E0E952FF4F80
:10073000E491E33031F140F4E130B1F0E230E1F046
:10074000C038D1057CF7E4CFE73029F1E83059F122
:10075000E430B1F780918000806280938000D09374
:100760008B00C0938A0004C084B5806884BDC7BD77
:10077000DF91CF911F91089584B5806284BDC8BD7B
:10078000F7CF80918000806880938000D0938900AB
:10079000C0938800EDCF8091B00080688093B00056
:1007A000C093B300E5CF8091B00080628093B00029
:1007B000C093B400DDCF8E3008F08E50209104013C
:1007C00090E4299F900111248770822B80937C00F4
:1007D00080917A00806480937A0080917A0086FD0F
:1007E000FCCF809178009091790008954F925F92AC
:1007F0006F927F92BF92CF92DF92EF92FF920F9310
:100800001F93CF93DF93B82E809117059091180511
:100810002091190530911A05821B930B18161906A1
:100820000CF05FC08230910509F463C023E030E032
:10083000C8E0D0E000E410E083309105E9F0C0E1C9
:10084000D0E000E011E084309105E9F09C018930AE
:10085000910514F028E030E0C0E2D0E000E014E0C0
:10086000059789F0C2E0D0E004E010E026303105C1
:1008700051F12730310561F12830310521F4C0E014
:10088000D1E010E000E0D12CC12C412C512C3201E0
:10089000E0901B05F0901C05CE14DF047CF5F12CD4
:1008A000E12C0E151F05C9F08B2D0E94DB03092ECC
:1008B000000CAA0BBB0B480E591E6A1E7B1E8FEF45
:1008C000E81AF80AEECFC0E4D0E000E010E1DBCF98
:1008D000C0E8D0E000E010E4D6CF8FEFC81AD80A05
:1008E000D7CF81E090E0C2E0D0E004E010E09C01CE
:1008F000BDCFC4E0D0E000E110E0F9CF9E01DD0FF4
:10090000440B550BC301B2010E948219CA01B901FF
:100910009701FF0C440B550B0E948219C901DF910E
:10092000CF911F910F91FF90EF90DF90CF90BF90EC
:100930007F906F905F904F9008952FB7F8946091DB
:1009400016047091170480911804909119042FBF18
:10095000089520910B02211109C021E020930B0280
:100960003091CC042091CD043CBD2DBD60E0FC0154
:1009700084810C94F70261E0FC0184810E94F702FB
:1009800080910B02811110920B0208958EBD000020
:100990000DB407FEFDCF8EB508958FEF0C94C604FD
:1009A0000F931F93CF93DF93EC010E949D048B0163
:1009B0000E94CD048F3F69F00E949D04601B710B63
:1009C0006C177D07A8F380E0DF91CF911F910F9105
:1009D000089581E0F9CFCF92DF92EF92FF920F93CB
:1009E0001F93CF93DF93EC01162F69017A018E815B
:1009F000882389F08F8198859C012F5F3F4F38872E
:100A00002F838230924018F40E94CD04F3CFCE01A0
:100A10000E94BB041E82CE010E94A9048CE291E0D8
:100A20000E94D004812F80640E94C60408E110E077
:100A3000D701C601002E04C0B695A7959795879556
:100A40000A94D2F70E94C60408501109083F8FEF9C
:100A5000180771F78FEF0E94C60410E00E94CD04C2
:100A60008A8787FF04C01F3F11F01F5FF7CFDF9118
:100A7000CF911F910F91FF90EF90DF90CF9008954D
:100A8000CF92DF92EF92FF920F93CF93DF93EC011F
:100A9000690182E1411551056105710599F08B8568
:100AA000833039F089E0440F551F661F771F8A9500
:100AB000D1F79A01AB0168E1CE010E94EB048823D3
:100AC00019F084E08D832DC08EEF0E94C60476015C
:100AD0008EEFD81AF70181917F010E94C604EC14B1
:100AE000FD04C1F78FEF0E94C6048FEF0E94C60479
:100AF0000E94CD048A878F71853071F4011116C070
:100B0000CE010E94BB0481E0DF91CF910F91FF9055
:100B1000EF90DF90CF90089581E18D83CE010E9408
:100B2000BB04CE010E94BB0480E0EECF88E592E0DA
:100B30000E94D004811102C085E1C4CF20E030E0E2
:100B4000A9016DE0CE010E94EB04882311F084E13D
:100B5000B9CF0E94CD048111FACFD2CF0F9340912B
:100B60000D0250910E0260910F027091100241151A
:100B700051056105710589F0082F21E132E090E00F
:100B800080E00E944005882349F010920D021092E7
:100B90000E0210920F021092100281E00F91089540
:100BA0000F93CF93C82F80910C02811105C0C1E033
:100BB0008C2FCF910F910895409100015091010128
:100BC00060910201709103010C2F21E132E090E06D
:100BD00080E00E944005811102C0C0E0E9CFCC2333
:100BE00031F381E00E94AE058823B9F310920C0224
:100BF000DFCFAF92BF92CF92DF92EF92FF921F931F
:100C0000CF93DF936B017C01142F809100019091B1
:100C10000101A0910201B09103018C159D05AE0563
:100C2000BF0509F4ADC081E00E94D0058823E1F141
:100C3000809106008823A1F080910000909101002E
:100C4000A0910200B0910300C816D906EA06FB067F
:100C500039F48091070090910800892B09F44FC066
:100C6000C0920000D0920100E0920200F0920300D6
:100C700080910B00A7019601833039F099E0220F93
:100C8000331F441F551F9A95D1F761E190E080E032
:100C90000E94EB04882391F083E08093050090E0AC
:100CA00080E00E94BB0480E0DF91CF911F91FF9014
:100CB000EF90DF90CF90BF90AF9008950E949D0479
:100CC000EB010E94CD0480930A008F3F79F40E94CB
:100CD0009D046C1B7D0B6D32714098F38FE0809307
:100CE000050090E080E00E94BB04D9CF8E3FC1F5A3
:100CF000109208001092070081E080930600C1E185
:100D0000D2E081E1A82E84E0B82E0E94CD04899320
:100D1000AC16BD06D1F780910700909108009E5F48
:100D2000909308008093070020910900222319F076
:100D300081159240E8F0809106008823C9F08091E7
:100D40000700909108009C012F5F3F4F30930800EF
:100D5000209307008230924028F40E94CD04EFCF08
:100D60008DE0BDCF90E080E00E94BB0410920600B1
:100D7000C0920001D0920101E0920201F0920301C1
:100D800040910C02412B40930C0281E08DCF4F9299
:100D90005F926F927F928F929F92AF92BF92CF920B
:100DA000DF92EF92FF920F931F93CF93DF93EC01AB
:100DB000423051056105710590F480E0DF91CF91DB
:100DC0001F910F91FF90EF90DF90CF90BF90AF9069
:100DD0009F908F907F906F905F904F90089589853E
:100DE0009A85AB85BC850196A11DB11D8417950719
:100DF000A607B70710F3CB88DC88ED88FE888F89BB
:100E0000803109F042C0BB27A72F962F852F4801BC
:100E100059012A013B01C80ED91EEA1EFB1E809112
:100E2000000190910101A0910201B0910301C81647
:100E3000D906EA06FB0699F58F898031C1F5B30121
:100E4000A201552766277727440F551F4F5E5D4F38
:100E5000FA019182808280910C02816080930C0261
:100E60008A89823080F08D819E81AF81B8858C0D1A
:100E70009D1DAE1DBF1D80930D0290930E02A09389
:100E80000F02B093100281E099CFDB01CA01E7E0C5
:100E9000B695A79597958795EA95D1F7B8CF40E095
:100EA000C701B6010E94F9058111C6CF86CFB301F3
:100EB000A2014F77552766277727440F551F440F08
:100EC000551F4F5E5D4FFA0180829182A282B382EC
:100ED000C2CF8F929F92AF92BF92CF92DF92EF924A
:100EE000FF920F931F93CF93DF93FC01818592852F
:100EF000A385B4850196A11DB11D84179507A6078A
:100F0000B70770F480E0DF91CF911F910F91FF90B0
:100F1000EF90DF90CF90BF90AF909F908F9008950B
:100F200083889488A588B6888789803189F5BB270E
:100F3000A72F962F852FE9016A017B018F01BC0144
:100F4000CD01680D791D8A1D9B1D80900001909038
:100F50000101A0900201B090030186169706A80631
:100F6000B90601F5F8018789803111F5DD24EE24F9
:100F7000FF24F601EE0FFF1FEF5EFD4F8081918190
:100F8000B0E0A0E088839983AA83BB8381E0BBCFD4
:100F9000DB01CA01C7E0B695A79597958795CA95D5
:100FA000D1F7C9CF40E00E94F9058111DBCFAACF6C
:100FB000E894C7F8DD24EE24FF24F601EE0FFF1FAE
:100FC000EE0FFF1FEF5EFD4F80819181A281B38103
:100FD000BF70D8CF8F929F92AF92BF92CF92DF9285
:100FE000EF92FF920F931F93CF93DF93EC018D81CC
:100FF00081110EC080E0DF91CF911F910F91FF9082
:10100000EF90DF90CF90BF90AF909F908F9008951A
:101010000B891C892D893E89041715072607370778
:1010200048F34A015B01823031F48A869B86AC86A4
:10103000BD8681E0E0CF81149104A104B10449F49C
:101040001E821F82188619861A861B861C861D869C
:10105000F0CF0A851B852C853D85EB8DFC8D858524
:1010600090E00996B901A80141505109610971093F
:10107000082E04C076956795579547950A94D2F740
:1010800075016401E1E0CE1AD108E108F10804C05D
:10109000F694E794D794C7948A95D2F7C416D506E8
:1010A000E606F70620F0012B022B032B11F58F89A2
:1010B000988DA98DBA8D8E839F83A887B9878E015D
:1010C0000A5F1F4FC114D104E104F10409F4ADCF4C
:1010D0004E815F816885798598018B8D9C8D0E94FA
:1010E000690791E0C91AD108E108F1088111EACF36
:1010F00081CFC41AD50AE60AF70AE1CF3F924F9290
:101100005F926F927F928F929F92AF92BF92CF9297
:10111000DF92EF92FF920F931F93CF93DF93CDB7A0
:10112000DEB72C970FB6F894DEBF0FBECDBF5C01C3
:10113000DC015B968D909C905C9716964D905D902F
:101140006D907C901997411451046104710409F465
:1011500068C0BFEF4B1A5B0A6B0A7B0A312CF401A3
:1011600081859285A385B4859C01AD012F5F3F4F9A
:101170004F4F5F4F29873A874B875C877301620126
:101180001D821E821F821886F40181859285A385A7
:10119000B4852D813E814F815885281739074A072C
:1011A0005B0708F056C089859A85AB85BC858C1590
:1011B0009D05AE05BF0550F482E0C82ED12CE12C70
:1011C000F12C92E0492E512C612C712C9E012F5F45
:1011D0003F4FB701A601C4010E9469078823C9F1E6
:1011E00089819A81AB81BC81892B8A2B8B2B09F158
:1011F000260137019FEF491A590A690A790A2D8198
:101200003E814F8158852F5F3F4F4F4F5F4F2D835A
:101210003E834F8358873FEFC31AD30AE30AF30A8A
:10122000B3CFF401408051806280738033243394C3
:1012300096CFC414D504E604F70409F70FEF1FEFA7
:101240002FEF3FE0B701A601C4010E94C70681113C
:1012500019C080E02C960FB6F894DEBF0FBECDBF4C
:10126000DF91CF911F910F91FF90EF90DF90CF9082
:10127000BF90AF909F908F907F906F905F904F90B6
:101280003F900895D50116964D915D916D917C9199
:101290001997411551056105710539F097018601CE
:1012A000C4010E94C7068823A1F2D5011696CD92EB
:1012B000DD92ED92FC921997332051F0D701C601CF
:1012C0000196A11DB11DF40180839183A283B38394
:1012D000F5018789908DA18DB28D892B8A2B8B2B5F
:1012E00039F48481C78AD08EE18EF28E806884833F
:1012F000F50184818062848381E0ACCF1F93CF931A
:10130000DF93EC01162F8C8187FF2AC06E857F85C5
:101310008889998941E00E94F905882361F1EA8969
:1013200080E2E89FF0011124EF5EFD4F309719F144
:101330008D81823040F48B899C89AD89BE89848FF0
:10134000958FA68FB78F8F89988D938F828F8F8976
:10135000988DA98DBA8DB58BA48B8C818F778C835A
:10136000111103C08C818F7E8C83812FDF91CF91EF
:101370001F910C94D00580E0DF91CF911F910895CB
:101380001F93CF93DF93EC018D81813031F090E09A
:1013900080E0DF91CF911F9108958C8181FFF7CF7D
:1013A00082FD1BC090E080E00E94A9040E94CD0451
:1013B000182F90E080E00E94BB041F3F41F78C8112
:1013C00085FF1EC08D81882321F060E0CE010E9440
:1013D0007E098C818F7D8C83DACF4B895C896D8906
:1013E0007E898A859B85AC85BD8584179507A60770
:1013F000B707C1F2CE010E94EA078111D3CFC7CF50
:1014000040910D0250910E0260910F0270911002F6
:10141000452B462B472B21F080E00E94AE05B7CF2D
:1014200080618C832A853B85317080E092E0821B4D
:10143000930BAFCF9F92AF92BF92CF92DF92EF927A
:10144000FF920F931F93CF93DF9300D000D01F9292
:10145000CDB7DEB78C016D83DC0115968C911597A5
:10146000813009F0B9C014968C9181FFB5C082FD1E
:101470009FC0D8015B96ED91FC915C971A96AD9058
:10148000BD90CD90DC901D9794809A94B601A501F3
:1014900089E076956795579547958A95D1F7942277
:1014A000B1E0BB22992009F49FC0D8015B96ED9171
:1014B000FC915C971696CD90DD90ED90FC9019977D
:1014C000B2E0CB1AD108E108F108858504C0CC0C44
:1014D000DD1CEE1CFF1C8A95D2F746855785608976
:1014E0007189C40ED51EE61EF71EC90CD11CE11C65
:1014F000F11CA114B10409F00AC1F8014285538519
:101500006485758583899489A589B68948175907A3
:101510006A077B0708F4FBC081E00E94D00588239E
:1015200009F45AC0C0920001D0920101E092020178
:10153000F092030180910C02816080930C02F5010E
:10154000EF5EFD4F8D818083F80182859385A485B0
:10155000B5850196A11DB11D82879387A487B587A4
:101560004389548965897689481759076A077B0733
:1015700038F42481838B948BA58BB68B20682483CD
:10158000D80114968C9183FD9FC081E090E00F906C
:101590000F900F900F900F90DF91CF911F910F91AF
:1015A000FF90EF90DF90CF90BF90AF909F90089505
:1015B000F801438954896589768982859385A48554
:1015C000B585481759076A077B0709F452CFC80148
:1015D0000E94EA0781114DCF81E090E0D801139677
:1015E0009C938E93129749C0D80116964D915D91A8
:1015F0006D917C911997A114B10409F071C0411546
:1016000051056105710589F557968D919D910D9054
:10161000BC91A02D0097A105B10509F04FC0C801EC
:101620000E947E088823C1F2D8015B96ED91FC915F
:101630005C971696CD90DD90ED90FC901997B2E0F6
:10164000CB1AD108E108F108858504C0CC0CDD1C5B
:10165000EE1CFF1C8A95D2F74685578560897189F3
:10166000C40ED51EE61EF71E48CF9E012F5F3F4FCA
:10167000CF010E946907811103C090E080E087CF0D
:1016800089819A81AB81BC81F801238D348DF90168
:10169000278948EF5FEF60E070E0203121F048EFEC
:1016A0005FEF6FEF7FE084179507A607B70730F06D
:1016B000C8010E947E088111F8CE8ECFF801868382
:1016C0009783A087B187F1CEF8018581882309F43B
:1016D00083CF61E0C8010E947E09811156CF7CCF83
:1016E0006A017B01B2E0CB1AD108E108F1088585D7
:1016F00004C0CC0CDD1CEE1CFF1C8A95D2F746857D
:10170000578560897189C40ED51EE61EF71E41E01B
:10171000C701B6010E94F905811111CF5DCF85ED9A
:101720008093BC008091BC0084FDFCCF1092E50149
:1017300008952091C101260F3327331F213231052F
:10174000ECF42091E501FC0190E080E0243069F0A8
:1017500082E00895A091C1012191AC014F555E4FE7
:10176000A40FB52FB11D2C930196861798F3809185
:10177000C101680F6093C10180E0089581E0089580
:1017800008958FEF9FEF08958FEF9FEF0895809159
:10179000A00190E09195819591090895CF93DF93F1
:1017A000CB01EA01642F0E94990BCE01DF91CF910A
:1017B0000895CF93DF931F92CDB7DEB7698361E0C1
:1017C000CE0101960E94990B81E090E00F90DF918D
:1017D000CF910895CF93DF93EC019C818E81981770
:1017E00068F48C856827E881F9810084F185E02D13
:1017F00042E0CE0109958C818F5F8C83DF91CF9180
:101800000895DC01ED91FC910084F185E02D40E02C
:101810000994FC012781269526952695621720F4C8
:101820006583606B0C94010C08950F931F93CF9305
:10183000FC012681621798F4C62F8C0164836085B1
:10184000C60F6C2F6F700E94010C6C2F62956F7029
:101850006061C801CF911F910F910C94010CCF9141
:101860001F910F9108952F923F924F925F926F9226
:101870007F928F929F92AF92BF92CF92DF92EF9220
:10188000FF920F931F93CF93DF9300D000D01F924E
:10189000CDB7DEB7FC01228533852115310509F46A
:1018A00017C19D838C83F9013296649031964491DF
:1018B000E42EF12CF7E0EF0EF11C53E0F594E794E1
:1018C0005A95E1F7E982F901349654913196E49101
:1018D000651740F08E2F90E0FC01E50FF11D6E17AB
:1018E0001F06A4F16D30F9F460E08C819D810E94A7
:1018F000150C81E090E00F900F900F900F900F90DB
:10190000DF91CF911F910F91FF90EF90DF90CF90DB
:10191000BF90AF909F908F907F906F905F904F900F
:101920003F902F9008956A3009F0D2C060E08C811A
:101930009D810E94150CEC81FD81858565818E9DC0
:10194000600D1124CF010E94090CD3CF89010A5FD9
:101950001F4F651BEC81FD8171855585759F502D4D
:1019600011245B83F90154912F5F3F4FF9012491BA
:10197000352F2230310508F06BC06E9CC0016F9C82
:10198000900D1124689FF001699FF00D11240E0F36
:101990001F1F512CEC81FD81F481FA83EC81FD81C4
:1019A0002580862C912CAA24A394B12C312CF9816A
:1019B0003F1608F089C0412CEC81FD8185854816D1
:1019C00008F07BC0311002C0442069F0EC81FD8139
:1019D000D580D3946A81CF010E94150C6D2D8C8126
:1019E0009D810E94090CD12CC12CC61408F058C04E
:1019F000F801EC0DFD1D7490552061F0EA14FB0414
:101A000049F4E72DF0E0052C02C0F595E7950A941E
:101A1000E2F77E2EEC81FD818585823081F44420C1
:101A200009F43AC072948FE07822E72DF0E0EF5786
:101A3000FF4F7490672D8C819D810E94EA0B672D6A
:101A40008C819D810E94EA0B8FEFC81AD80ACDCFF6
:101A5000477028E0522E541A411101C0512CF80150
:101A6000612C30E020E0661631F04491240F311DE6
:101A700063943196F8CF600E712E711CF30164905F
:101A8000E29EF001E39EF00DF29EF00D11248E0F08
:101A90009F1F080F191F7ECFF72DFF707F2EC5CF18
:101AA000D12CEB81DE1639F060E08C819D810E94A3
:101AB000EA0BD394F6CF43947FCF3394080D191DCE
:101AC000FFEFAF1ABF0A73CF622D8C819D813BCF90
:101AD00090E080E010CFEF92FF920F931F93CF938F
:101AE000DF93EC011F811695169516951150FE8017
:101AF000FA9400E060E0CE010E94150C602FCE0148
:101B00000E94090CE12C6C85CE010E94EA0BE39443
:101B1000FE14C8F70F5F101768F760E0CE010E944F
:101B2000150C60E0CE01DF91CF911F910F91FF90D6
:101B3000EF900C94090C60E085E00E94F70260E0F1
:101B400087E00E94F70260E089E00C94F702FC0154
:101B50006093BC008091BC0087FFFCCF9091B900DE
:101B6000987F90830895DF92EF92FF920F931F93D7
:101B7000CF93DF93EC01D62EF42E8889882351F081
:101B8000411108C084E98093BC008091BC0084FDB1
:101B9000FCCF188A8E01025F1F4F888981111AC0FD
:101BA000EF8464EAC8010E94A70D8E85883011F089
:101BB000803139F4EE0CE092BB0064E8C8010E9469
:101BC000A70D80E0F11080E48093BB0064E8C801B9
:101BD0000E94A70DD092BB0064E8C8010E94A70D27
:101BE00082E0F8120BC088898F5F888BDF91CF91DC
:101BF0001F910F91FF90EF90DF90089584E98093FB
:101C0000BC008091BC0084FDFCCF188AEFCF089502
:101C100090E080E00895FC0101900020E9F7319701
:101C2000AF01481B590BBC0180E595E00C9498016D
:101C30008F929F92AF92BF920F931F93CF93DF9398
:101C4000CDB7DEB7A1970FB6F894DEBF0FBECDBFFC
:101C500019A2423008F44AE08E010F5D1F4F842E16
:101C6000912CB12CA12CA50194010E948219E62F80
:101C7000B901CA01EA30F4F4E05DD801EE938D01B8
:101C8000232B242B252B79F790E080E0109719F077
:101C9000CD010E940B0EA1960FB6F894DEBF0FBEC9
:101CA000CDBFDF91CF911F910F91BF90AF909F90CB
:101CB0008F900895E95CE1CF0C940B0ECF92DF92E8
:101CC000EF92FF9280911101811104C084E491E0B0
:101CD0000E945C0E0E949D04609321057093220572
:101CE0008093230590932405809120050E94CE02C5
:101CF000FC0120911D0530E091E0E217F30709F0A7
:101D000090E090934105409121055091220560910A
:101D1000230570912405A0913305B0913405C0903E
:101D20002905D0902A05E0902B05F0902C05CA0ECD
:101D3000DB1EE11CF11C4C155D056E057F0520F1D5
:101D4000E217F30731F180914305882311F11092D6
:101D5000350540932D0550932E0560932F05709304
:101D6000300581E0909343054093290550932A055F
:101D700060932B0570932C05813031F49091110103
:101D8000911102C080931101FF90EF90DF90CF90EE
:101D9000089580E0E7CFCF92DF92EF92FF920E940A
:101DA0009D046B017C0124E6C20ED11CE11CF11CD8
:101DB0000E949D046C157D058E059F0518F40E94F8
:101DC0005E0EF6CFFF90EF90DF90CF900895CF9208
:101DD000DF92EF92FF920E949D046B017C012CEA3E
:101DE000C20E26E2D21EE11CF11C0E949D046C155D
:101DF0007D058E059F0518F40E945E0EF6CFFF90BC
:101E0000EF90DF90CF9008954F925F926F927F9204
:101E10008F929F92AF92BF92CF92DF92EF92FF92FA
:101E20000F931F93CF936B017C01742EAC019B0128
:101E30000E94BE1A882399F08BE491E0CF911F9104
:101E40000F91FF90EF90DF90CF90BF90AF909F9059
:101E50008F907F906F905F904F900C940B0E460187
:101E60005701E894B7F82FEF3FEF4FE75FE7C50161
:101E7000B4010E94BE1A81110DC02FEF3FEF4FE752
:101E80005FE7C501B4010E94271818161CF48FE4FF
:101E900091E0D4CF2FEF3FEF4FE75FE4C701B601EA
:101EA0000E94B91A18161CF483E591E0C7CF2FEFF2
:101EB0003FEF4FE75FECC701B6010E94271887FD8F
:101EC000F3CF20E030E0A901C701B6010E94271836
:101ED00010E000E087FF0AC06DE280E595E00E9417
:101EE000330C8C01F7FAF094F7F8F094C0E060E05E
:101EF00070E080E09FE37C1641F020E030E040E2BB
:101F000051E40E94111ACF5FF6CFA70196010E94FB
:101F1000A5192B013C010E948A1A4B015C014AE081
:101F20000E94180E7C01E00EF11ECC23C1F1C50108
:101F3000B4010E942C189B01AC01C301B2010E94A4
:101F4000A4194B015C016EE280E595E00E94330C20
:101F5000E80EF91EC15018F120E030E040E251E4F3
:101F6000C501B4010E948D182B013C010E948A1A00
:101F70004B01B12CA12C4AE0C501B4010E94180EFE
:101F8000E80EF91EC501B4010E942C189B01AC019A
:101F9000C301B2010E94A4194B015C01DBCFC70150
:101FA000CF911F910F91FF90EF90DF90CF90BF9056
:101FB000AF909F908F907F906F905F904F9008951B
:101FC000CF92DF92EF92FF928EE090E00E94F603B4
:101FD000BC01990F880B990B0E942E182AE038E259
:101FE00040EA5BE30E948D186B017C0120E030E049
:101FF000A9010E94B91A181624F0F7FAF094F7F81C
:10200000F09420E030E0A901C701B6010E94A519B3
:1020100060932A0470932B0480932C0490932D04D6
:102020008FE090E00E94F603BC01990F880B990B9A
:102030000E942E182AE038E240EA5BE30E948D18E5
:1020400023E333E347EC51E40E94A4196B017C01C4
:1020500020E030E0A9010E94B91A181624F0F7FA1E
:10206000F094F7F8F0942CEB32E248E75DE3C70117
:10207000B6010E94A41960932604709327048093EC
:1020800028049093290480E595E00E946B0D8091CF
:102090002E04882309F4C2C087E591E00E945C0EFB
:1020A0008DE591E00E945C0E60912A0470912B04F2
:1020B00080912C0490912D0442E00E94040F81E64F
:1020C00091E00E945C0E609126047091270480913B
:1020D00028049091290442E00E94040F86E691E0D2
:1020E0000E940B0E20E030E041E655E460912204AE
:1020F0007091230480912404909125040E94111A68
:1021000020E030E040E251E40E948D1842E00E945D
:10211000040F89E691E00E945C0E84E10E94DB03DB
:1021200082E791E00E945C0E60911C0480E595E0DE
:102130000E94330C8CE691E00E945C0E20E030E0BF
:1021400041E655E460911E0470911F0480912004C3
:10215000909121040E94111A20E030E040E251E405
:102160000E948D1842E00E94040F8EE691E00E94CA
:102170005C0E2DE33AE047EB5FE360911E04709143
:102180001F0480912004909121040E94B91A18160E
:102190000CF047C081E791E00E945C0E60911A0448
:1021A00080E595E00E94330C8CE691E00E940B0ED6
:1021B00086E691E00E940B0E84E791E00E945C0E9F
:1021C000409148055091490560914405709145053D
:1021D00080E595E00E9498018BE791E00E945C0EFB
:1021E00060910501709106018091070190910801AD
:1021F00042E00E94040F8FE791E00E945C0E609124
:10220000090170910A0180910B0190910C0142E04B
:10221000FF90EF90DF90CF900C94040F8AE591E04F
:102220003DCF82E791E0B8CFCF92DF92EF92FF925D
:1022300060E085E00E94F70260E089E00E94F7021A
:102240000E949D046B017C0120E1C20E27E2D21E98
:10225000E11CF11C0E949D046C157D058E059F05F7
:1022600018F40E94E00FF6CFFF90EF90DF90CF9030
:102270000895CF92DF92EF92FF9260E085E00E9496
:10228000F70260E089E00E94F7020E949D046B0162
:102290007C0120EDC20E27E0D21EE11CF11C0E9441
:1022A0009D046C157D058E059F0518F40E94E00FB6
:1022B000F6CFFF90EF90DF90CF90089580912E049D
:1022C0008823C9F161E085E00E94F70260E089E0BF
:1022D0000E94F7020E94CB0E0E94E00F0E94E70EC0
:1022E0000E9439118EE00E94DB03BC01990F880B1C
:1022F000990B0E942E182AE038E240EA5BE30E9424
:102300008D182091090130910A0140910B015091E3
:102310000C010E94B91A18162CF410922E040E9477
:10232000E00FCCCF61E085E00E94F70260E089E039
:102330000E94F702F4CF08950E94AB1C0F931F93E5
:10234000CF93DF93EC0188819981009759F02A811E
:102350003B812617370730F081E0DF91CF911F9145
:102360000F9108958B016F5F7F4F0E94EE1B0097C6
:1023700059F0998388831B830A832C813D81232B09
:1023800059F7FC011082E8CF80E0E7CF0F931F934D
:10239000CF93DF938C01EC0109900020E9F721979E
:1023A000C81BD90BBE0184E495E00E949E112091C8
:1023B000440530914505811117C02115310519F0EB
:1023C000C9010E94651B10924505109244051092A8
:1023D0004905109248051092470510924605DF9175
:1023E000CF911F910F910895D0934905C09348054F
:1023F000B801C901DF91CF911F910F910C94B91CC5
:102400001F920F920FB60F9211242F933F934F9369
:102410005F936F937F938F939F93AF93BF93EF934C
:10242000FF938FE294E00E941602FF91EF91BF911B
:10243000AF919F918F917F916F915F914F913F915C
:102440002F910F900FBE0F901F9018951F920F9213
:102450000FB60F9211242F938F939F93EF93FF93B7
:10246000E0913F04F09140048081E0914504F091B7
:10247000460482FD1BC09081809148048F5F8F735A
:1024800020914904821741F0E0914804F0E0E15DB9
:10249000FB4F958F80934804FF91EF919F918F910F
:1024A0002F910F900FBE0F901F9018958081F4CF41
:1024B0001F920F920FB60F9211242F933F938F9379
:1024C0009F93AF93BF938091160490911704A091AE
:1024D0001804B09119043091150423E0230F2D370F
:1024E00058F50196A11DB11D209315048093160483
:1024F00090931704A0931804B093190480911104C9
:1025000090911204A0911304B09114040196A11D9E
:10251000B11D8093110490931204A0931304B093FF
:102520001404BF91AF919F918F913F912F910F9084
:102530000FBE0F901F90189526E8230F0296A11D3D
:10254000B11DD2CF1F920F920FB60F9211242F936D
:102550003F934F935F936F937F938F939F93AF932B
:10256000BF93EF93FF938091B900887F803609F481
:102570004AC0F0F5883209F4A5C018F5803109F495
:1025800099C0B8F4882309F4F5C0883009F492C0E2
:10259000FF91EF91BF91AF919F918F917F916F913B
:1025A0005F914F913F912F910F900FBE0F901F9011
:1025B0001895883109F486C0803251F78093E40180
:1025C00014C0803409F49BC040F48033B9F38833DD
:1025D000F9F68093E40185ECAEC0803509F483C040
:1025E000883509F494C0883499F60E948F0BD0CFB7
:1025F000883909F48AC038F5883729F050F48836CC
:1026000011F0803729F683E08093E5011092E30111
:1026100055C0883809F479C0803919F0803809F03C
:10262000B7CF8091E301803208F06FC0E091E30101
:1026300081E08E0F8093E3018091BB00F0E0ED53C9
:10264000FE4F80833BC0803B39F0D0F4803A09F4E0
:1026500077C0883A09F09CCF84E08093E50110921E
:10266000C2011092C101F0E0E0E009958091C10142
:1026700081110FC081E08093C1011092A10109C0B6
:10268000803C09F4A8CF883C09F4A5CF883B09F029
:102690007FCFE091C20181E08E0F8093C201F0E014
:1026A000EF55FE4F80818093BB009091C2018091D5
:1026B000C10129C080910A028093BB0085EC809300
:1026C000BC0066CF9091090280910802981758F5D6
:1026D000E091090281E08E0F80930902F0E0E85159
:1026E000FE4F8081E9CFE091090281E08E0F809357
:1026F00009028091BB00F0E0E851FE4F8083909189
:102700000902809108029817C8F285E8D8CFE091B5
:10271000090281E08E0F809309028091BB00F0E0F6
:10272000E851FE4F80838091E70181115ECF81E007
:102730008093E60184EA8093BC001092E50128CFE3
:1027400085EC8093BC001092E5018091E30180321A
:1027500030F4E091E301F0E0ED53FE4F1082609120
:10276000E30170E083EC91E0F0E0E0E00995109285
:10277000E3010ECF1092E40138CFEF92FF920F9356
:102780001F93CF93DF93EC017B01198218821B8288
:102790001A821D821C82FB0101900020E9F731970B
:1027A0008F01061B170BB8010E949E1128813981E9
:1027B000811113C02115310519F0C9010E94651B53
:1027C000198218821D821C821B821A82DF91CF918E
:1027D0001F910F91FF90EF9008951D830C83B70117
:1027E000C901DF91CF911F910F91FF90EF900C9451
:1027F000B91C0F931F93CF93DF93EFE2F4E01382A2
:10280000128288EE93E0A0E0B0E084839583A683F3
:10281000B7838CE191E09183808385EC90E095878C
:10282000848784EC90E09787868780EC90E0918B9A
:10283000808B81EC90E0938B828B82EC90E0958B87
:10284000848B86EC90E0978B868B118E128E138E84
:10285000148EECECF4E080E580831182EEECF4E081
:10286000158216821186138682E090E0A0E0B0E027
:1028700084879587A687B78713A215A614A68EE22C
:1028800091E093A782A717A6E0E5F5E013821282F4
:1028900013861286148611E015878AE391E09183EE
:1028A000808361E871E08AE495E00E94BD1365E8E9
:1028B00071E084E495E00E94BD13CDE1D5E018837A
:1028C00002E010E01D8B0C8B88EC90E09F8B8E8BD0
:1028D000188E198E1A8E84E690E098A38F8F19A215
:1028E0001AA21BA21CA21DA21EA282E0898383E061
:1028F0008A8384E08B830E949D046C837D838E8316
:102900009F83688779878A879B876C877D878E8777
:102910009F876B8F7C8F8D8F9E8F0E946103E7E175
:10292000F5E08BE090E0918380838AE090E09383F0
:10293000828315830483DF91CF911F910F910895B6
:10294000789484B5826084BD84B5816084BD85B58A
:10295000826085BD85B5816085BD80916E00816096
:1029600080936E001092810080918100826080933C
:10297000810080918100816080938100809180003E
:102980008160809380008091B10084608093B10069
:102990008091B00081608093B00080917A00846063
:1029A00080937A0080917A00826080937A0080918F
:1029B0007A00816080937A0080917A0080688093A9
:1029C0007A001092C100E0913F04F091400482E04F
:1029D0008083E0913B04F0913C041082E0913D043F
:1029E000F0913E048FEC808310924704E091430401
:1029F000F091440486E08083E0914104F091420428
:102A0000808180618083E0914104F0914204808163
:102A100088608083E0914104F09142048081806865
:102A20008083E0914104F091420480818F7D808316
:102A300081E08093040180931D050E94610385E07D
:102A400090E090933205809331058AEF90E0909367
:102A50003D0580933C050E949D04AB01BC01409361
:102A6000210550932205609323057093240520913E
:102A70003105309132058091250590912605A09170
:102A80002705B0912805820F931FA11DB11D48177E
:102A900059076A077B0708F459C080911E050E94F8
:102AA000CE0230911D0521E03817190609F020E00B
:102AB00020933F0580911F050E94CE0220911D05A5
:102AC00030E041E08217930709F040E04093400571
:102AD000E0913F0540912105509122056091230529
:102AE00070912405E11128C0F0914205FF2321F1E6
:102AF0008217930709F00DC121E0C0913C05D091E8
:102B00003D058091380590913905A0913A05B09125
:102B10003B058C0F9D1FA11DB11D481759076A0762
:102B20007B0710F020933E054093380550933905FC
:102B300060933A0570933B05E09342054093250569
:102B40005093260560932705709328050E949D04E5
:102B500060932105709322058093230590932405AB
:102B6000809120050E94CE02FC0120911D0530E0DD
:102B700091E0E217F30709F090E09093410540914E
:102B80002105509122056091230570912405A091A3
:102B90003305B0913405C0902905D0902A05E09006
:102BA0002B05F0902C05CA0EDB1EE11CF11C4C1508
:102BB0005D056E057F05F0F080914305E217F30790
:102BC00009F413C2882309F41AC281E080933705FF
:102BD00040932D0550932E0560932F05709330057B
:102BE000909343054093290550932A0560932B0544
:102BF00070932C0561E085E00E94250361E087E089
:102C00000E94250361E089E00E94250360E085E0E1
:102C10000E94F70260E087E00E94F70260E089E02E
:102C20000E94F7028DE891E00E945C0E80E10E9414
:102C3000DB03BC01990F880B990B0E942E182AE028
:102C400038E240EA5BE30E948D1820E030E040E685
:102C500050E40E94B91A18160CF05DC086E696E69C
:102C6000A6E8B0E48093090190930A01A0930B01B8
:102C7000B0930C018AE999E9A9E3B0E480930501D6
:102C800090930601A0930701B093080184E19EEAA6
:102C9000A7E7B0E480930D0190930E01A0930F017C
:102CA000B093100185E991E00E94C6111092600571
:102CB0008CE380935F051092B9008CE08093B8009C
:102CC0001092540510925505E1EDF2E0E590F49074
:102CD000E3EDF2E01491E4EDF2E0E491E0935605C7
:102CE000E5EDF2E0E491E0935705E6EDF2E0E491E2
:102CF000E0935805D0E0C0E0C11708F071C0F701BB
:102D0000EC0FFD1F649180E595E00E94010C219677
:102D1000F3CF22E0F2CE80E10E94DB03BC01990FE9
:102D2000880B990B0E942E182AE038E240EA5BE3F8
:102D30000E948D1820E030E040E450E40E94B91A6F
:102D400018163CF586E696E6A6E6B0E480930901FF
:102D500090930A01A0930B01B0930C0180E090E0E6
:102D6000A0E2B0E48093050190930601A0930701CF
:102D7000B093080180E090E0A0E4B0E480930D01FE
:102D800090930E01A0930F01B093100185E891E09C
:102D90008BCF83E393E3A3E3B0E4809309019093A3
:102DA0000A01A0930B01B0930C0186E696E6A6EE0D
:102DB000BFE38093050190930601A0930701B093B0
:102DC000080180E090E0A0E2B0E480930D019093D0
:102DD0000E01A0930F01B09310018CE991E064CF34
:102DE00080E595E00E946B0DEBEEF0E0F0935B0563
:102DF000E0935A058491ECEEF0E0E491F82F3197DE
:102E000059F4109259050E94E70E80911101811129
:102E100007C00E945E0EF9CF81E080935905F3CF81
:102E200081E080932E0461E087E00E94F7020E9417
:102E30005E1110922E0460E087E00E94F702C1E06C
:102E400080912E048111B4C060E085E00E94F702F9
:102E500070E060E089E00E947E030E94E00FC09075
:102E60002604D0902704E0902804F09029042091B3
:102E70002A0430912B0440912C0450912D04C70159
:102E8000B6010E948D189B01AC01609122047091E3
:102E9000230480912404909125040E94A519609335
:102EA0002204709323048093240490932504A701A3
:102EB000960160911E0470911F04809120049091EE
:102EC00021040E94A51960931E0470931F0480932F
:102ED0002004909321040E9439118EE00E94DB03AC
:102EE000BC01990F880B990B0E942E182AE038E23A
:102EF00040EA5BE30E948D182091050130910601A4
:102F000040910701509108010E94271887FF04C0D3
:102F1000C0932E040E94141160E085E00E94F70225
:102F200070E060E089E00E947E030E94CB0E0E9468
:102F3000E00F20E030E041E655E46091220470911A
:102F4000230480912404909125040E94111A20E00A
:102F500030E040E251E40E948D186B017C012CEEC0
:102F600031E548EE50E40E94111A20E030E048ECD0
:102F700052E40E948D180E94831A70931D0460937E
:102F80001C042DEC3CEC4CE050E4C701B6010E945F
:102F9000111A20E030E048EC52E40E948D180E94A3
:102FA000831A70931B0460931A040E94E70E48CFA3
:102FB0000E949B0D80910D0190910E01A0910F0137
:102FC000B09110018093090190930A01A0930B0125
:102FD000B0930C0161E087E00E94F7020E945E114D
:102FE0000E949B0D0E941411FDCF8111F9CD80919B
:102FF0003705882309F4F4CD10923705F1CD80917F
:103000003705882309F4ECCD00912D0510912E058C
:1030100020912F053091300508511C4F2F4F3F4F05
:10302000041715072607370738F3DACD80914405D2
:1030300090914505009711F00E94651B80914A050B
:1030400090914B05009711F00C94651B08950E9418
:10305000691808F481E00895E89409C097FB3EF4EC
:1030600090958095709561957F4F8F4F9F4F9923D5
:10307000A9F0F92F96E9BB279395F6958795779553
:103080006795B795F111F8CFFAF4BB0F11F460FF13
:103090001BC06F5F7F4F8F4F9F4F16C0882311F06B
:1030A00096E911C0772321F09EE8872F762F05C07F
:1030B000662371F096E8862F70E060E02AF09A951A
:1030C000660F771F881FDAF7880F9695879597F90F
:1030D0000895990F0008550FAA0BE0E8FEEF1616A9
:1030E0001706E807F907C0F012161306E407F507FC
:1030F00098F0621B730B840B950B39F40A2661F070
:10310000232B242B252B21F408950A2609F4A14012
:10311000A6958FEF811D811D08950E94A0180C9423
:1031200011190E94031938F00E940A1920F0952302
:1031300011F00C94FA180C94001911240C944519F0
:103140000E94221970F3959FC1F3950F50E0551F0F
:10315000629FF001729FBB27F00DB11D639FAA27EC
:10316000F00DB11DAA1F649F6627B00DA11D661F3B
:10317000829F2227B00DA11D621F739FB00DA11D5C
:10318000621F839FA00D611D221F749F3327A00D16
:10319000611D231F849F600D211D822F762F6A2FB2
:1031A00011249F5750409AF0F1F088234AF0EE0F17
:1031B000FF1FBB1F661F771F881F91505040A9F744
:1031C0009E3F510580F00C94FA180C9445195F3F0E
:1031D000E4F3983ED4F3869577956795B795F79580
:1031E000E7959F5FC1F7FE2B880F911D96958795F8
:1031F00097F9089597F99F6780E870E060E0089577
:103200009FEF80EC089500240A94161617061806FE
:103210000906089500240A941216130614060506DA
:103220000895092E0394000C11F4882352F0BB0F6B
:1032300040F4BF2B11F460FF04C06F5F7F4F8F4FCE
:103240009F4F089557FD9058440F551F59F05F3F09
:1032500071F04795880F97FB991F61F09F3F79F0B8
:1032600087950895121613061406551FF2CF46953A
:10327000F1DF08C0161617061806991FF1CF8695BC
:103280007105610508940895E894BB2766277727A0
:10329000CB0197F908952F923F924F925F926F92D0
:1032A0007F928F929F92AF92BF92CF92DF92EF92D6
:1032B000FF920F931F93CF93DF93CDB7DEB7CA1B57
:1032C000DB0B0FB6F894DEBF0FBECDBF09942A8882
:1032D000398848885F846E847D848C849B84AA842A
:1032E000B984C884DF80EE80FD800C811B81AA81B7
:1032F000B981CE0FD11D0FB6F894DEBF0FBECDBF82
:10330000ED010895A1E21A2EAA1BBB1BFD010DC001
:10331000AA1FBB1FEE1FFF1FA217B307E407F50785
:1033200020F0A21BB30BE40BF50B661F771F881F61
:10333000991F1A9469F760957095809590959B01F7
:10334000AC01BD01CF0108955058BB27AA270E94A8
:10335000BC190C9411190E94031938F00E940A1923
:1033600020F039F49F3F19F426F40C9400190EF460
:10337000E095E7FB0C94FA18E92F0E94221958F304
:10338000BA17620773078407950720F079F4A6F54A
:103390000C9444190EF4E0950B2EBA2FA02D0B01BE
:1033A000B90190010C01CA01A0011124FF27591B8A
:1033B00099F0593F50F4503E68F11A16F040A22F90
:1033C000232F342F4427585FF3CF46953795279501
:1033D000A795F0405395C9F77EF41F16BA0B620B00
:1033E000730B840BBAF09150A1F0FF0FBB1F661F47
:1033F000771F881FC2F70EC0BA0F621F731F841F8A
:1034000048F4879577956795B795F7959E3F08F0AF
:10341000B0CF9395880F08F09927EE0F9795879571
:1034200008950E94251A0C9411190E940A1958F047
:103430000E94031940F029F45F3F29F00C94FA1818
:1034400051110C9445190C9400190E94221968F32B
:103450009923B1F3552391F3951B550BBB27AA274D
:1034600062177307840738F09F5F5F4F220F331F87
:10347000441FAA1FA9F335D00E2E3AF0E0E832D04F
:1034800091505040E695001CCAF72BD0FE2F29D052
:10349000660F771F881FBB1F261737074807AB0724
:1034A000B0E809F0BB0B802DBF01FF2793585F4F99
:1034B0003AF09E3F510578F00C94FA180C94451997
:1034C0005F3FE4F3983ED4F3869577956795B7957B
:1034D000F7959F5FC9F7880F911D9695879597F986
:1034E0000895E1E0660F771F881FBB1F62177307FF
:1034F0008407BA0720F0621B730B840BBA0BEE1F14
:1035000088F7E09508950E948A1A6894B1110C9486
:10351000451908950E942A1988F09F5798F0B92FED
:103520009927B751B0F0E1F0660F771F881F991FF8
:103530001AF0BA95C9F714C0B13091F00E9444193D
:10354000B1E008950C944419672F782F8827B85F4D
:1035500039F0B93FCCF3869577956795B395D9F750
:103560003EF490958095709561957F4F8F4F9F4F5A
:1035700008950E94691808F48FEF08950E94691851
:10358000880B990B0895EE0FFF1F0590F491E02D25
:1035900009940F931F93CF93DF938230910510F41A
:1035A00082E090E0E0916305F091640530E020E076
:1035B000B0E0A0E0309799F42115310509F44AC034
:1035C000281B390B24303105D8F58A819B81611580
:1035D000710589F1FB0193838283FE0111C0408153
:1035E00051810281138148175907E0F048175907A4
:1035F00099F4109761F012960C93129713961C93FE
:103600003296CF01DF91CF911F910F9108950093D2
:10361000630510936405F4CF2115310551F042176D
:10362000530738F0A901DB019A01BD01DF01F80160
:10363000C1CFEF01F9CF9093640580936305CDCF9F
:10364000FE01E20FF31F81939193225031093983D8
:103650002883D7CF2091610530916205232B41F457
:10366000209114013091150130936205209361057A
:1036700020911201309113012115310541F42DB72C
:103680003EB74091160150911701241B350BE09174
:103690006105F0916205E217F307A0F42E1B3F0BC2
:1036A0002817390778F0AC014E5F5F4F24173507B4
:1036B00048F04E0F5F1F5093620540936105819360
:1036C00091939FCFF0E0E0E09CCFCF93DF93009702
:1036D000E9F0FC01329713821282A0916305B09148
:1036E0006405ED0130E020E01097A1F420813181E4
:1036F000820F931F209161053091620528173907C9
:1037000009F061C0F0936205E0936105DF91CF910C
:103710000895EA01CE17DF07E8F54A815B819E0133
:1037200041155105B1F7E901FB83EA8349915991AC
:10373000C40FD51FEC17FD0761F4808191810296BB
:10374000840F951FE90199838883828193819B83EC
:103750008A83F0E0E0E012968D919C911397009798
:10376000B9F52D913C911197CD010296820F931FCF
:1037700020916105309162052817390739F6309795
:1037800051F51092640510926305B0936205A09301
:103790006105BCCFD383C28340815181840F951FC3
:1037A000C817D90761F44E5F5F4F88819981480F30
:1037B000591F518340838A819B8193838283211582
:1037C000310509F0B0CFF0936405E09363059ECF17
:1037D000FD01DC01C0CF13821282D7CFB0E0A0E0A0
:1037E000E4EFFBE10C944D198C01009751F4CB01EF
:1037F0000E94C91A8C01C801CDB7DEB7E0E10C9474
:103800006919FC01E60FF71F9C0122503109E217EC
:10381000F30708F49DC0D901CD91DC911197C6172B
:10382000D70798F0C530D10530F3CE01049786173D
:10383000970708F3C61BD70B2297C193D1936D93BB
:103840007C93CF010E94651BD6CF5B01AC1ABD0AE9
:103850004C018C0E9D1EA0916305B0916405512C06
:10386000412CF12CE12C109731F58091610590915C
:1038700062058815990509F05CC04616570608F0E0
:1038800058C08091120190911301009741F48DB7B7
:103890009EB74091160150911701841B950BE817B4
:1038A000F90708F055C0F0936205E0936105F9014E
:1038B00071836083A0CF8D919C91119712966C902B
:1038C000129713967C901397A815B90559F56C01BA
:1038D00042E0C40ED11CCA14DB0420F1AC014A1929
:1038E0005B09DA011296159780F062827382518328
:1038F0004083D9016D937C93E114F10471F0D701F9
:103900001396FC93EE93129776CF22968C0F9D1F01
:10391000F90191838083F301EFCFF0936405E09385
:10392000630569CF4816590608F42C017D01D301BF
:103930009ACFCB010E94C91A7C01009749F0AE01D1
:10394000B8010E94B01CC8010E94651B870153CFBB
:1039500010E000E050CF81E090E0F8940C94C01C9F
:10396000FB01DC0102C001900D9241505040D8F79C
:103970000895FB01DC0101900D920020E1F708950C
:1039800011E0CDE6D1E004C0FE010E94C31A2196E9
:0A399000CE36D107C9F7F894FFCF37
:10399A00FFFFFFFF01000000403333634000004097
:1039AA00400100006505800000000000380298010F
:1039BA00C5018502F601D401E801000000001A0AD7
:1039CA009801C009070E00000000330C9801080E88
:1039DA00070EB30D506175736564006E616E006900
:1039EA006E66006F766600432000442000563A2037
:1039FA000020433A20000D0A00576800250041685C
:103A0A0000212000547970653A200020563A002D92
:103A1A0000585858004C69466550303400626F6F40
:103A2A0074696E67004C692D696F6E004C544F00C3
:107E0000112484B714BE81FFF0D085E080938100F7
:107E100082E08093C00088E18093C10086E0809377
:107E2000C20080E18093C4008EE0C9D0259A86E02C
:107E300020E33CEF91E0309385002093840096BBD3
:107E4000B09BFECF1D9AA8958150A9F7CC24DD24C4
:107E500088248394B5E0AB2EA1E19A2EF3E0BF2EE7
:107E6000A2D0813461F49FD0082FAFD0023811F036
:107E7000013811F484E001C083E08DD089C08234E0
:107E800011F484E103C0853419F485E0A6D080C0E4
:107E9000853579F488D0E82EFF2485D0082F10E0AE
:107EA000102F00270E291F29000F111F8ED06801E7
:107EB0006FC0863521F484E090D080E0DECF843638
:107EC00009F040C070D06FD0082F6DD080E0C81688
:107ED00080E7D80618F4F601B7BEE895C0E0D1E017
:107EE00062D089930C17E1F7F0E0CF16F0E7DF06D8
:107EF00018F0F601B7BEE89568D007B600FCFDCFD4
:107F0000A601A0E0B1E02C9130E011968C91119780
:107F100090E0982F8827822B932B1296FA010C0160
:107F200087BEE89511244E5F5F4FF1E0A038BF0790
:107F300051F7F601A7BEE89507B600FCFDCF97BE46
:107F4000E89526C08437B1F42ED02DD0F82E2BD052
:107F50003CD0F601EF2C8F010F5F1F4F84911BD097
:107F6000EA94F801C1F70894C11CD11CFA94CF0C13
:107F7000D11C0EC0853739F428D08EE10CD085E9AC
:107F80000AD08FE07ACF813511F488E018D01DD067
:107F900080E101D065CF982F8091C00085FFFCCF94
:107FA0009093C60008958091C00087FFFCCF809118
:107FB000C00084FD01C0A8958091C6000895E0E648
:107FC000F0E098E1908380830895EDDF803219F02E
:107FD00088E0F5DFFFCF84E1DECF1F93182FE3DFCA
:107FE0001150E9F7F2DF1F91089580E0E8DFEE27F6
:047FF000FF270994CA
:027FFE00040479
:0400000300007E007B
:00000001FF
