:100000000C946E010C9496010C9496010C9496013C
:100010000C9496010C9496010C9496010C94960104
:100020000C9496010C9496010C9496010C949601F4
:100030000C9496010C9496010C9496010C949601E4
:100040000C942E130C9496010C94FC120C94D61262
:100050000C9496010C9496010C9496010C949601C4
:100060000C9478130C949601AED580A81FD3004051
:100070008D142002A1C8DA02817FD9F1DB40A4A649
:10008000AF00030C0F30333C3FC0C3CCCFF0F3FCC8
:10009000FF00000000240027002A000000000025C7
:1000A0000028002B00000000002300260029000487
:1000B000040404040404040202020202020303030F
:1000C0000303030102040810204080010204081009
:1000D00020010204081020000000080002010000B6
:1000E00003040700000000000000000000050720D6
:1000F00060000000000000005F0000000700070033
:10010000147F147F14242A7F2A1223130864623672
:10011000495620500008070300001C2241000041FE
:10012000221C002A1C7F1C2A08083E080800807038
:10013000300008080808080000606000201008046B
:10014000023E5149453E00427F40007249494946BE
:100150002141494D331814127F1027454545393C3C
:100160004A49493141211109073649494936464929
:1001700049291E000014000000403400000008144B
:1001800022411414141414004122140802015909C4
:10019000063E415D594E7C1211127C7F4949493619
:1001A0003E414141227F4141413E7F494949417F92
:1001B000090909013E414151737F0808087F004148
:1001C0007F41002040413F017F081422417F404091
:1001D00040407F021C027F7F0408107F3E41414166
:1001E0003E7F090909063E4151215E7F09192946D2
:1001F000264949493203017F01033F4040403F1FE8
:100200002040201F3F4038403F631408146303041C
:100210007804036159494D43007F4141410204087C
:100220001020004141417F0402010204404040404F
:1002300040000307080020545478407F2844443885
:100240003844444428384444287F385454541800CF
:10025000087E090218A4A49C787F0804047800444E
:100260007D40002040403D007F1028440000417F39
:1002700040007C047804787C0804047838444444C2
:1002800038FC1824241818242418FC7C08040408BA
:10029000485454542404043F44243C4040207C1CD3
:1002A0002040201C3C4030403C44281028444C90C6
:1002B00090907C4464544C44000836410000007720
:1002C0000000004136080002010204023C262326F9
:1002D0003C68001980200000EB149F1411241FBEFD
:1002E000CFEFD8E0DEBFCDBF26E0AAE0B2E001C08C
:1002F0001D92A533B207E1F712E0A0E0B1E0E6EF0E
:10030000FBE302C005900D92AA30B107D9F711E0C6
:10031000CDE6D1E004C02197FE010E94F11BCC364E
:10032000D107C9F70E94AC150C94EE1D0C94000087
:1003300008950895AF92BF92CF92DF92EF92FF920D
:100340000F931F93CF93DF936C017B018B01040FFD
:10035000151FEB015E01AE18BF08C017D10759F099
:100360006991D601ED91FC910190F081E02DC601DB
:100370000995892B79F7C501DF91CF911F910F91D5
:10038000FF90EF90DF90CF90BF90AF900895FC0169
:10039000538D448D252F30E0842F90E0821B930BEA
:1003A000541710F0CF96089501970895FC01918D90
:1003B000828D981761F0A28DAE0FBF2FB11D5D9693
:1003C0008C91928D9F5F9F73928F90E008958FEF35
:1003D0009FEF0895FC01918D828D981731F0828DE9
:1003E000E80FF11D858D90E008958FEF9FEF089540
:1003F000FC01918D228D892F90E0805C9F4F821BA4
:1004000091098F739927089584EE94E00E94F80172
:1004100021E0892B09F420E0822F089580E090E00C
:10042000892B29F00E94040281110C940000089588
:10043000FC01A48DA80FB92FB11DA35ABF4F2C9159
:10044000848D90E001968F739927848FA689B78950
:100450002C93A089B1898C91837080648C93938D47
:10046000848D981306C00288F389E02D80818F7DEA
:1004700080830895EF92FF920F931F93CF93DF93A2
:10048000EC0181E0888F9B8D8C8D98131AC0E889D0
:10049000F989808185FF15C09FB7F894EE89FF899F
:1004A0006083E889F98980818370806480839FBF3D
:1004B00081E090E0DF91CF911F910F91FF90EF903D
:1004C0000895F62E0B8D10E00F5F1F4F0F7311274D
:1004D000E02E8C8D8E110CC00FB607FCFACFE88988
:1004E000F989808185FFF5CFCE010E941802F1CFF6
:1004F000EB8DEC0FFD2FF11DE35AFF4FF0829FB7FC
:10050000F8940B8FEA89FB8980818062CFCFCF93EB
:10051000DF93EC01888D8823B9F0AA89BB89E8892B
:10052000F9898C9185FD03C0808186FD0DC00FB6D1
:1005300007FCF7CF8C9185FFF2CF808185FFEDCF4F
:10054000CE010E941802E9CFDF91CF910895833048
:1005500081F028F4813099F08230A9F00895873035
:10056000A9F08830C9F08430B1F4809180008F7D8B
:1005700003C0809180008F7780938000089584B5B8
:100580008F7784BD089584B58F7DFBCF8091B000B7
:100590008F778093B00008958091B0008F7DF9CF60
:1005A000CF93DF93282F30E0F901E952FF4F849178
:1005B000F901ED53FF4FD491F901E155FF4FC4917B
:1005C000CC23A1F081110E94A702EC2FF0E0EE0FE6
:1005D000FF1FEB55FF4FA591B491EC91ED2381E006
:1005E00090E009F480E0DF91CF91089580E090E001
:1005F000FACF1F93CF93DF93282F30E0F901E95210
:10060000FF4F8491F901ED53FF4FD491F901E1556A
:10061000FF4FC491CC23A9F0162F81110E94A7028D
:10062000EC2FF0E0EE0FFF1FE556FF4FA591B491C0
:100630008FB7F894EC91111108C0D095DE23DC93AC
:100640008FBFDF91CF911F910895DE2BF8CFCF930D
:10065000DF9390E0FC01ED53FF4F249181559F4FB4
:10066000FC0184918823C9F090E0880F991FFC0158
:10067000EF56FF4FA591B491FC01E556FF4FC59190
:10068000D49161110DC09FB7F8948C91209582236D
:100690008C938881282328839FBFDF91CF91089571
:1006A000623051F49FB7F8943C91822F8095832358
:1006B0008C93E8812E2BEFCF8FB7F894EC912E2BF3
:1006C0002C938FBFEACF8091DF059091DE059130AA
:1006D00069F462E00E94270362E08091E0050E94D5
:1006E000270362E08091E1050C94270360E00E94FB
:1006F000270360E08091E0050E94270360E0F2CFCD
:100700002091040190E4299F900111248E50822BA6
:1007100080937C0080917A00806480937A0080913D
:100720007A0086FDFCCF8091780090917900089541
:100730003FB7F8948091790490917A04A0917B045A
:10074000B0917C0426B5A89B05C02F3F19F00196F7
:10075000A11DB11D3FBFBA2FA92F982F8827BC011B
:10076000CD01620F711D811D911D42E0660F771F43
:10077000881F991F4A95D1F708952FB7F894609173
:1007800075047091760480917704909178042FBF5E
:100790000895CF93DF93EC018D85882329F0815054
:1007A0008D87DF91CF9108959C818E819817C8F72E
:1007B00088896827E881F9810084F185E02D42E08D
:1007C000CE0109958C818F5F8C83EBCFDC01ED919D
:1007D000FC910084F185E02D40E00994FC01278123
:1007E000269526952695621738F465832385620F32
:1007F0006770606B0C94E60308950F931F93CF937B
:10080000FC012681621798F4C62F8C0164836085F1
:10081000C60F6C2F6F700E94E6036C2F62956F708D
:100820006061C801CF911F910F910C94E603CF91A5
:100830001F910F910895CF92DF92EF92FF920F9345
:100840001F93CF93DF93EC01F62EC42ED22E1D867C
:100850008F81869586958695081710F00FEF080F03
:100860001D2D6F2DCE01011788F00E94FD03612F11
:10087000CE010E94EE03EF2CCE1430F06889CE0139
:100880000E94C903E394F8CF1F5FEBCF0E94FD03E2
:100890006D2DCE01DF91CF911F910F91FF90EF90C1
:1008A000DF90CF900C94EE030F93CF93DF93CDE1C5
:1008B000D6E01B861A8660E4CE010E94E6030F8113
:1008C00006950695069501504E81415020E060E066
:1008D000CE010E941B04DF91CF910F9108952F92BA
:1008E0003F924F925F926F927F928F929F92AF92C0
:1008F000BF92CF92DF92EF92FF920F931F93CF930D
:10090000DF9300D000D000D0CDB7DEB7DC011E965B
:100910002D913C912115310509F459C19E838D8398
:10092000F9013296649031964491E42EF12CB7E0AF
:10093000EB0EF11C53E0F594E7945A95E1F7E98248
:10094000319654913196E491651748F08E2F90E0DE
:10095000FC01E50FF11D6E171F060CF46EC06D3023
:1009600041F460E08D819E810E94FD0381E090E072
:1009700030C16A3009F02BC160E08D819E810E94F8
:10098000FD03ED81FE8101890E9DE02C112465811E
:100990006E0D8485882349F0278126952695269516
:1009A0008E2D821B860F18162CF08D819E810E9441
:1009B000EE03DCCFAD81BE811B969C911B97890F06
:1009C00087701B968C931B972E1915962C93159751
:1009D0001E96ED91FC91309771F13396E491F0E021
:1009E000379633E0F595E7953A95E1F70E9F002DA0
:1009F0001124EFEFE20F0E0FED81FE814681415091
:100A00006481CF010E941B04AD81BE811C968C9134
:100A10001C97813009F0AACF1B966C911B97660F2B
:100A2000660F660F6F731A966C931A976064CD0108
:100A30000E94E6039BCF00E0DCCF89010A5F1F4FD5
:100A4000651BED81FE8171855189759F502D1124A3
:100A50005C83F90154912F5F3F4FF9012491352FA9
:100A60002230310508F075C06E9CC0016F9C900D5E
:100A70001124689FF001699FF00D11240E0F1F1FB4
:100A8000512CAD81BE811496BC91BA83ED81FE815B
:100A90002580F585FB83862C912CAA24A394B12C68
:100AA000312C8981381608F090C0412CAD81BE816F
:100AB00051968C915197481608F080C0EB811D9695
:100AC000EC93311002C0442079F0AD81BE811596BF
:100AD000DC901597D3946A81CD010E94FD036D2DA2
:100AE0008D819E810E94EE03D12CC12CC61408F08A
:100AF00058C0F801EC0DFD1D7490552061F0EA140A
:100B0000FB0449F4E72DF0E0052C02C0F595E795CC
:100B10000A94E2F77E2EED81FE818189823081F494
:100B2000442009F43AC072948FE07822E72DF0E077
:100B3000EF57FF4F7490672D8D819E810E94C903EE
:100B4000672D8D819E810E94C9038FEFC81AD80A34
:100B5000CDCF477028E0522E541A411101C0512CBC
:100B6000F801612C30E020E0661631F04491240F4A
:100B7000311D63943196F8CF600E712E711CF30114
:100B80006490E29EF001E39EF00DF29EF00D1124C0
:100B90008E0F9F1F080F191F74CFF72DFF707F2E28
:100BA000C5CFD12CAC81DA1639F060E08D819E8101
:100BB0000E94C903D394F6CF439478CF3394080DA1
:100BC000191DBFEFAB1ABB0A6CCF622DEECE90E0C1
:100BD00080E026960FB6F894DEBF0FBECDBFDF9142
:100BE000CF911F910F91FF90EF90DF90CF90BF902A
:100BF000AF909F908F907F906F905F904F903F90BD
:100C00002F90089520915104260F3327331F21324E
:100C10003105ECF42091BA04FC0190E080E024302E
:100C200069F082E00895A09151042191AC014F5CDC
:100C30005B4FA40FB52FB11D2C930196861798F327
:100C400080915104680F6093510480E0089581E021
:100C500008951092BA0481E08093B904109294042C
:100C600061E082E10E94F90261E083E10E94F90201
:100C7000E9EBF0E080818E7F808380818D7F8083AF
:100C800088E48093B80085E48093BC000895CF93F6
:100C9000DF9391E0909330048823B9F0C091B800BD
:100CA000D091BA008091BC008A7B8093BC0060E048
:100CB00082E10E94F90260E083E10E94F9020E9451
:100CC0002906D093BA00C093B800DF91CF91089560
:100CD000CF92DF92EF92FF920F931F93CF93DF9308
:100CE000D091E30481E0D13208F09CC0C091E204CD
:100CF0000E9498036B017C018091BA0481116CC041
:100D000082E08093BA0481E08093B9048FEF8093EE
:100D1000B8041092B704D093B604A2ECB4E0E6E9AC
:100D2000F4E080E0D8138DC0109295048091950472
:100D3000CC0FC82BC093950480919404813009F0A6
:100D400084C0109294040E9498036B017C018091EE
:100D500095048093BB008091BC049091BD04A09148
:100D6000BE04B091BF04892B8A2B8B2BA1F00E946B
:100D700098030091BC041091BD042091BE043091F1
:100D8000BF046C197D098E099F09061717072807EC
:100D9000390708F442C08091BC0083FDD8CF85ECB0
:100DA0008093BC000E9498036B017C018091BA047F
:100DB000823009F44CC08091B8048F3F09F469C0B7
:100DC0008091B804803209F466C08091B804803301
:100DD00009F463C084E026C08091BC049091BD04F6
:100DE000A091BE04B091BF04892B8A2B8B2B09F4F0
:100DF00083CF0E9498030091BC041091BD04209100
:100E0000BE043091BF046C197D098E099F09061735
:100E100017072807390708F06FCF8091BB040E949D
:100E2000470685E01092C1041092E3041092C004BA
:100E3000DF91CF911F910F91FF90EF90DF90CF90B6
:100E400008959D9191938F5F6DCF85EEA9CF80918D
:100E5000BC049091BD04A091BE04B091BF04892B45
:100E60008A2B8B2B09F4A2CF0E9498030091BC041B
:100E70001091BD042091BE043091BF046C197D090E
:100E80008E099F09061717072807390708F08ECF24
:100E9000C4CF80E0C7CF82E0C5CF83E0C3CF089541
:100EA000E091820480918104E81730F4F0E0E05F83
:100EB000FB4F808190E008958FEF9FEF0895909110
:100EC0008204809181042FEF3FEF981748F4E92FB7
:100ED000F0E0E05FFB4F208130E09F5F9093820461
:100EE000C90108958091810490918204891B990B16
:100EF0000895CF92DF92EF92FF920F931F93CF93BB
:100F0000DF937C01CB018A012091C004222389F068
:100F1000EB016B01C40ED51ECC15DD0569F069919E
:100F2000D701ED91FC910190F081E02DC701099569
:100F3000F3CF642F0E940206C801DF91CF911F9169
:100F40000F91FF90EF90DF90CF900895CF93DF93B4
:100F50001F92CDB7DEB769832091C0042223F9F038
:100F60002091E304203258F021E030E0FC0133838B
:100F7000228390E080E00F90DF91CF9108958091DF
:100F8000C104E82FF0E0EE53FB4F998190838F5F0F
:100F90008093C1048093E30481E090E0ECCF61E0B2
:100FA000CE0101960E940206F7CF20910A0221117C
:100FB00009C021E020930A0230918D0520918E0511
:100FC0003CBD2DBD60E0FC0184810C94F90261E020
:100FD000FC0184810E94F90280910A028111109221
:100FE0000A0208958EBD00000DB407FEFDCF8EB538
:100FF00008958FEF0C94F2070F931F93CF93DF9315
:10100000EC010E94BD038B010E94F9078F3F69F03C
:101010000E94BD03601B710B6C177D07A8F380E075
:10102000DF91CF911F910F91089581E0F9CFCF9279
:10103000DF92EF92FF920F931F93CF93DF93EC0118
:10104000162F69017A018E81882389F08F81988516
:101050009C012F5F3F4F38872F838230924018F4D6
:101060000E94F907F3CFCE010E94E7071E82CE014E
:101070000E94D5078CE291E00E94FC07812F8064DA
:101080000E94F20708E110E0D701C601002E04C05B
:10109000B695A795979587950A94D2F70E94F2077F
:1010A00008501109083F8FEF180771F78FEF0E9462
:1010B000F20710E00E94F9078A8787FF04C01F3FEC
:1010C00011F01F5FF7CFDF91CF911F910F91FF902C
:1010D000EF90DF90CF900895CF92DF92EF92FF9242
:1010E0000F93CF93DF93EC01690182E14115510524
:1010F0006105710599F08B85833039F089E0440FE3
:10110000551F661F771F8A95D1F79A01AB0168E1D9
:10111000CE010E941708882319F084E08D832DC02A
:101120008EEF0E94F20776018EEFD81AF7018191B7
:101130007F010E94F207EC14FD04C1F78FEF0E94BB
:10114000F2078FEF0E94F2070E94F9078A878F71DA
:10115000853071F4011116C0CE010E94E70781E0CD
:10116000DF91CF910F91FF90EF90DF90CF90089596
:1011700081E18D83CE010E94E707CE010E94E7073F
:1011800080E0EECF88E592E00E94FC07811102C06A
:1011900085E1C4CF20E030E0A9016DE0CE010E94DE
:1011A0001708882311F084E1B9CF0E94F907811153
:1011B000FACFD2CF0F9340910C0250910D02609163
:1011C0000E0270910F02411551056105710589F0FC
:1011D000082F20E132E090E080E00E946C08882334
:1011E00049F010920C0210920D0210920E02109211
:1011F0000F0281E00F9108950F93CF93C82F809134
:101200000B02811105C0C1E08C2FCF910F91089581
:101210004091000150910101609102017091030120
:101220000C2F20E132E090E080E00E946C088111F8
:1012300002C0C0E0E9CFCC2331F381E00E94DA089C
:101240008823B9F310920B02DFCFAF92BF92CF92F7
:10125000DF92EF92FF921F93CF93DF936B017C019C
:10126000142F8091000190910101A0910201B09191
:1012700003018C159D05AE05BF0509F4ADC081E0E5
:101280000E94FC088823E1F1809106008823A1F0E8
:101290008091000090910100A0910200B0910300A4
:1012A000C816D906EA06FB0639F48091070090912A
:1012B0000800892B09F44FC0C0920000D0920100B1
:1012C000E0920200F092030080910B00A7019601CA
:1012D000833039F099E0220F331F441F551F9A9530
:1012E000D1F761E190E080E00E941708882391F037
:1012F00083E08093050090E080E00E94E70780E0B3
:10130000DF91CF911F91FF90EF90DF90CF90BF9032
:10131000AF9008950E94BD03EB010E94F9078093EE
:101320000A008F3F79F40E94BD036C1B7D0B6D3268
:10133000714098F38FE08093050090E080E00E9478
:10134000E707D9CF8E3FC1F5109208001092070031
:1013500081E080930600C0E1D2E080E1A82E84E025
:10136000B82E0E94F9078993AC16BD06D1F780917B
:101370000700909108009E5F9093080080930700FB
:1013800020910900222319F081159240E8F0809104
:1013900006008823C9F080910700909108009C0105
:1013A0002F5F3F4F30930800209307008230924018
:1013B00028F40E94F907EFCF8DE0BDCF90E080E0E8
:1013C0000E94E70710920600C0920001D09201012E
:1013D000E0920201F092030140910B02412B4093F5
:1013E0000B0281E08DCF4F925F926F927F928F922E
:1013F0009F92AF92BF92CF92DF92EF92FF920F93A4
:101400001F93CF93DF93EC014230510561057105C5
:1014100090F480E0DF91CF911F910F91FF90EF90BA
:10142000DF90CF90BF90AF909F908F907F906F9004
:101430005F904F90089589859A85AB85BC8501960C
:10144000A11DB11D84179507A607B70710F3CB8818
:10145000DC88ED88FE888F89803109F042C0BB2787
:10146000A72F962F852F480159012A013B01C80E4D
:10147000D91EEA1EFB1E8091000190910101A091EE
:101480000201B0910301C816D906EA06FB0699F5D8
:101490008F898031C1F5B301A201552766277727CF
:1014A000440F551F405F5D4FFA0191828082809109
:1014B0000B02816080930B028A89823080F08D81DB
:1014C0009E81AF81B8858C0D9D1DAE1DBF1D809383
:1014D0000C0290930D02A0930E02B0930F0281E0D4
:1014E00099CFDB01CA01E7E0B695A7959795879557
:1014F000EA95D1F7B8CF40E0C701B6010E942509AF
:101500008111C6CF86CFB301A2014F775527662739
:101510007727440F551F440F551F405F5D4FFA0159
:1015200080829182A282B382C2CF8F929F92AF9229
:10153000BF92CF92DF92EF92FF920F931F93CF93C0
:10154000DF93FC0181859285A385B4850196A11D59
:10155000B11D84179507A607B70770F480E0DF91E7
:10156000CF911F910F91FF90EF90DF90CF90BF90A0
:10157000AF909F908F90089583889488A588B688AF
:101580008789803189F5BB27A72F962F852FE90101
:101590006A017B018F01BC01CD01680D791D8A1D97
:1015A0009B1D8090000190900101A0900201B090DD
:1015B000030186169706A806B90601F5F801878982
:1015C000803111F5DD24EE24FF24F601EE0FFF1F1C
:1015D000E05FFD4F80819181B0E0A0E08883998336
:1015E000AA83BB8381E0BBCFDB01CA01C7E0B6950C
:1015F000A79597958795CA95D1F7C9CF40E00E94E6
:1016000025098111DBCFAACFE894C7F8DD24EE24A9
:10161000FF24F601EE0FFF1FEE0FFF1FE05FFD4FEF
:1016200080819181A281B381BF70D8CF8F929F9228
:10163000AF92BF92CF92DF92EF92FF920F931F93E0
:10164000CF93DF93EC018D8181110EC080E0DF919B
:10165000CF911F910F91FF90EF90DF90CF90BF90AF
:10166000AF909F908F9008950B891C892D893E899A
:10167000041715072607370748F34A015B01823034
:1016800031F48A869B86AC86BD8681E0E0CF8114EA
:101690009104A104B10449F41E821F8218861986A0
:1016A0001A861B861C861D86F0CF0A851B852C8515
:1016B0003D85EB8DFC8D858590E00996B901A801EB
:1016C0004150510961097109082E04C0769567954A
:1016D000579547950A94D2F775016401E1E0CE1A57
:1016E000D108E108F10804C0F694E794D794C794B0
:1016F0008A95D2F7C416D506E606F70620F0012B28
:10170000022B032B11F58F89988DA98DBA8D8E83AD
:101710009F83A887B9878E010A5F1F4FC114D10428
:10172000E104F10409F4ADCF4E815F8168857985CC
:1017300098018B8D9C8D0E94950A91E0C91AD10861
:10174000E108F1088111EACF81CFC41AD50AE60A6F
:10175000F70AE1CF3F924F925F926F927F928F9202
:101760009F92AF92BF92CF92DF92EF92FF920F9330
:101770001F93CF93DF93CDB7DEB72C970FB6F894B6
:10178000DEBF0FBECDBF5C01DC015B968D909C90EF
:101790005C9716964D905D906D907C9019974114D2
:1017A00051046104710409F468C0BFEF4B1A5B0A6D
:1017B0006B0A7B0A312CF40181859285A385B4855F
:1017C0009C01AD012F5F3F4F4F4F5F4F29873A87F5
:1017D0004B875C87730162011D821E821F821886FF
:1017E000F40181859285A385B4852D813E814F8149
:1017F0005885281739074A075B0708F056C08985BE
:101800009A85AB85BC858C159D05AE05BF0550F44A
:1018100082E0C82ED12CE12CF12C92E0492E512CE3
:10182000612C712C9E012F5F3F4FB701A601C401AF
:101830000E94950A8823C9F189819A81AB81BC8174
:10184000892B8A2B8B2B09F1260137019FEF491A2F
:10185000590A690A790A2D813E814F8158852F5F87
:101860003F4F4F4F5F4F2D833E834F8358873FEF4E
:10187000C31AD30AE30AF30AB3CFF40140805180BC
:10188000628073803324339496CFC414D504E60465
:10189000F70409F70FEF1FEF2FEF3FE0B701A601A5
:1018A000C4010E94F309811119C080E02C960FB683
:1018B000F894DEBF0FBECDBFDF91CF911F910F9186
:1018C000FF90EF90DF90CF90BF90AF909F908F9060
:1018D0007F906F905F904F903F900895D50116963E
:1018E0004D915D916D917C9119974115510561055F
:1018F000710539F097018601C4010E94F30988231C
:10190000A1F2D5011696CD92DD92ED92FC92199737
:10191000332051F0D701C6010196A11DB11DF4017C
:1019200080839183A283B383F5018789908DA18DF4
:10193000B28D892B8A2B8B2B39F48481C78AD08E68
:10194000E18EF28E80688483F501848180628483D5
:1019500081E0ACCF1F93CF93DF93EC01162F8C81E6
:1019600087FF2AC06E857F858889998941E00E941A
:101970002509882361F1EA8980E2E89FF0011124BA
:10198000E05FFD4F309719F18D81823040F48B89F3
:101990009C89AD89BE89848F958FA68FB78F8F89DB
:1019A000988D938F828F8F89988DA98DBA8DB58BE5
:1019B000A48B8C818F778C83111103C08C818F7ED7
:1019C0008C83812FDF91CF911F910C94FC0880E0D4
:1019D000DF91CF911F9108951F93CF93DF93EC0177
:1019E0008D81813031F090E080E0DF91CF911F91C7
:1019F00008958C8181FFF7CF82FD1BC090E080E0CD
:101A00000E94D5070E94F907182F90E080E00E94FD
:101A1000E7071F3F41F78C8185FF1EC08D8188231A
:101A200021F060E0CE010E94AA0C8C818F7D8C8316
:101A3000DACF4B895C896D897E898A859B85AC85E7
:101A4000BD8584179507A607B707C1F2CE010E948E
:101A5000160B8111D3CFC7CF40910C0250910D02CC
:101A600060910E0270910F02452B462B472B21F0FF
:101A700080E00E94DA08B7CF80618C832A853B859D
:101A8000317080E092E0821B930BAFCF9F92AF92B8
:101A9000BF92CF92DF92EF92FF920F931F93CF935B
:101AA000DF9300D000D01F92CDB7DEB78C016D83DD
:101AB000DC0115968C911597813009F0B9C0149608
:101AC0008C9181FFB5C082FD9FC0D8015B96ED91DE
:101AD000FC915C971A96AD90BD90CD90DC901D97CF
:101AE00094809A94B601A50189E0769567955795FB
:101AF00047958A95D1F79422B1E0BB22992009F449
:101B00009FC0D8015B96ED91FC915C971696CD90A5
:101B1000DD90ED90FC901997B2E0CB1AD108E10866
:101B2000F108858504C0CC0CDD1CEE1CFF1C8A95D9
:101B3000D2F74685578560897189C40ED51EE61E89
:101B4000F71EC90CD11CE11CF11CA114B10409F051
:101B50000AC1F80142855385648575858389948916
:101B6000A589B689481759076A077B0708F4FBC09F
:101B700081E00E94FC08882309F45AC0C092000149
:101B8000D0920101E0920201F092030180910B02D8
:101B9000816080930B02F501E05FFD4F8D818083B2
:101BA000F80182859385A485B5850196A11DB11D97
:101BB00082879387A487B587438954896589768905
:101BC000481759076A077B0738F42481838B948B65
:101BD000A58BB68B20682483D80114968C9183FD45
:101BE0009FC081E090E00F900F900F900F900F90AA
:101BF000DF91CF911F910F91FF90EF90DF90CF90E9
:101C0000BF90AF909F900895F801438954896589EA
:101C1000768982859385A485B585481759076A0713
:101C20007B0709F452CFC8010E94160B81114DCFDA
:101C300081E090E0D80113969C938E93129749C04F
:101C4000D80116964D915D916D917C911997A114D3
:101C5000B10409F071C0411551056105710589F59F
:101C600057968D919D910D90BC91A02D0097A10547
:101C7000B10509F04FC0C8010E94AA0B8823C1F228
:101C8000D8015B96ED91FC915C971696CD90DD9016
:101C9000ED90FC901997B2E0CB1AD108E108F10859
:101CA000858504C0CC0CDD1CEE1CFF1C8A95D2F788
:101CB0004685578560897189C40ED51EE61EF71EBC
:101CC00048CF9E012F5F3F4FCF010E94950A81119F
:101CD00003C090E080E087CF89819A81AB81BC818D
:101CE000F801238D348DF901278948EF5FEF60E01B
:101CF00070E0203121F048EF5FEF6FEF7FE0841755
:101D00009507A607B70730F0C8010E94AA0B8111FA
:101D1000F8CE8ECFF80186839783A087B187F1CE66
:101D2000F8018581882309F483CF61E0C8010E940E
:101D3000AA0C811156CF7CCF6A017B01B2E0CB1A8D
:101D4000D108E108F108858504C0CC0CDD1CEE1C2F
:101D5000FF1C8A95D2F74685578560897189C40E24
:101D6000D51EE61EF71E41E0C701B6010E942509F7
:101D7000811111CF5DCF0F931F93CF93DF93EC01B0
:101D8000062F142F8B89813120F4882329F04111EB
:101D900003C00E9468061B8A8B89811112C08A8940
:101DA00091E09093C0048093E2041092C1041092D9
:101DB000E30460E4111101C060E081E895E00E9455
:101DC000A607602F81E895E00E94A607123041F433
:101DD0008B898F5F8B8BDF91CF911F910F9108952E
:101DE0000E9468061B8AF7CF089590E080E008956E
:101DF0000E94D91DFB0101900020E9F73197AF0146
:101E0000461B570BDC01ED91FC910280F381E02D24
:101E100009948F929F92AF92BF920F931F93CF938B
:101E2000DF93CDB7DEB7A1970FB6F894DEBF0FBE34
:101E3000CDBF19A2423008F44AE08E010F5D1F4F5A
:101E4000842E912CB12CA12CA50194010E94CF1BB2
:101E5000E62FB901CA01EA3004F5E05DD801EE933E
:101E60008D01232B242B252B79F790E080E0109710
:101E700029F0BD018DE196E00E94FA0EA1960FB601
:101E8000F894DEBF0FBECDBFDF91CF911F910F91B0
:101E9000BF90AF909F908F900895E95CDFCF4F92F5
:101EA0005F926F927F928F929F92AF92BF92CF92EA
:101EB000DF92EF92FF920F931F93CF936B017C0100
:101EC000742EAC019B010E94CA1B62E571E0811176
:101ED00026C046015701E894B7F82FEF3FEF4FE7D0
:101EE0005FE7C501B4010E94CA1B81110CC02FEF2E
:101EF0003FEF4FE75FE7C501B4010E945C1966E55B
:101F000071E0181664F02FEF3FEF4FE75FE4C70171
:101F1000B6010E94C51B1816ACF46AE571E08DE1AC
:101F200096E0CF911F910F91FF90EF90DF90CF90AF
:101F3000BF90AF909F908F907F906F905F904F90E9
:101F40000C94FA0E2FEF3FEF4FE75FECC701B6019D
:101F50000E945C1987FDE1CF20E030E0A901C701B4
:101F6000B6010E945C1910E000E087FF0AC06DE234
:101F70008DE196E00E946F048C01F7FAF094F7F877
:101F8000F094C0E060E070E080E09FE37C1641F0F8
:101F900020E030E040E251E40E94241BCF5FF6CF06
:101FA000A70196010E94B81A2B013C010E94961BC2
:101FB0004B015C014AE00E94090F7C01E00EF11E1A
:101FC000CC23C1F1C501B4010E9461199B01AC0190
:101FD000C301B2010E94B71A4B015C016EE28DE1B0
:101FE00096E00E946F04E80EF91EC15018F120E03F
:101FF00030E040E251E4C501B4010E94C2192B0156
:102000003C010E94961B4B01B12CA12C4AE0C5015A
:10201000B4010E94090FE80EF91EC501B4010E9427
:1020200061199B01AC01C301B2010E94B71A4B01B7
:102030005C01DBCFC701CF911F910F91FF90EF9013
:10204000DF90CF90BF90AF909F908F907F906F90D8
:102050005F904F9008950F931F93CF93DF93EC0100
:102060000E94FA0E8C016EE571E0CE010E94FA0E1C
:10207000800F911FDF91CF911F910F910895CF9203
:10208000DF92EF92FF928EE00E948003BC01990FD5
:10209000880B990B0E9463192AE038E240EA5BE35F
:1020A0000E94C2196B017C0120E030E0A9010E946E
:1020B000C51B181624F0F7FAF094F7F8F09420E016
:1020C00030E0A901C701B6010E94B81A60938F04DD
:1020D0007093900480939104909392048FE00E94F7
:1020E0008003BC01990F880B990B0E9463192DE0A6
:1020F00032E348E45DE30E94C21923E333E347EC93
:1021000051E40E94B71A6B017C0120E030E0A90184
:102110000E94C51B181624F0F7FAF094F7F8F09413
:102120002CEB32E248E75DE3C701B6010E94B71A23
:1021300060938B0470938C0480938D0490938E0431
:102140000E9454044091090650910A0660910506C8
:10215000709106068DE196E00E949A0161E671E0B9
:102160008DE196E00E94FA0E60918F0470919004C8
:10217000809191049091920442E00E944F0F65E695
:1021800071E08DE196E00E94FA0E60918B047091EF
:102190008C0480918D0490918E0442E00E944F0F38
:1021A0006EE571E08DE196E00E94FA0E20E030E0ED
:1021B00041E655E460918704709188048091890418
:1021C00090918A040E94241B20E030E040E251E418
:1021D0000E94C21942E00E944F0F69E671E08DE152
:1021E00096E00E94FA0E20E030E041E655E460916E
:1021F00083047091840480918504909186040E94E8
:10220000241B20E030E040E251E40E94C21942E089
:102210000E944F0F6DE671E08DE196E00E942B1059
:1022200040911506509116066091110670911206A4
:102230008DE196E00E949A0161E671E08DE196E001
:102240000E94FA0E6091090170910A0180910B01C0
:1022500090910C0142E00E944F0F60E771E08DE128
:1022600096E00E94FA0E609105017091060180913E
:1022700007019091080142E00E944F0F6EE571E066
:102280008DE196E0FF90EF90DF90CF900C94FA0EE6
:10229000CF92DF92EF92FF9260E085E00E94F90218
:1022A00060E089E00E94F9020E94BD036B017C019D
:1022B00020E1C20E27E2D21EE11CF11C0E94BD03E8
:1022C0006C157D058E059F0518F40E943F10F6CF12
:1022D000FF90EF90DF90CF900895CF92DF92EF9232
:1022E000FF9260E085E00E94F90260E089E00E94D0
:1022F000F9020E94BD036B017C0120EDC20E27E0B4
:10230000D21EE11CF11C0E94BD036C157D058E05DB
:102310009F0518F40E943F10F6CFFF90EF90DF90DA
:10232000CF900895CF92DF92EF92FF9280910D01AE
:10233000811106C062E771E08DE196E00E94FA0E1D
:102340000E94BD036093E2057093E3058093E4056A
:102350009093E5058091E1050E94D002FC01209157
:10236000DE0530E091E0E217F30709F090E090938A
:1023700002064091E2055091E3056091E4057091F9
:10238000E505A091F405B091F505C090EA05D0905F
:10239000EB05E090EC05F090ED05CA0EDB1EE11CAC
:1023A000F11C4C155D056E057F0520F1E217F30762
:1023B00031F180910406882311F11092F6054093C3
:1023C000EE055093EF056093F0057093F10581E001
:1023D000909304064093EA055093EB056093EC0557
:1023E0007093ED05813031F490910D01911102C08F
:1023F00080930D01FF90EF90DF90CF90089580E0E3
:10240000E7CFCF92DF92EF92FF920E94BD036B0164
:102410007C0124E6C20ED11CE11CF11C0E94BD030C
:102420006C157D058E059F0518F40E949211F6CF5C
:10243000FF90EF90DF90CF900895CF92DF92EF92D0
:10244000FF9269E771E084EE94E00E942B100E94F5
:10245000BD036B017C012CEAC20E26E2D21EE11CF8
:10246000F11C0E94BD036C157D058E059F0518F4B7
:102470000E949211F6CFFF90EF90DF90CF900895D9
:102480000F931F93CF93DF93EC018881998100977D
:1024900059F02A813B812617370730F081E0DF9120
:1024A000CF911F910F9108958B016F5F7F4F0E9415
:1024B0001C1D009759F0998388831B830A832C8104
:1024C0003D81232B59F7FC011082E8CF80E0E7CF54
:1024D000EF92FF920F931F93CF93DF93EC017B0159
:1024E000FB0101900020E9F731978F01061B170BC4
:1024F000B8010E94401228813981811113C0211531
:10250000310519F0C9010E94931C198218821D829D
:102510001C821B821A82DF91CF911F910F91FF9035
:10252000EF9008951D830C83B701C901DF91CF910E
:102530001F910F91FF90EF900C94E71D85ED809314
:10254000BC008091BC049091BD04A091BE04B091E8
:10255000BF040796A11DB11D23E0B695A7959795D9
:1025600087952A95D1F72091BC0024FD03C01092D5
:10257000BA0408954091BC045091BD046091BE041A
:102580007091BF04452B462B472B69F30097A1059B
:10259000B10541F025E32A95F1F700000197A10963
:1025A000B109E1CF8091BB040C9447061F920F92B2
:1025B0000FB60F9211242F933F934F935F936F9316
:1025C0007F938F939F93AF93BF93EF93FF9384EE8B
:1025D00094E00E941802FF91EF91BF91AF919F91FB
:1025E0008F917F916F915F914F913F912F910F90BC
:1025F0000FBE0F901F9018951F920F920FB60F925B
:1026000011242F938F939F93EF93FF93E091F40402
:10261000F091F5048081E091FA04F091FB0482FDD1
:102620001BC090818091FD048F5F8F732091FE0409
:10263000821741F0E091FD04F0E0EC51FB4F958FE3
:102640008093FD04FF91EF919F918F912F910F90B7
:102650000FBE0F901F9018958081F4CF1F920F929C
:102660000FB60F9211242F933F938F939F93AF93A5
:10267000BF938091750490917604A0917704B091F6
:1026800078043091740423E0230F2D3758F5019618
:10269000A11DB11D2093740480937504909376045A
:1026A000A0937704B09378048091790490917A0490
:1026B000A0917B04B0917C040196A11DB11D809373
:1026C000790490937A04A0937B04B0937C04BF9127
:1026D000AF919F918F913F912F910F900FBE0F90CF
:1026E0001F90189526E8230F0296A11DB11DD2CF89
:1026F0001F920F920FB60F9211242F933F934F9377
:102700005F936F937F938F939F93AF93BF93EF9359
:10271000FF938091B900887F803609F44AC0F0F5B4
:10272000883209F4A7C018F5803109F49BC0B8F4C9
:10273000882309F4F9C0883009F494C0FF91EF911F
:10274000BF91AF919F918F917F916F915F914F91C9
:102750003F912F910F900FBE0F901F9018958831C9
:1027600009F488C0803251F78093B80414C08034D3
:1027700009F49DC040F48033B9F38833F9F68093AF
:10278000B80485ECB0C0803509F485C0883509F4FB
:1027900096C0883499F60E949E12D0CF883909F4E9
:1027A0008CC038F5883729F050F4883611F080371E
:1027B00029F683E08093BA041092730457C08838D6
:1027C00009F47BC0803919F0803809F0B7CF8091C7
:1027D0007304803208F071C0E091730481E08E0FC1
:1027E000809373048091BB00F0E0ED5AFB4F80832F
:1027F0003DC0803B39F0E0F4803A09F479C0883A72
:1028000009F09CCF84E08093BA0410925204109295
:102810005104E0917F04F091800409958091510466
:1028200081110FC081E0809351041092310409C0DE
:10283000803C09F4A6CF883C09F4A3CF883B09F07B
:102840007DCFE091520481E08E0F80935204F0E03E
:10285000EF5CFB4F80818093BB009091520480918C
:10286000510429C0809195048093BB0085EC80932E
:10287000BC0064CF9091B7048091B604981758F5C6
:10288000E091B70481E08E0F8093B704F0E0EA5640
:10289000FB4F8081E9CFE091B70481E08E0F8093F8
:1028A000B7048091BB00F0E0EA56FB4F8083909123
:1028B000B7048091B6049817C8F285E8D8CFE091A4
:1028C000B70481E08E0F8093B7048091BB00F0E0E5
:1028D000EA56FB4F80838091B90481115CCF81E07F
:1028E0008093940484EA8093BC001092BA0426CFAB
:1028F00085EC8093BC001092BA04809173048032FE
:1029000030F4E0917304F0E0ED5AFB4F10826091D7
:10291000730470E0E0917D04F0917E0483E594E01F
:102920000995109273040ACF1092B80434CFFC01B9
:1029300080819181009711F00C94931C089585E09B
:1029400096E00E9497148BE096E00E94971481E134
:1029500096E00E94971487E196E00C949714EF920A
:10296000FF920F931F93CF93DF93EC017B011982AA
:1029700018821B821A821D821C82FB01019000209A
:10298000E9F731978F01061B170BB8010E9440121F
:1029900028813981811113C02115310519F0C90130
:1029A0000E94931C198218821D821C821B821A822B
:1029B000DF91CF911F910F91FF90EF9008951D83AC
:1029C0000C83B701C901DF91CF911F910F91FF9047
:1029D000EF900C94E71D0F931F93CF93DF93E4EEDA
:1029E000F4E01382128288EE93E0A0E0B0E08483EA
:1029F0009583A683B78328E131E03183208325ECDA
:102A000030E03587248724EC30E03787268720ECB8
:102A100030E0318B208B21EC30E0338B228B22ECA9
:102A200030E0358B248B26EC30E0378B268B118EF3
:102A3000128E138E148EE1E8F5E0138212828483E5
:102A40009583A683B7838AE291E091838083EDE842
:102A5000F5E080E580831182EFE8F5E015821682CB
:102A60001186138682E090E0A0E0B0E0848795872D
:102A7000A687B78713A215A614A68CE391E093A7A7
:102A800082A717A6EDE1F6E013821282148615865E
:102A900017861686108A11E0118B88E491E09183E5
:102AA000808364E971E087E196E00E94AF1468E9F1
:102AB00071E081E196E00E94AF1460E671E08BE086
:102AC00096E00E94AF1460E671E085E096E00E9417
:102AD000AF14CEEDD5E0188302E010E01D8B0C8B17
:102AE00088EC90E09F8B8E8B188E198E1A8E84E660
:102AF00090E098A38F8F19A21AA21BA21CA21DA25C
:102B00001EA282E0898383E08A8384E08B830E9413
:102B1000BD036C837D838E839F83688779878A87D3
:102B20009B876C877D878E879F876B8F7C8F8D8F30
:102B30009E8F0E946303E8EDF5E08BE090E09183C7
:102B400080838AE090E09383828315830483DF91FE
:102B5000CF911F910F910895789484B5826084BDC0
:102B600084B5816084BD85B5826085BD85B5816091
:102B700085BD80916E00816080936E00109281000F
:102B800080918100826080938100809181008160CA
:102B9000809381008091800081608093800080918B
:102BA000B10084608093B1008091B0008160809317
:102BB000B00080917A00846080937A0080917A00DE
:102BC000826080937A0080917A00816080937A009D
:102BD00080917A00806880937A001092C1001092F0
:102BE0008204109281041092C1041092E3040E94A6
:102BF000290688E991E09093800480937F0489E915
:102C000091E090937E0480937D048CE08093B800E3
:102C1000E091F404F091F50482E08083E091F00407
:102C2000F091F1041082E091F204F091F3048FEC42
:102C300080831092FC04E091F804F091F90486E09E
:102C40008083E091F604F091F704808180618083B5
:102C5000E091F604F091F704808188608083E09130
:102C6000F604F091F704808180688083E091F60497
:102C7000F091F70480818F7D80836CEA71E084EEAF
:102C800094E00E942B10109230068CE380932F0664
:102C90001092210610922206E1EDF2E0E590F49008
:102CA000E3EDF2E01491E4EDF2E0E491E093230629
:102CB000E5EDF2E0E491E0932406E6EDF2E0E49144
:102CC000E0932506D0E0C0E0C11750F4F701EC0F07
:102CD000FD1F64918DE196E00E94E6032196F4CFFA
:102CE0000E945404EBEEF0E0F0932C06E0932B06E8
:102CF0008491ECEEF0E0E491F82F319709F05EC199
:102D00001092260681E0809304018093DE050E94E4
:102D1000630385E090E09093F3058093F2058AEFDA
:102D200090E09093FE058093FD050E94BD03AB01EA
:102D3000BC014093E2055093E3056093E405709372
:102D4000E5052091F2053091F3058091E60590911B
:102D5000E705A091E805B091E905820F931FA11D39
:102D6000B11D481759076A077B0708F459C08091BD
:102D7000DF050E94D0023091DE0521E038171906E8
:102D800009F020E0209300068091E0050E94D00227
:102D90002091DE0530E041E08217930709F040E022
:102DA00040930106E09100064091E2055091E30551
:102DB0006091E4057091E505E11128C0F0910306EA
:102DC000FF2321F18217930709F0FCC021E0C09195
:102DD000FD05D091FE058091F9059091FA05A0912D
:102DE000FB05B091FC058C0F9D1FA11DB11D48175F
:102DF00059076A077B0710F02093FF054093F905F8
:102E00005093FA056093FB057093FC05E09303066D
:102E10004093E6055093E7056093E8057093E90554
:102E20000E94BD036093E2057093E3058093E4057F
:102E30009093E5058091E1050E94D002FC0120916C
:102E4000DE0530E091E0E217F30709F090E090939F
:102E500002064091E2055091E3056091E40570910E
:102E6000E505A091F405B091F505C090EA05D09074
:102E7000EB05E090EC05F090ED05CA0EDB1EE11CC1
:102E8000F11C4C155D056E057F05F0F08091040680
:102E9000E217F30709F4EFC1882309F4F6C181E0D2
:102EA0008093F8054093EE055093EF056093F0058D
:102EB0007093F105909304064093EA055093EB0557
:102EC0006093EC057093ED0561E085E00E942703B7
:102ED00061E087E00E94270361E089E00E94270308
:102EE00060E085E00E94F90261E087E00E94F9025B
:102EF00060E089E00E94F90260EA71E084EE94E00B
:102F00000E942B1060EA71E08DE196E00E94FA0EBB
:102F100080E10E948003BC01990F880B990B0E94ED
:102F200063192AE038E240EA5BE30E94C21920E01C
:102F300030E040E85FE30E945C1987FF45C086E609
:102F400096E6A6E8B0E48093050190930601A0936D
:102F50000701B09308018AE999E9A9E3B0E48093F5
:102F6000090190930A01A0930B01B0930C0168EA48
:102F700071E081E196E00E94681263EB71E084EEFB
:102F800094E00E942B1060E087E00E94F90267EC59
:102F900071E084EE94E00E942B1061ED71E084EE0C
:102FA00094E00E942B100E943F100E941D128091FD
:102FB0000D01811156C00E949211F9CF81E08093DA
:102FC0002606A0CE22E003CF80E10E948003BC0150
:102FD000990F880B990B0E9463192AE038E240EAA6
:102FE0005BE30E94C21920E030E040E050E40E9420
:102FF0005C1987FF1BC086E696E6A6E6B0E48093E0
:10300000050190930601A0930701B093080180E0A9
:1030100090E0A0E2B0E48093090190930A01A093AC
:103020000B01B0930C0168E971E0A3CF83E393E354
:10303000A3E3B0E48093050190930601A0930701F8
:10304000B093080186E696E6A6EEBFE380930901F9
:1030500090930A01A0930B01B0930C016FEA71E009
:1030600088CF81E0809393046CED71E085E096E079
:103070000E9468126FED71E084EE94E00E942B10C4
:1030800061E087E00E94F90263EF71E084EE94E072
:103090000E942B10809193048823C9F161E085E0A0
:1030A0000E94F90260E089E00E94F9020E94011288
:1030B0000E943F100E941D120E946D118EE00E941E
:1030C0008003BC01990F880B990B0E9463192AE0B9
:1030D00038E240EA5BE30E94C21920910501309179
:1030E000060140910701509108010E94C51B181666
:1030F0002CF4109293040E943F10CCCF61E085E045
:103100000E94F90260E089E00E94F902F4CF6DEEBE
:1031100071E085E096E00E94681260E087E00E941E
:10312000F90260EF71E084EE94E00E942B10809130
:10313000930460E0811191C085E00E94F90261E092
:1031400089E00E94F9020E943F10C0908B04D09049
:103150008C04E0908D04F0908E0420918F043091C7
:1031600090044091910450919204C701B6010E94CD
:10317000C2199B01AC016091870470918804809111
:10318000890490918A040E94B81A6093870470930E
:1031900088048093890490938A04A7019601609122
:1031A00083047091840480918504909186040E9428
:1031B000B81A609383047093840480938504909379
:1031C00086040E946D118EE00E948003BC01990F5D
:1031D000880B990B0E9463192AE038E240EA5BE30E
:1031E0000E94C2192091090130910A0140910B01FE
:1031F00050910C010E945C1987FF20C00E94481169
:103200008EE00E948003BC01990F880B990B0E94ED
:1032100063192AE038E240EA5BE30E94C219209178
:10322000090130910A0140910B0150910C010E945B
:103230005C1987FF03C081E08093930460E085E020
:103240000E94F90261E089E00E94F9020E940112E5
:103250000E943F100E941D126ACF85E00E94F90271
:1032600060E087E00E94F90260E089E00E94F902D4
:103270000E944811FDCF81111DCE8091F805882351
:1032800009F418CE1092F80515CE8091F805882320
:1032900009F410CE0091EE051091EF052091F00594
:1032A0003091F10508511C4F2F4F3F4F0417150760
:1032B0002607370738F3FECD0E949E1908F481E0F7
:1032C0000895E89409C097FB3EF490958095709519
:1032D00061957F4F8F4F9F4F9923A9F0F92F96E962
:1032E000BB279395F695879577956795B795F111D7
:1032F000F8CFFAF4BB0F11F460FF1BC06F5F7F4F74
:103300008F4F9F4F16C0882311F096E911C0772385
:1033100021F09EE8872F762F05C0662371F096E88E
:10332000862F70E060E02AF09A95660F771F881F5D
:10333000DAF7880F9695879597F90895990F000801
:10334000550FAA0BE0E8FEEF16161706E807F90777
:10335000C0F012161306E407F50798F0621B730B12
:10336000840B950B39F40A2661F0232B242B252B93
:1033700021F408950A2609F4A140A6958FEF811D36
:10338000811D08950E94D5190C94461A0E94381A7E
:1033900038F00E943F1A20F0952311F00C942F1A58
:1033A0000C94351A11240C947A1A0E94571A70F34F
:1033B000959FC1F3950F50E0551F629FF001729FDA
:1033C000BB27F00DB11D639FAA27F00DB11DAA1FE9
:1033D000649F6627B00DA11D661F829F2227B00D36
:1033E000A11D621F739FB00DA11D621F839FA00DC1
:1033F000611D221F749F3327A00D611D231F849F11
:10340000600D211D822F762F6A2F11249F57504067
:103410009AF0F1F088234AF0EE0FFF1FBB1F661FE2
:10342000771F881F91505040A9F79E3F510580F0AB
:103430000C942F1A0C947A1A5F3FE4F3983ED4F35D
:10344000869577956795B795F795E7959F5FC1F74F
:10345000FE2B880F911D9695879597F9089597F9FA
:103460009F6780E870E060E008959FEF80EC08952A
:1034700000240A9416161706180609060895002453
:103480000A9412161306140605060895092E0394CD
:10349000000C11F4882352F0BB0F40F4BF2B11F441
:1034A00060FF04C06F5F7F4F8F4F9F4F089557FDA0
:1034B0009058440F551F59F05F3F71F04795880FA2
:1034C00097FB991F61F09F3F79F087950895121639
:1034D00013061406551FF2CF4695F1DF08C01616E5
:1034E00017061806991FF1CF869571056105089496
:1034F0000895E894BB2766277727CB0197F90895AD
:103500002F923F924F925F926F927F928F929F92F3
:10351000AF92BF92CF92DF92EF92FF920F931F93E1
:10352000CF93DF93CDB7DEB7CA1BDB0B0FB6F89492
:10353000DEBF0FBECDBF09942A88398848885F84D2
:103540006E847D848C849B84AA84B984C884DF8043
:10355000EE80FD800C811B81AA81B981CE0FD11D27
:103560000FB6F894DEBF0FBECDBFED0108955058E1
:10357000BB27AA270E94CF1A0C94461A0E94381A19
:1035800038F00E943F1A20F039F49F3F19F426F4D6
:103590000C94351A0EF4E095E7FB0C942F1AE92FE2
:1035A0000E94571A58F3BA176207730784079507E2
:1035B00020F079F4A6F50C94791A0EF4E0950B2E10
:1035C000BA2FA02D0B01B90190010C01CA01A00175
:1035D0001124FF27591B99F0593F50F4503E68F1D0
:1035E0001A16F040A22F232F342F4427585FF3CF11
:1035F000469537952795A795F0405395C9F77EF4E2
:103600001F16BA0B620B730B840BBAF09150A1F02A
:10361000FF0FBB1F661F771F881FC2F70EC0BA0FB0
:10362000621F731F841F48F4879577956795B79538
:10363000F7959E3F08F0B0CF9395880F08F0992733
:10364000EE0F9795879508950E94381B0C94461AA3
:103650000E943F1A58F00E94381A40F029F45F3F48
:1036600029F00C942F1A51110C947A1A0C94351AD3
:103670000E94571A68F39923B1F3552391F3951BD0
:10368000550BBB27AA2762177307840738F09F5F83
:103690005F4F220F331F441FAA1FA9F335D00E2EF0
:1036A0003AF0E0E832D091505040E695001CCAF75D
:1036B0002BD0FE2F29D0660F771F881FBB1F261720
:1036C00037074807AB07B0E809F0BB0B802DBF01F7
:1036D000FF2793585F4F3AF09E3F510578F00C94C6
:1036E0002F1A0C947A1A5F3FE4F3983ED4F3869530
:1036F00077956795B795F7959F5FC9F7880F911DE7
:103700009695879597F90895E1E0660F771F881FD2
:10371000BB1F621773078407BA0720F0621B730B85
:10372000840BBA0BEE1F88F7E09508950E945F1A8C
:1037300088F09F5798F0B92F9927B751B0F0E1F072
:10374000660F771F881F991F1AF0BA95C9F714C022
:10375000B13091F00E94791AB1E008950C94791A71
:10376000672F782F8827B85F39F0B93FCCF386955B
:1037700077956795B395D9F73EF4909580957095B8
:1037800061957F4F8F4F9F4F08950E949E1908F4B7
:103790008FEF08950E949E19880B990B0895A1E25E
:1037A0001A2EAA1BBB1BFD010DC0AA1FBB1FEE1FBB
:1037B000FF1FA217B307E407F50720F0A21BB30B06
:1037C000E40BF50B661F771F881F991F1A9469F782
:1037D00060957095809590959B01AC01BD01CF01DE
:1037E0000895EE0FFF1F0590F491E02D09940F93BB
:1037F0001F93CF93DF938230910510F482E090E025
:10380000E0913306F091340630E020E0B0E0A0E033
:10381000309799F42115310509F44AC0281B390B5A
:1038200024303105D8F58A819B816115710589F1B4
:10383000FB0193838283FE0111C04081518102818B
:10384000138148175907E0F04817590799F4109762
:1038500061F012960C93129713961C933296CF0137
:10386000DF91CF911F910F9108950093330610932C
:103870003406F4CF2115310551F04217530738F0C3
:10388000A901DB019A01BD01DF01F801C1CFEF0100
:10389000F9CF9093340680933306CDCFFE01E20F2B
:1038A000F31F819391932250310939832883D7CF15
:1038B0002091310630913206232B41F420911001E2
:1038C00030911101309332062093310620910E0180
:1038D00030910F012115310541F42DB73EB74091CC
:1038E000120150911301241B350BE0913106F09128
:1038F0003206E217F307A0F42E1B3F0B28173907F7
:1039000078F0AC014E5F5F4F2417350748F04E0F3B
:103910005F1F5093320640933106819391939FCF5E
:10392000F0E0E0E09CCFCF93DF930097E9F0FC015B
:10393000329713821282A0913306B0913406ED01C2
:1039400030E020E01097A1F420813181820F931F95
:1039500020913106309132062817390709F061C0ED
:10396000F0933206E0933106DF91CF910895EA019A
:10397000CE17DF07E8F54A815B819E0141155105AD
:10398000B1F7E901FB83EA8349915991C40FD51F2F
:10399000EC17FD0761F4808191810296840F951FD9
:1039A000E90199838883828193819B838A83F0E0F4
:1039B000E0E012968D919C9113970097B9F52D91A7
:1039C0003C911197CD010296820F931F20913106F1
:1039D000309132062817390739F6309751F5109291
:1039E000340610923306B0933206A0933106BCCF52
:1039F000D383C28340815181840F951FC817D90793
:103A000061F44E5F5F4F88819981480F591F518340
:103A100040838A819B81938382832115310509F03C
:103A2000B0CFF0933406E09333069ECFFD01DC0166
:103A3000C0CF13821282D7CFB0E0A0E0E2E2FDE176
:103A40000C94821A8C01009751F4CB010E94F71B51
:103A50008C01C801CDB7DEB7E0E10C949E1AFC01E1
:103A6000E60FF71F9C0122503109E217F30708F413
:103A70009DC0D901CD91DC911197C617D70798F059
:103A8000C530D10530F3CE0104978617970708F3A8
:103A9000C61BD70B2297C193D1936D937C93CF0113
:103AA0000E94931CD6CF5B01AC1ABD0A4C018C0E50
:103AB0009D1EA0913306B0913406512C412CF12C5F
:103AC000E12C109731F580913106909132068815DE
:103AD000990509F05CC04616570608F058C0809159
:103AE0000E0190910F01009741F48DB79EB7409160
:103AF000120150911301841B950BE817F90708F088
:103B000055C0F0933206E0933106F901718360836A
:103B1000A0CF8D919C91119712966C90129713964D
:103B20007C901397A815B90559F56C0142E0C40EB5
:103B3000D11CCA14DB0420F1AC014A195B09DA017B
:103B40001296159780F06282738251834083D90167
:103B50006D937C93E114F10471F0D7011396FC93FB
:103B6000EE93129776CF22968C0F9D1FF9019183C9
:103B70008083F301EFCFF0933406E093330669CFEF
:103B80004816590608F42C017D01D3019ACFCB01C8
:103B90000E94F71B7C01009749F0AE01B8010E941A
:103BA000DE1DC8010E94931C870153CF10E000E086
:103BB00050CF81E090E0F8940C94EE1DFB01DC0105
:103BC00002C001900D9241505040D8F70895FB017A
:103BD000DC0101900D920020E1F7089511E0CDE69F
:103BE000D1E004C0FE010E94F11B2196CE36D10720
:063BF000C9F7F894FFCFB5
:103BF600FFFFFFFF01333363400000004001000078
:103C060035068000000000003A029A01C7018702CB
:103C1600F801D601EA0100000000A6077907F50EB3
:103C26004F0772075F07500700000000460D9A0114
:103C3600EC0CF40E000000006F049A01F50EF40E71
:103C4600BB0E6E616E00696E66006F7666000D0AC9
:103C56000020563A0020493A005768200041680083
:103C66002D005061757365640073746172747061C0
:103C76007573652066756E6374696F6E2063616C1B
:103C86006C656400585858004C69466550303400DD
:103C9600626F6F74696E67004C692D696F6E004CB8
:103CA600544F00766F6C7461676520747970652077
:103CB60069732073657400736574757020656E642E
:103CC600006C6F6F7020626567696E004331007427
:103CD60075726E206F6E2044432D444300443100BC
:103CE600646973636861726765726F7574696E671C
:0A3CF600206C61756E636865640060
:00000001FF
