:020000040000FA
:100000000C946E010C9496010C9496010C9496013C
:100010000C9496010C9496010C9496010C94960104
:100020000C9496010C9496010C9496010C949601F4
:100030000C9496010C9496010C9496010C949601E4
:100040000C946D140C9496010C943B140C941514A0
:100050000C9496010C9496010C9496010C949601C4
:100060000C94B7140C949601AED580A81FD3004011
:100070008D142002A1C8DA02817FD9F1DB40A4A649
:10008000AF00030C0F30333C3FC0C3CCCFF0F3FCC8
:10009000FF00000000240027002A000000000025C7
:1000A0000028002B00000000002300260029000487
:1000B000040404040404040202020202020303030F
:1000C0000303030102040810204080010204081009
:1000D00020010204081020000000080002010000B6
:1000E00003040700000000000000000000050720D6
:1000F00060000000000000005F0000000700070033
:10010000147F147F14242A7F2A1223130864623672
:10011000495620500008070300001C2241000041FE
:10012000221C002A1C7F1C2A08083E080800807038
:10013000300008080808080000606000201008046B
:10014000023E5149453E00427F40007249494946BE
:100150002141494D331814127F1027454545393C3C
:100160004A49493141211109073649494936464929
:1001700049291E000014000000403400000008144B
:1001800022411414141414004122140802015909C4
:10019000063E415D594E7C1211127C7F4949493619
:1001A0003E414141227F4141413E7F494949417F92
:1001B000090909013E414151737F0808087F004148
:1001C0007F41002040413F017F081422417F404091
:1001D00040407F021C027F7F0408107F3E41414166
:1001E0003E7F090909063E4151215E7F09192946D2
:1001F000264949493203017F01033F4040403F1FE8
:100200002040201F3F4038403F631408146303041C
:100210007804036159494D43007F4141410204087C
:100220001020004141417F0402010204404040404F
:1002300040000307080020545478407F2844443885
:100240003844444428384444287F385454541800CF
:10025000087E090218A4A49C787F0804047800444E
:100260007D40002040403D007F1028440000417F39
:1002700040007C047804787C0804047838444444C2
:1002800038FC1824241818242418FC7C08040408BA
:10029000485454542404043F44243C4040207C1CD3
:1002A0002040201C3C4030403C44281028444C90C6
:1002B00090907C4464544C44000836410000007720
:1002C0000000004136080002010204023C262326F9
:1002D0003C680019802000002A16DE1511241FBE7C
:1002E000CFEFD8E0DEBFCDBF12E0A0E0B1E0EAE2A0
:1002F000FFE302C005900D92AE31B107D9F726E0B9
:10030000AEE1B2E001C01D92AA34B207E1F711E0FC
:10031000CDE6D1E004C02197FE010E948B1DCC36B2
:10032000D107C9F70E94EB160C94881F0C940000AB
:1003300008950895AF92BF92CF92DF92EF92FF920D
:100340000F931F93CF93DF936C017B018B01040FFD
:10035000151FEB015E01AE18BF08C017D10759F099
:100360006991D601ED91FC910190F081E02DC601DB
:100370000995892B79F7C501DF91CF911F910F91D5
:10038000FF90EF90DF90CF90BF90AF900895FC0169
:10039000538D448D252F30E0842F90E0821B930BEA
:1003A000541710F0CF96089501970895FC01918D90
:1003B000828D981761F0A28DAE0FBF2FB11D5D9693
:1003C0008C91928D9F5F9F73928F90E008958FEF35
:1003D0009FEF0895FC01918D828D981731F0828DE9
:1003E000E80FF11D858D90E008958FEF9FEF089540
:1003F000FC01918D228D892F90E0805C9F4F821BA4
:1004000091098F739927089589EF94E00E94F8016C
:1004100021E0892B09F420E0822F089580E090E00C
:10042000892B29F00E94040281110C940000089588
:10043000FC01A48DA80FB92FB11DA35ABF4F2C9159
:10044000848D90E001968F739927848FA689B78950
:100450002C93A089B1898C91837080648C93938D47
:10046000848D981306C00288F389E02D80818F7DEA
:1004700080830895EF92FF920F931F93CF93DF93A2
:10048000EC0181E0888F9B8D8C8D98131AC0E889D0
:10049000F989808185FF15C09FB7F894EE89FF899F
:1004A0006083E889F98980818370806480839FBF3D
:1004B00081E090E0DF91CF911F910F91FF90EF903D
:1004C0000895F62E0B8D10E00F5F1F4F0F7311274D
:1004D000E02E8C8D8E110CC00FB607FCFACFE88988
:1004E000F989808185FFF5CFCE010E941802F1CFF6
:1004F000EB8DEC0FFD2FF11DE35AFF4FF0829FB7FC
:10050000F8940B8FEA89FB8980818062CFCFCF93EB
:10051000DF93EC01888D8823B9F0AA89BB89E8892B
:10052000F9898C9185FD03C0808186FD0DC00FB6D1
:1005300007FCF7CF8C9185FFF2CF808185FFEDCF4F
:10054000CE010E941802E9CFDF91CF910895833048
:1005500081F028F4813099F08230A9F00895873035
:10056000A9F08830C9F08430B1F4809180008F7D8B
:1005700003C0809180008F7780938000089584B5B8
:100580008F7784BD089584B58F7DFBCF8091B000B7
:100590008F778093B00008958091B0008F7DF9CF60
:1005A000CF93DF93282F30E0F901E952FF4F849178
:1005B000F901ED53FF4FD491F901E155FF4FC4917B
:1005C000CC23A1F081110E94A702EC2FF0E0EE0FE6
:1005D000FF1FEB55FF4FA591B491EC91ED2381E006
:1005E00090E009F480E0DF91CF91089580E090E001
:1005F000FACF1F93CF93DF93282F30E0F901E95210
:10060000FF4F8491F901ED53FF4FD491F901E1556A
:10061000FF4FC491CC23A9F0162F81110E94A7028D
:10062000EC2FF0E0EE0FFF1FE556FF4FA591B491C0
:100630008FB7F894EC91111108C0D095DE23DC93AC
:100640008FBFDF91CF911F910895DE2BF8CFCF930D
:10065000DF9390E0FC01ED53FF4F249181559F4FB4
:10066000FC0184918823C9F090E0880F991FFC0158
:10067000EF56FF4FA591B491FC01E556FF4FC59190
:10068000D49161110DC09FB7F8948C91209582236D
:100690008C938881282328839FBFDF91CF91089571
:1006A000623051F49FB7F8943C91822F8095832358
:1006B0008C93E8812E2BEFCF8FB7F894EC912E2BF3
:1006C0002C938FBFEACF8091F4059091F305913080
:1006D00069F462E00E94270362E08091F5050E94C0
:1006E000270362E08091F6050C94270360E00E94E6
:1006F000270360E08091F5050E94270360E0F2CFB8
:100700001F93CF93DF93182FEB0161E00E94270323
:10071000209739F460E0812FDF91CF911F910C94E5
:10072000F902CF3FD10511F461E0F5CFE12FF0E000
:10073000E952FF4FE491E33031F140F4E130B1F0A0
:10074000E230E1F0C038D1057CF7E4CFE73029F1A1
:10075000E83059F1E430B1F78091800080628093F5
:100760008000D0938B00C0938A0004C084B5806859
:1007700084BDC7BDDF91CF911F91089584B580627C
:1007800084BDC8BDF7CF80918000806880938000D1
:10079000D0938900C0938800EDCF8091B00080682D
:1007A0008093B000C093B300E5CF8091B000806229
:1007B0008093B000C093B400DDCF2091040190E499
:1007C000299F900111248E50822B80937C00809170
:1007D0007A00806480937A0080917A0086FDFCCF55
:1007E000809178009091790008953FB7F8948091B6
:1007F0008D0490918E04A0918F04B091900426B541
:10080000A89B05C02F3F19F00196A11DB11D3FBF48
:10081000BA2FA92F982F8827BC01CD01620F711D17
:10082000811D911D42E0660F771F881F991F4A9511
:10083000D1F708952FB7F8946091890470918A04D4
:1008400080918B0490918C042FBF0895CF93DF93F8
:10085000EC018D85882329F081508D87DF91CF9120
:1008600008959C818E819817C8F788896827E88148
:10087000F9810084F185E02D42E0CE0109958C815B
:100880008F5F8C83EBCFDC01ED91FC910084F185CF
:10089000E02D40E00994FC012781269526952695B8
:1008A000621738F465832385620F6770606B0C9460
:1008B000430408950F931F93CF93FC012681621781
:1008C00098F4C62F8C0164836085C60F6C2F6F70FF
:1008D0000E9443046C2F62956F706061C801CF91D4
:1008E0001F910F910C944304CF911F910F91089584
:1008F000CF92DF92EF92FF920F931F93CF93DF93EC
:10090000EC01F62EC42ED22E1D868F8186958695FB
:100910008695081710F00FEF080F1D2D6F2DCE01D3
:10092000011788F00E945A04612FCE010E944B04E7
:10093000EF2CCE1430F06889CE010E942604E39497
:10094000F8CF1F5FEBCF0E945A046D2DCE01DF91CF
:10095000CF911F910F91FF90EF90DF90CF900C946B
:100960004B040F93CF93DF93C2E3D6E01B861A8626
:1009700060E4CE010E9443040F810695069506951A
:1009800001504E81415020E060E0CE010E94780489
:10099000DF91CF910F9108952F923F924F925F92E6
:1009A0006F927F928F929F92AF92BF92CF92DF927F
:1009B000EF92FF920F931F93CF93DF9300D000D05D
:1009C00000D0CDB7DEB7DC011E962D913C912115EC
:1009D000310509F459C19E838D83F90132966490E3
:1009E00031964491E42EF12CB7E0EB0EF11C53E06C
:1009F000F594E7945A95E1F7E9823196549131964E
:100A0000E491651748F08E2F90E0FC01E50FF11D91
:100A10006E171F060CF46EC06D3041F460E08D81DE
:100A20009E810E945A0481E090E030C16A3009F052
:100A30002BC160E08D819E810E945A04ED81FE8170
:100A400001890E9DE02C112465816E0D848588231B
:100A500049F027812695269526958E2D821B860F97
:100A600018162CF08D819E810E944B04DCCFAD8145
:100A7000BE811B969C911B97890F87701B968C9348
:100A80001B972E1915962C9315971E96ED91FC9198
:100A9000309771F13396E491F0E0379633E0F595B5
:100AA000E7953A95E1F70E9F002D1124EFEFE20F45
:100AB0000E0FED81FE81468141506481CF010E947D
:100AC0007804AD81BE811C968C911C97813009F011
:100AD000AACF1B966C911B97660F660F660F6F73FC
:100AE0001A966C931A976064CD010E9443049BCFC1
:100AF00000E0DCCF89010A5F1F4F651BED81FE819D
:100B000071855189759F502D11245C83F901549191
:100B10002F5F3F4FF9012491352F2230310508F026
:100B200075C06E9CC0016F9C900D1124689FF001F0
:100B3000699FF00D11240E0F1F1F512CAD81BE8136
:100B40001496BC91BA83ED81FE812580F585FB83E7
:100B5000862C912CAA24A394B12C312C898138168F
:100B600008F090C0412CAD81BE8151968C91519777
:100B7000481608F080C0EB811D96EC93311002C03E
:100B8000442079F0AD81BE811596DC901597D39401
:100B90006A81CD010E945A046D2D8D819E810E9433
:100BA0004B04D12CC12CC61408F058C0F801EC0D30
:100BB000FD1D7490552061F0EA14FB0449F4E72D03
:100BC000F0E0052C02C0F595E7950A94E2F77E2E39
:100BD000ED81FE818189823081F4442009F43AC09C
:100BE00072948FE07822E72DF0E0EF57FF4F74907A
:100BF000672D8D819E810E942604672D8D819E81A7
:100C00000E9426048FEFC81AD80ACDCF477028E07B
:100C1000522E541A411101C0512CF801612C30E0C0
:100C200020E0661631F04491240F311D6394319613
:100C3000F8CF600E712E711CF3016490E29EF001FA
:100C4000E39EF00DF29EF00D11248E0F9F1F080FF2
:100C5000191F74CFF72DFF707F2EC5CFD12CAC811B
:100C6000DA1639F060E08D819E810E942604D394CB
:100C7000F6CF439478CF3394080D191DBFEFAB1A0C
:100C8000BB0A6CCF622DEECE90E080E026960FB6C8
:100C9000F894DEBF0FBECDBFDF91CF911F910F91B2
:100CA000FF90EF90DF90CF90BF90AF909F908F908C
:100CB0007F906F905F904F903F902F90089520917C
:100CC0006504260F3327331F21323105ECF42091C0
:100CD000CF04FC0190E080E0243069F082E00895C8
:100CE000A09165042191AC014B5B5B4FA40FB52F24
:100CF000B11D2C930196861798F380916504680FB7
:100D00006093650480E0089581E008951092CF0417
:100D100081E08093CE041092A90461E082E10E94F8
:100D2000F90261E083E10E94F902E9EBF0E08081E1
:100D30008E7F808380818D7F808388E48093B8005C
:100D400085E48093BC000895CF93DF9391E0909366
:100D500044048823B9F0C091B800D091BA008091C2
:100D6000BC008A7B8093BC0060E082E10E94F902B3
:100D700060E083E10E94F9020E948606D093BA00E7
:100D8000C093B800DF91CF910895CF92DF92EF9298
:100D9000FF920F931F93CF93DF93D091F80481E0DC
:100DA000D13208F09CC0C091F7040E94F5036B019A
:100DB0007C018091CF0481116CC082E08093CF04CC
:100DC00081E08093CE048FEF8093CD041092CC0409
:100DD000D093CB04A7EDB4E0EBEAF4E080E0D813C5
:100DE0008DC01092AA048091AA04CC0FC82BC09386
:100DF000AA048091A904813009F084C01092A9044A
:100E00000E94F5036B017C018091AA048093BB00D2
:100E10008091D1049091D204A091D304B091D404D4
:100E2000892B8A2B8B2BA1F00E94F5030091D10412
:100E30001091D2042091D3043091D4046C197D090F
:100E40008E099F09061717072807390708F442C0BB
:100E50008091BC0083FDD8CF85EC8093BC000E94BC
:100E6000F5036B017C018091CF04823009F44CC002
:100E70008091CD048F3F09F469C08091CD04803208
:100E800009F466C08091CD04803309F463C084E026
:100E900026C08091D1049091D204A091D304B09146
:100EA000D404892B8A2B8B2B09F483CF0E94F50362
:100EB0000091D1041091D2042091D3043091D40434
:100EC0006C197D098E099F0906171707280739072E
:100ED00008F06FCF8091D0040E94A40685E01092A4
:100EE000D6041092F8041092D504DF91CF911F918F
:100EF0000F91FF90EF90DF90CF9008959D91919387
:100F00008F5F6DCF85EEA9CF8091D1049091D204EF
:100F1000A091D304B091D404892B8A2B8B2B09F494
:100F2000A2CF0E94F5030091D1041091D204209128
:100F3000D3043091D4046C197D098E099F090617DA
:100F400017072807390708F08ECFC4CF80E0C7CF36
:100F500082E0C5CF83E0C3CF0895E09196048091ED
:100F60009504E81730F4F0E0EC5DFB4F808190E0F1
:100F700008958FEF9FEF08959091960480919504C6
:100F80002FEF3FEF981748F4E92FF0E0EC5DFB4FAF
:100F9000208130E09F5F90939604C901089580916D
:100FA000950490919604891B990B0895CF92DF9236
:100FB000EF92FF920F931F93CF93DF937C01CB01AE
:100FC0008A012091D504222389F0EB016B01C40E24
:100FD000D51ECC15DD0569F06991D701ED91FC9125
:100FE0000190F081E02DC7010995F3CF642F0E9495
:100FF0005F06C801DF91CF911F910F91FF90EF9095
:10100000DF90CF900895CF93DF931F92CDB7DEB7D7
:1010100069832091D5042223F9F02091F80420322D
:1010200058F021E030E0FC013383228390E080E03F
:101030000F90DF91CF9108958091D604E82FF0E0D2
:10104000E952FB4F998190838F5F8093D604809300
:10105000F80481E090E0ECCF61E0CE0101960E94BF
:101060005F06F7CF20911E02211109C021E02093D5
:101070001E023091A2052091A3053CBD2DBD60E06C
:10108000FC0184810C94F90261E0FC0184810E94DE
:10109000F90280911E02811110921E0208958EBDE8
:1010A00000000DB407FEFDCF8EB508958FEF0C94B0
:1010B0004F080F931F93CF93DF93EC010E941A0404
:1010C0008B010E9456088F3F69F00E941A04601B32
:1010D000710B6C177D07A8F380E0DF91CF911F9112
:1010E0000F91089581E0F9CFCF92DF92EF92FF92B6
:1010F0000F931F93CF93DF93EC01162F69017A01B1
:101100008E81882389F08F8198859C012F5F3F4FC6
:1011100038872F838230924018F40E945608F3CF0C
:10112000CE010E9444081E82CE010E9432088CE249
:1011300091E00E945908812F80640E944F0808E1C5
:1011400010E0D701C601002E04C0B695A79597956B
:1011500087950A94D2F70E944F0808501109083F5A
:101160008FEF180771F78FEF0E944F0810E00E9471
:1011700056088A8787FF04C01F3F11F01F5FF7CF13
:10118000DF91CF911F910F91FF90EF90DF90CF9063
:101190000895CF92DF92EF92FF920F93CF93DF9358
:1011A000EC01690182E1411551056105710599F074
:1011B0008B85833039F089E0440F551F661F771FF8
:1011C0008A95D1F79A01AB0168E1CE010E947408BB
:1011D000882319F084E08D832DC08EEF0E944F0884
:1011E00076018EEFD81AF70181917F010E944F0896
:1011F000EC14FD04C1F78FEF0E944F088FEF0E949F
:101200004F080E9456088A878F71853071F401114A
:1012100016C0CE010E94440881E0DF91CF910F916A
:10122000FF90EF90DF90CF90089581E18D83CE0104
:101230000E944408CE010E94440880E0EECF88E579
:1012400092E00E945908811102C085E1C4CF20E0DC
:1012500030E0A9016DE0CE010E947408882311F0EE
:1012600084E1B9CF0E9456088111FACFD2CF0F93F3
:10127000409120025091210260912202709123023C
:10128000411551056105710589F0082F24E232E00E
:1012900090E080E00E94C908882349F01092200263
:1012A00010922102109222021092230281E00F91EB
:1012B00008950F93CF93C82F80911F02811105C00D
:1012C000C1E08C2FCF910F91089540910001509172
:1012D000010160910201709103010C2F24E232E0C0
:1012E00090E080E00E94C908811102C0C0E0E9CF0F
:1012F000CC2331F381E00E9437098823B9F310929F
:101300001F02DFCFAF92BF92CF92DF92EF92FF9298
:101310001F93CF93DF936B017C01142F8091000109
:1013200090910101A0910201B09103018C159D05DE
:10133000AE05BF0509F4ADC081E00E9459098823BC
:10134000E1F1809106008823A1F080910000909146
:101350000100A0910200B0910300C816D906EA0668
:10136000FB0639F48091070090910800892B09F45D
:101370004FC0C0920000D0920100E0920200F092B3
:10138000030080910B00A7019601833039F099E0AA
:10139000220F331F441F551F9A95D1F761E190E04A
:1013A00080E00E947408882391F083E08093050018
:1013B00090E080E00E94440880E0DF91CF911F918F
:1013C000FF90EF90DF90CF90BF90AF9008950E9474
:1013D0001A04EB010E94560880930A008F3F79F4AB
:1013E0000E941A046C1B7D0B6D32714098F38FE0E4
:1013F0008093050090E080E00E944408D9CF8E3FA2
:10140000C1F5109208001092070081E08093060059
:10141000C4E2D2E084E2A82E84E0B82E0E945608EE
:101420008993AC16BD06D1F7809107009091080012
:101430009E5F90930800809307002091090022236B
:1014400019F081159240E8F0809106008823C9F0D8
:1014500080910700909108009C012F5F3F4F3093CF
:101460000800209307008230924028F40E9456081A
:10147000EFCF8DE0BDCF90E080E00E944408109255
:101480000600C0920001D0920101E0920201F092A8
:10149000030140911F02412B40931F0281E08DCF39
:1014A0004F925F926F927F928F929F92AF92BF9274
:1014B000CF92DF92EF92FF920F931F93CF93DF9320
:1014C000EC01423051056105710590F480E0DF9137
:1014D000CF911F910F91FF90EF90DF90CF90BF9031
:1014E000AF909F908F907F906F905F904F900895F6
:1014F00089859A85AB85BC850196A11DB11D841790
:101500009507A607B70710F3CB88DC88ED88FE881F
:101510008F89803109F042C0BB27A72F962F852FD6
:10152000480159012A013B01C80ED91EEA1EFB1EC3
:101530008091000190910101A0910201B0910301FD
:10154000C816D906EA06FB0699F58F898031C1F5E0
:10155000B301A201552766277727440F551F4C5D1D
:101560005D4FFA019182808280911F028160809399
:101570001F028A89823080F08D819E81AF81B8857B
:101580008C0D9D1DAE1DBF1D8093200290932102E6
:10159000A0932202B093230281E099CFDB01CA011C
:1015A000E7E0B695A79597958795EA95D1F7B8CFD7
:1015B00040E0C701B6010E9482098111C6CF86CFE3
:1015C000B301A2014F77552766277727440F551F90
:1015D000440F551F4C5D5D4FFA0180829182A282BB
:1015E000B382C2CF8F929F92AF92BF92CF92DF927F
:1015F000EF92FF920F931F93CF93DF93FC018185AE
:101600009285A385B4850196A11DB11D8417950708
:10161000A607B70770F480E0DF91CF911F910F917B
:10162000FF90EF90DF90CF90BF90AF909F908F9002
:10163000089583889488A588B6888789803189F53C
:10164000BB27A72F962F852FE9016A017B018F0108
:10165000BC01CD01680D791D8A1D9B1D8090000184
:1016600090900101A0900201B090030186169706A8
:10167000A806B90601F5F8018789803111F5DD2446
:10168000EE24FF24F601EE0FFF1FEC5DFD4F80817D
:101690009181B0E0A0E088839983AA83BB8381E035
:1016A000BBCFDB01CA01C7E0B695A7959795879593
:1016B000CA95D1F7C9CF40E00E9482098111DBCFE2
:1016C000AACFE894C7F8DD24EE24FF24F601EE0F3C
:1016D000FF1FEE0FFF1FEC5DFD4F80819181A28106
:1016E000B381BF70D8CF8F929F92AF92BF92CF92AB
:1016F000DF92EF92FF920F931F93CF93DF93EC0152
:101700008D8181110EC080E0DF91CF911F910F91EB
:10171000FF90EF90DF90CF90BF90AF909F908F9011
:1017200008950B891C892D893E8904171507260702
:10173000370748F34A015B01823031F48A869B8681
:10174000AC86BD8681E0E0CF81149104A104B10490
:1017500049F41E821F82188619861A861B861C86EB
:101760001D86F0CF0A851B852C853D85EB8DFC8D74
:10177000858590E00996B901A80141505109610998
:101780007109082E04C076956795579547950A9478
:10179000D2F775016401E1E0CE1AD108E108F10841
:1017A00004C0F694E794D794C7948A95D2F7C416E8
:1017B000D506E606F70620F0012B022B032B11F5C8
:1017C0008F89988DA98DBA8D8E839F83A887B987BD
:1017D0008E010A5F1F4FC114D104E104F10409F422
:1017E000ADCF4E815F816885798598018B8D9C8D09
:1017F0000E94F20A91E0C91AD108E108F1088111AA
:10180000EACF81CFC41AD50AE60AF70AE1CF3F92A0
:101810004F925F926F927F928F929F92AF92BF9200
:10182000CF92DF92EF92FF920F931F93CF93DF93AC
:10183000CDB7DEB72C970FB6F894DEBF0FBECDBF85
:101840005C01DC015B968D909C905C9716964D90A8
:101850005D906D907C90199741145104610471045E
:1018600009F468C0BFEF4B1A5B0A6B0A7B0A312C84
:10187000F40181859285A385B4859C01AD012F5F1C
:101880003F4F4F4F5F4F29873A874B875C877301E4
:1018900062011D821E821F821886F4018185928555
:1018A000A385B4852D813E814F815885281739073E
:1018B0004A075B0708F056C089859A85AB85BC85C9
:1018C0008C159D05AE05BF0550F482E0C82ED12CC5
:1018D000E12CF12C92E0492E512C612C712C9E01AF
:1018E0002F5F3F4FB701A601C4010E94F20A88236F
:1018F000C9F189819A81AB81BC81892B8A2B8B2B81
:1019000009F1260137019FEF491A590A690A790A34
:101910002D813E814F8158852F5F3F4F4F4F5F4F45
:101920002D833E834F8358873FEFC31AD30AE30AC0
:10193000F30AB3CFF4014080518062807380332476
:10194000339496CFC414D504E604F70409F70FEFD7
:101950001FEF2FEF3FE0B701A601C4010E94500A1C
:10196000811119C080E02C960FB6F894DEBF0FBE2F
:10197000CDBFDF91CF911F910F91FF90EF90DF903E
:10198000CF90BF90AF909F908F907F906F905F901F
:101990004F903F900895D50116964D915D916D91B0
:1019A0007C911997411551056105710539F0970131
:1019B0008601C4010E94500A8823A1F2D50116961F
:1019C000CD92DD92ED92FC921997332051F0D70120
:1019D000C6010196A11DB11DF40180839183A283EC
:1019E000B383F5018789908DA18DB28D892B8A2BC8
:1019F0008B2B39F48481C78AD08EE18EF28E806879
:101A00008483F50184818062848381E0ACCF1F935D
:101A1000CF93DF93EC01162F8C8187FF2AC06E8550
:101A20007F858889998941E00E948209882361F134
:101A3000EA8980E2E89FF0011124EC5DFD4F3097C8
:101A400019F18D81823040F48B899C89AD89BE89E2
:101A5000848F958FA68FB78F8F89988D938F828F64
:101A60008F89988DA98DBA8DB58BA48B8C818F773A
:101A70008C83111103C08C818F7E8C83812FDF9129
:101A8000CF911F910C94590980E0DF91CF911F9164
:101A900008951F93CF93DF93EC018D81813031F056
:101AA00090E080E0DF91CF911F9108958C8181FFBC
:101AB000F7CF82FD1BC090E080E00E9432080E94B8
:101AC0005608182F90E080E00E9444081F3F41F71D
:101AD0008C8185FF1EC08D81882321F060E0CE01BE
:101AE0000E94070D8C818F7D8C83DACF4B895C89B6
:101AF0006D897E898A859B85AC85BD858417950710
:101B0000A607B707C1F2CE010E94730B8111D3CF94
:101B1000C7CF409120025091210260912202709122
:101B20002302452B462B472B21F080E00E943709EA
:101B3000B7CF80618C832A853B85317080E092E04D
:101B4000821B930BAFCF9F92AF92BF92CF92DF9247
:101B5000EF92FF920F931F93CF93DF9300D000D0AB
:101B60001F92CDB7DEB78C016D83DC0115968C9189
:101B70001597813009F0B9C014968C9181FFB5C0DA
:101B800082FD9FC0D8015B96ED91FC915C971A96FF
:101B9000AD90BD90CD90DC901D9794809A94B60145
:101BA000A50189E076956795579547958A95D1F770
:101BB0009422B1E0BB22992009F49FC0D8015B9622
:101BC000ED91FC915C971696CD90DD90ED90FC9098
:101BD0001997B2E0CB1AD108E108F108858504C055
:101BE000CC0CDD1CEE1CFF1C8A95D2F74685578570
:101BF00060897189C40ED51EE61EF71EC90CD11C62
:101C0000E11CF11CA114B10409F00AC1F8014285DC
:101C100053856485758583899489A589B689481714
:101C200059076A077B0708F4FBC081E00E94590945
:101C3000882309F45AC0C0920001D0920101E092B9
:101C40000201F092030180911F02816080931F02C4
:101C5000F501EC5DFD4F8D818083F80182859385D0
:101C6000A485B5850196A11DB11D82879387A487A0
:101C7000B5874389548965897689481759076A0762
:101C80007B0738F42481838B948BA58BB68B2068DB
:101C90002483D80114968C9183FD9FC081E090E04D
:101CA0000F900F900F900F900F90DF91CF911F9199
:101CB0000F91FF90EF90DF90CF90BF90AF909F90EB
:101CC0000895F801438954896589768982859385C9
:101CD000A485B585481759076A077B0709F452CFD1
:101CE000C8010E94730B81114DCF81E090E0D801B3
:101CF00013969C938E93129749C0D80116964D91D6
:101D00005D916D917C911997A114B10409F071C096
:101D1000411551056105710589F557968D919D9184
:101D20000D90BC91A02D0097A105B10509F04FC001
:101D3000C8010E94070C8823C1F2D8015B96ED917F
:101D4000FC915C971696CD90DD90ED90FC901997E4
:101D5000B2E0CB1AD108E108F108858504C0CC0CAB
:101D6000DD1CEE1CFF1C8A95D2F7468557856089DD
:101D70007189C40ED51EE61EF71E48CF9E012F5F47
:101D80003F4FCF010E94F20A811103C090E080E032
:101D900087CF89819A81AB81BC81F801238D348DF5
:101DA000F901278948EF5FEF60E070E0203121F012
:101DB00048EF5FEF6FEF7FE084179507A607B7073F
:101DC00030F0C8010E94070C8111F8CE8ECFF801C7
:101DD00086839783A087B187F1CEF8018581882318
:101DE00009F483CF61E0C8010E94070D811156CF2D
:101DF0007CCF6A017B01B2E0CB1AD108E108F1087F
:101E0000858504C0CC0CDD1CEE1CFF1C8A95D2F726
:101E10004685578560897189C40ED51EE61EF71E5A
:101E200041E0C701B6010E948209811111CF5DCF47
:101E30000F931F93CF93DF93EC01062F142F8B8901
:101E4000813120F4882329F0411103C00E94C50686
:101E50001B8A8B89811112C08A8991E09093D504E5
:101E60008093F7041092D6041092F80460E41111E4
:101E700001C060E086E995E00E940308602F86E9D2
:101E800095E00E940308123041F48B898F5F8B8BA1
:101E9000DF91CF911F910F9108950E94C5061B8A73
:101EA000F7CF089590E080E008950E94731FFB0132
:101EB00001900020E9F73197AF01461B570BDC0179
:101EC000ED91FC910280F381E02D09948F929F9215
:101ED000AF92BF920F931F93CF93DF93CDB7DEB72F
:101EE000A1970FB6F894DEBF0FBECDBF19A2423046
:101EF00008F44AE08E010F5D1F4F842E912CB12C07
:101F0000A12CA50194010E94341CE62FB901CA013D
:101F1000EA3004F5E05DD801EE938D01232B242BEC
:101F2000252B79F790E080E0109729F0BD0182E33E
:101F300096E00E94570FA1960FB6F894DEBF0FBE31
:101F4000CDBFDF91CF911F910F91BF90AF909F9028
:101F50008F900895E95CDFCF4F925F926F927F92EE
:101F60008F929F92AF92BF92CF92DF92EF92FF92A9
:101F70000F931F93CF936B017C01742EAC019B01D7
:101F80000E947F1D66E571E0811126C04601570160
:101F9000E894B7F82FEF3FEF4FE75FE7C501B401D3
:101FA0000E947F1D81110CC02FEF3FEF4FE75FE7CD
:101FB000C501B4010E94BA1A6AE571E0181664F00E
:101FC0002FEF3FEF4FE75FE4C701B6010E947A1D94
:101FD0001816ACF46EE571E082E396E0CF911F91A4
:101FE0000F91FF90EF90DF90CF90BF90AF909F90B8
:101FF0008F907F906F905F904F900C94570F2FEFC2
:102000003FEF4FE75FECC701B6010E94BA1A87FDA8
:10201000E1CF20E030E0A901C701B6010E94BA1A61
:1020200010E000E087FF0AC06DE282E396E00E94C4
:10203000CC048C01F7FAF094F7F8F094C0E060E07B
:1020400070E080E09FE37C1641F020E030E040E269
:1020500051E40E94D21CCF5FF6CFA70196010E94E7
:10206000661C2B013C010E944B1D4B015C014AE0A8
:102070000E94660F7C01E00EF11ECC23C1F1C50168
:10208000B4010E94BF1A9B01AC01C301B2010E94BE
:10209000651C4B015C016EE282E396E00E94CC0479
:1020A000E80EF91EC15018F120E030E040E251E4A2
:1020B000C501B4010E94201B2B013C010E944B1D55
:1020C0004B01B12CA12C4AE0C501B4010E94660F5E
:1020D000E80EF91EC501B4010E94BF1A9B01AC01B4
:1020E000C301B2010E94651C4B015C01DBCFC7013B
:1020F000CF911F910F91FF90EF90DF90CF90BF9005
:10210000AF909F908F907F906F905F904F900895C9
:102110000F931F93CF93DF93EC010E94570F8C0115
:1021200062E671E0CE010E94570F800F911FDF9190
:10213000CF911F910F910895CF92DF92EF92FF926E
:1021400080911101811106C065E671E082E396E09D
:102150000E94570F0E941A046093F7057093F805C8
:102160008093F9059093FA058091F6050E94D002BC
:10217000FC012091F30530E091E0E217F30709F04C
:1021800090E0909317064091F7055091F805609103
:10219000F9057091FA05A0910906B0910A06C09060
:1021A000FF05D0900006E0900106F0900206CA0EEE
:1021B000DB1EE11CF11C4C155D056E057F0520F151
:1021C000E217F30731F180911906882311F110927B
:1021D0000B06409303065093040660930506709324
:1021E000060681E0909319064093FF055093000680
:1021F0006093010670930206813031F490911101D1
:10220000911102C080931101FF90EF90DF90CF9069
:10221000089580E0E7CFCF92DF92EF92FF920E9485
:102220001A046B017C0124E6C20ED11CE11CF11CD6
:102230000E941A046C157D058E059F0518F40E94F6
:102240009C10F6CFFF90EF90DF90CF900895CF9243
:10225000DF92EF92FF926CE671E089EF94E00E94CA
:1022600088100E941A046B017C012CEAC20E26E23F
:10227000D21EE11CF11C0E941A046C157D058E050E
:102280009F0518F40E949C10F6CFFF90EF90DF900E
:10229000CF9008950F931F93CF93DF93EC01888124
:1022A0009981009759F02A813B812617370730F032
:1022B00081E0DF91CF911F910F9108958B016F5FA6
:1022C0007F4F0E94B61E009759F0998388831B8325
:1022D0000A832C813D81232B59F7FC011082E8CF22
:1022E00080E0E7CFEF92FF920F931F93CF93DF939E
:1022F000EC017B01FB0101900020E9F731978F0190
:10230000061B170BB8010E944A11288139818111DF
:1023100013C02115310519F0C9010E942D1E198223
:1023200018821D821C821B821A82DF91CF911F911D
:102330000F91FF90EF9008951D830C83B701C901A1
:10234000DF91CF911F910F91FF90EF900C94811F1F
:102350004F925F926F927F928F929F92AF92BF92B5
:10236000CF92DF92EF92FF9284E10E94DD032FEF84
:1023700030E0DC010E94841D2FEF33E040E050E0AC
:102380000E94DE1BE22E2093A7048EE00E94DD0354
:10239000BC01990F880B990B0E94C11A2AE038E200
:1023A00040EA5BE30E94201B4B015C0120E030E02F
:1023B000A9010E947A1D181624F0B7FAB094B7F854
:1023C000B09420E030E0A901C501B4010E94661C70
:1023D0006093A3047093A4048093A5049093A6042F
:1023E0008091A804811155C16FEF70E089E00E94CF
:1023F00080038FE00E94DD039250BC01990F880B8F
:10240000990B0E94C11A2DE032E348E45DE30E947B
:10241000201B4B015C0120E030E0A9010E947A1DE5
:10242000181624F0B7FAB094B7F8B09440900501AC
:1024300050900601609007017090080120E030E0A4
:10244000A901C301B2010E947A1D181624F077FA7F
:10245000709477F87094F12CA3019201C501B40136
:102460000E94651C4B015C01B7010F2C000C880B0E
:10247000990B0E94C11A9B01AC01C501B4010E94D5
:10248000201B20E030E04FE753E40E94D21C609311
:102490009F047093A0048093A1049093A204B701B9
:1024A00089E00E9480036AE871E080E296E00E9481
:1024B00072110E94B10440911E0650911F06609156
:1024C0001A0670911B0682E396E00E949A016EE85C
:1024D00071E082E396E00E94570F6091A30470912F
:1024E000A4048091A5049091A60442E00E94AC0F40
:1024F00062E971E082E396E00E94570F60919F04C9
:102500007091A0048091A1049091A20442E00E94E5
:10251000AC0F62E671E082E396E00E94570F20E084
:1025200030E041E655E460919B0470919C048091F9
:102530009D0490919E040E94D21C20E030E040E275
:1025400051E40E94201B42E00E94AC0F66E971E05A
:1025500082E396E00E94570F20E030E041E655E428
:1025600060919704709198048091990490919A04D5
:102570000E94D21C20E030E040E251E40E94201B87
:1025800042E00E94AC0F6AE971E082E396E00E94AB
:10259000881040912A0650912B0660912606709172
:1025A000270682E396E00E949A016EE871E082E3DA
:1025B00096E00E94570F60910D0170910E0180917D
:1025C0000F019091100142E00E94AC0F6DE971E0A3
:1025D00082E396E00E94570F6091090170910A0111
:1025E00080910B0190910C0142E00E94AC0F62E6D9
:1025F00071E082E396E00E94570F6FE971E082E399
:1026000096E00E94570F6091A70470E090E080E090
:102610000E94C11A23E333E343E250E40E94D21C38
:102620006B017C0120E030E0A9010E947A1D20E0CE
:1026300030E040E05FE387FD6FC0C701B6010E9454
:10264000661C0E94441D6B017C014AE0F7FE0DC030
:102650006DE282E396E00E94CC0466277727CB01E7
:102660006C197D098E099F094AE00E94660F64EA91
:1026700071E082E396E0FF90EF90DF90CF90BF9003
:10268000AF909F908F907F906F905F904F900C9441
:10269000570F8FE00E94DD039250BC01990F880B09
:1026A000990B0E94C11A2DE032E348E45DE30E94D9
:1026B000201B6B017C0120E030E0A9010E947A1D03
:1026C000181624F0F7FAF094F7F8F09480900501CA
:1026D00090900601A0900701B090080120E030E042
:1026E000A901C501B4010E947A1D181624F0B7FA99
:1026F000B094B7F8B094A5019401C701B6010E9447
:10270000651C60939F047093A0048093A104909330
:10271000A20467E871E0C9CEC701B6010E94651C3A
:1027200090CFCF92DF92EF92FF9260E085E00E941F
:10273000F90270E060E089E00E9480030E941A04C0
:102740006B017C0120E1C20E27E2D21EE11CF11CCC
:102750000E941A046C157D058E059F0518F40E94D1
:10276000A811F6CFFF90EF90DF90CF900895CF9211
:10277000DF92EF92FF9260E085E00E94F90270E044
:1027800060E089E00E9480030E941A046B017C01D2
:1027900020EDC20E27E0D21EE11CF11C0E941A049B
:1027A0006C157D058E059F0518F40E94A811F6CFC3
:1027B000FF90EF90DF90CF90089585ED8093BC005F
:1027C0008091D1049091D204A091D304B091D4040B
:1027D0000796A11DB11D23E0B695A79597958795FE
:1027E0002A95D1F72091BC0024FD03C01092CF049C
:1027F00008954091D1045091D2046091D304709116
:10280000D404452B462B472B69F30097A105B1054E
:1028100041F025E32A95F1F700000197A109B109DC
:10282000E1CF8091D0040C94A4061F920F920FB6B2
:102830000F9211242F933F934F935F936F937F9346
:102840008F939F93AF93BF93EF93FF9389EF94E0A0
:102850000E941802FF91EF91BF91AF919F918F91CC
:102860007F916F915F914F913F912F910F900FBE8C
:102870000F901F9018951F920F920FB60F92112470
:102880002F938F939F93EF93FF93E0910905F0911E
:102890000A058081E0910F05F091100582FD1BC0B3
:1028A0009081809112058F5F8F732091130582179D
:1028B00041F0E0911205F0E0E750FB4F958F8093D7
:1028C0001205FF91EF919F918F912F910F900FBE65
:1028D0000F901F9018958081F4CF1F920F920FB622
:1028E0000F9211242F933F938F939F93AF93BF9396
:1028F0008091890490918A04A0918B04B0918C04FA
:102900003091880423E0230F2D3758F50196A11D3F
:10291000B11D209388048093890490938A04A09326
:102920008B04B0938C0480918D0490918E04A091BF
:102930008F04B09190040196A11DB11D80938D0468
:1029400090938E04A0938F04B0939004BF91AF91A5
:102950009F918F913F912F910F900FBE0F901F90DD
:10296000189526E8230F0296A11DB11DD2CF1F9204
:102970000F920FB60F9211242F933F934F935F93B3
:102980006F937F938F939F93AF93BF93EF93FF9337
:102990008091B900887F803609F44AC0F0F588320A
:1029A00009F4A7C018F5803109F49BC0B8F4882356
:1029B00009F4F9C0883009F494C0FF91EF91BF91F8
:1029C000AF919F918F917F916F915F914F913F91C7
:1029D0002F910F900FBE0F901F901895883109F41A
:1029E00088C0803251F78093CD0414C0803409F43C
:1029F0009DC040F48033B9F38833F9F68093CD0459
:102A000085ECB0C0803509F485C0883509F496C0DE
:102A1000883499F60E94DD13D0CF883909F48CC030
:102A200038F5883729F050F4883611F0803729F6C8
:102A300083E08093CF041092870457C0883809F44C
:102A40007BC0803919F0803809F0B7CF80918704B6
:102A5000803208F071C0E091870481E08E0F80938E
:102A600087048091BB00F0E0E959FB4F80833DC0B3
:102A7000803B39F0E0F4803A09F479C0883A09F0F3
:102A80009CCF84E08093CF0410926604109265047A
:102A9000E0919304F091940409958091650481116B
:102AA0000FC081E0809365041092450409C0803C0A
:102AB00009F4A6CF883C09F4A3CF883B09F07DCF69
:102AC000E091660481E08E0F80936604F0E0EB5B9A
:102AD000FB4F80818093BB009091660480916504D8
:102AE00029C08091AA048093BB0085EC8093BC0030
:102AF00064CF9091CC048091CB04981758F5E09165
:102B0000CC0481E08E0F8093CC04F0E0E555FB4FC0
:102B10008081E9CFE091CC0481E08E0F8093CC04DA
:102B20008091BB00F0E0E555FB4F80839091CC0491
:102B30008091CB049817C8F285E8D8CFE091CC04F7
:102B400081E08E0F8093CC048091BB00F0E0E555CE
:102B5000FB4F80838091CE0481115CCF81E0809314
:102B6000A90484EA8093BC001092CF0426CF85ECA0
:102B70008093BC001092CF0480918704803230F49F
:102B8000E0918704F0E0E959FB4F108260918704DF
:102B900070E0E0919104F091920487E694E0099549
:102BA000109287040ACF1092CD0434CFFC018081AB
:102BB0009181009711F00C942D1E08958AE196E002
:102BC0000E94D61580E296E00E94D61586E296E035
:102BD0000E94D6158CE296E00C94D615EF92FF92E7
:102BE0000F931F93CF93DF93EC017B01198218821F
:102BF0001B821A821D821C82FB0101900020E9F7D2
:102C000031978F01061B170BB8010E944A112881CA
:102C10003981811113C02115310519F0C9010E94B4
:102C20002D1E198218821D821C821B821A82DF913E
:102C3000CF911F910F91FF90EF9008951D830C830A
:102C4000B701C901DF91CF911F910F91FF90EF90D4
:102C50000C94811F0F931F93CF93DF93E9EFF4E060
:102C60001382128288EE93E0A0E0B0E08483958323
:102C7000A683B7832CE131E03183208325EC30E05B
:102C80003587248724EC30E03787268720EC30E036
:102C9000318B208B21EC30E0338B228B22EC30E027
:102CA000358B248B26EC30E0378B268B118E128EE1
:102CB000138E148EE6E9F5E01382128284839583E5
:102CC000A683B7838EE291E091838083E2EAF5E008
:102CD00080E580831182E4EAF5E015821682118690
:102CE000138682E090E0A0E0B0E084879587A68715
:102CF000B78713A215A614A680E491E093A782A734
:102D000017A6E2E3F6E01382128214861586178670
:102D10001686108A11E0118B8CE491E091838083F8
:102D200067EA71E08CE296E00E94EE156BEA71E0D2
:102D300086E296E00E94EE1564E671E080E296E09D
:102D40000E94EE1564E671E08AE196E00E94EE15BD
:102D5000C3EFD5E0188302E010E01D8B0C8B88ECEC
:102D600090E09F8B8E8B188E198E1A8E84E690E0E1
:102D700098A38F8F19A21AA21BA21CA21DA21EA289
:102D800082E0898383E08A8384E08B830E941A0433
:102D90006C837D838E839F83688779878A879B87EF
:102DA0006C877D878E879F876B8F7C8F8D8F9E8FA3
:102DB0000E946303EDEEF5E08BE090E09183808369
:102DC0008AE090E09383828315830483DF91CF911F
:102DD0001F910F910895789484B5826084BD84B565
:102DE000816084BD85B5826085BD85B5816085BD06
:102DF00080916E00816080936E00109281008091BE
:102E00008100826080938100809181008160809345
:102E10008100809180008160809380008091B1006A
:102E200084608093B1008091B00081608093B00095
:102E300080917A00846080937A0080917A00826029
:102E400080937A0080917A00816080937A008091EB
:102E50007A00806880937A001092C10010929604E4
:102E6000109295041092D6041092F8040E948606DF
:102E700088E991E0909394048093930489E991E028
:102E800090939204809391048CE08093B800E09139
:102E90000905F0910A0582E08083E0910505F09133
:102EA00006051082E0910705F09108058FEC8083FC
:102EB00010921105E0910D05F0910E0586E08083DA
:102EC000E0910B05F0910C05808180618083E09199
:102ED0000B05F0910C05808188608083E0910B05E3
:102EE000F0910C05808180688083E0910B05F09162
:102EF0000C0580818F7D80836FEB71E089EF94E01A
:102F00000E948810109245068CE38093440610922C
:102F1000360610923706E1EDF2E0E590F490E3ED2D
:102F2000F2E01491E4EDF2E0E491E0933806E5ED8F
:102F3000F2E0E491E0933906E6EDF2E0E491E0930B
:102F40003A06D0E0C0E0C11750F4F701EC0FFD1FC6
:102F5000649182E396E00E9443042196F4CF0E949C
:102F6000B104EBEEF0E0F0934106E093400684916B
:102F7000ECEEF0E0E491F82F319709F077C1109270
:102F80003B0681E0809304018093F3050E94630374
:102F900085E090E090930806809307068AEF90E022
:102FA00090931306809312060E941A04AB01BC0191
:102FB0004093F7055093F8056093F9057093FA056F
:102FC00020910706309108068091FB059091FC0541
:102FD000A091FD05B091FE05820F931FA11DB11DAB
:102FE000481759076A077B0708F459C08091F40510
:102FF0000E94D0023091F30521E03817190609F03C
:1030000020E0209315068091F5050E94D0022091C2
:10301000F30530E041E08217930709F040E0409368
:103020001606E09115064091F7055091F80560915C
:10303000F9057091FA05E11128C0F0911806FF23F7
:1030400021F18217930709F015C121E0C091120602
:10305000D091130680910E0690910F06A091100654
:10306000B09111068C0F9D1FA11DB11D4817590766
:103070006A077B0710F02093140640930E065093C6
:103080000F066093100670931106E09318064093A4
:10309000FB055093FC056093FD057093FE050E94AF
:1030A0001A046093F7057093F8058093F9059093DF
:1030B000FA058091F6050E94D002FC012091F305EB
:1030C00030E091E0E217F30709F090E090931706E3
:1030D0004091F7055091F8056091F9057091FA0556
:1030E000A0910906B0910A06C090FF05D090000695
:1030F000E0900106F0900206CA0EDB1EE11CF11CF6
:103100004C155D056E057F05F0F080911906E217FC
:10311000F30709F40EC2882309F415C281E08093F5
:103120000D064093030650930406609305067093C2
:103130000606909319064093FF055093000660938E
:1031400001067093020661E085E00E94270361E0BA
:1031500087E00E94270361E089E00E94270360E086
:1031600085E00E94F90261E087E00E94F90270E0C8
:1031700060E089E00E94800363EB71E089EF94E0F6
:103180000E94881063EB71E082E396E00E94570F83
:1031900080E10E94DD03BC01990F880B990B0E940E
:1031A000C11A2AE038E240EA5BE30E94201B20E0DB
:1031B00030E040E85FE30E94BA1A87FF5DC086E610
:1031C00096E6A6E8B0E48093090190930A01A093E3
:1031D0000B01B0930C018AE999E9A9E3B0E480936B
:1031E0000D0190930E01A0930F01B09310016BEBB2
:1031F00071E086E296E00E94721166EC71E089EF60
:1032000094E00E94881060E087E00E94F9028FE05D
:103210000E94DD039250BC01990F880B990B0E940C
:10322000C11A2DE032E348E45DE30E94201B609365
:1032300005017093060180930701909308016AEDE0
:1032400071E089EF94E00E94881064EE71E089EFEC
:1032500094E00E9488100E94A8110E94271180917A
:103260001101811156C00E949C10F9CF81E080931A
:103270003B0687CE22E0EACE80E10E94DD03BC015E
:10328000990F880B990B0E94C11A2AE038E240EA94
:103290005BE30E94201B20E030E040E050E40E940D
:1032A000BA1A87FF1BC086E696E6A6E6B0E48093CE
:1032B000090190930A01A0930B01B0930C0180E0E7
:1032C00090E0A0E2B0E480930D0190930E01A093F2
:1032D0000F01B09310016BEA71E08BCF83E393E3AE
:1032E000A3E3B0E48093090190930A01A0930B013A
:1032F000B0930C0186E696E6A6EEBFE380930D013F
:1033000090930E01A0930F01B093100162EC71E055
:1033100070CF81E08093A8046FEE71E08AE196E0BF
:103320000E94721162EF71E089EF94E00E948810B0
:1033300061E087E00E94F90266E072E089EF94E0C4
:103340000E9488108091A8048823D9F161E085E06B
:103350000E94F90270E060E089E00E9480030E9410
:103360000B110E94A8110E9427110E94B7138EE032
:103370000E94DD03BC01990F880B990B0E94C11AB2
:103380002AE038E240EA5BE30E94201B2091090119
:1033900030910A0140910B0150910C010E947A1D5D
:1033A00018162CF41092A8040E94A811CBCF61E04B
:1033B00085E00E94F90270E060E089E00E948003ED
:1033C000F3CF60E072E08AE196E00E94721160E063
:1033D00087E00E94F90263E072E089EF94E00E94C6
:1033E0008810C1E08091A80460E0811193C085E05D
:1033F0000E94F9026091A70470E089E00E948003B6
:103400000E94A811C0909F04D090A004E090A10455
:10341000F090A2042091A3043091A4044091A5044B
:103420005091A604C701B6010E94201B9B01AC016C
:1034300060919B0470919C0480919D0490919E04E6
:103440000E94661C60939B0470939C0480939D046F
:1034500090939E04A701960160919704709198043F
:103460008091990490919A040E94661C609397043D
:10347000709398048093990490939A040E94B713D0
:103480008EE00E94DD03BC01990F880B990B0E940E
:10349000C11A2AE038E240EA5BE30E94201B209137
:1034A0000D0130910E0140910F01509110010E94C9
:1034B000BA1A87FF1EC00E9491138EE00E94DD039E
:1034C000BC01990F880B990B0E94C11A2AE038E2BF
:1034D00040EA5BE30E94201B20910D0130910E0118
:1034E00040910F01509110010E94BA1A87FDC093BC
:1034F000A80460E085E00E94F9026091A70470E0F2
:1035000089E00E9480030E940B110E94A8110E9472
:10351000271168CF85E00E94F90260E087E00E94F1
:10352000F90270E060E089E00E9480030E9491133C
:10353000FDCF8111FECD80910D06882309F4F9CDD0
:1035400010920D06F6CD80910D06882309F4F1CD79
:10355000009103061091040620910506309106069D
:1035600008511C4F2F4F3F4F0417150726073707E9
:1035700038F3DFCD0E94FC1A08F481E00895E89446
:1035800009C097FB3EF490958095709561957F4FAB
:103590008F4F9F4F9923A9F0F92F96E9BB27939559
:1035A000F695879577956795B795F111F8CFFAF469
:1035B000BB0F11F460FF1BC06F5F7F4F8F4F9F4F9A
:1035C00016C0882311F096E911C0772321F09EE8F8
:1035D000872F762F05C0662371F096E8862F70E05E
:1035E00060E02AF09A95660F771F881FDAF7880F38
:1035F0009695879597F90895990F0008550FAA0B8E
:10360000E0E8FEEF16161706E807F907C0F01216F5
:103610001306E407F50798F0621B730B840B950BF8
:1036200039F40A2661F0232B242B252B21F408954D
:103630000A2609F4A140A6958FEF811D811D0895EA
:103640000E94331B0C94A41B0E94961B38F00E940E
:103650009D1B20F0952311F00C948D1B0C94931B53
:1036600011240C94D81B0E94B51B70F3959FC1F3D5
:10367000950F50E0551F629FF001729FBB27F00D20
:10368000B11D639FAA27F00DB11DAA1F649F662775
:10369000B00DA11D661F829F2227B00DA11D621FC4
:1036A000739FB00DA11D621F839FA00D611D221F7E
:1036B000749F3327A00D611D231F849F600D211D62
:1036C000822F762F6A2F11249F5750409AF0F1F0E5
:1036D00088234AF0EE0FFF1FBB1F661F771F881F4E
:1036E00091505040A9F79E3F510580F00C948D1BDE
:1036F0000C94D81B5F3FE4F3983ED4F386957795FE
:103700006795B795F795E7959F5FC1F7FE2B880FF3
:10371000911D9695879597F9089597F99F6780E889
:1037200070E060E008959FEF80EC089500240A9413
:103730001616170618060906089500240A9412168C
:103740001306140605060895092E0394000C11F4BF
:10375000882352F0BB0F40F4BF2B11F460FF04C06C
:103760006F5F7F4F8F4F9F4F089557FD9058440FC5
:10377000551F59F05F3F71F04795880F97FB991FD0
:1037800061F09F3F79F0879508951216130614068D
:10379000551FF2CF4695F1DF08C01616170618061A
:1037A000991FF1CF86957105610508940895E894F5
:1037B000BB2766277727CB0197F90895052E97FB3E
:1037C0001EF400940E94F51B57FD07D00E94341C84
:1037D00007FC03D04EF40C94F51B509540953095A2
:1037E00021953F4F4F4F5F4F08959095809570956D
:1037F00061957F4F8F4F9F4F08952F923F924F9229
:103800005F926F927F928F929F92AF92BF92CF9270
:10381000DF92EF92FF920F931F93CF93DF93CDB779
:10382000DEB7CA1BDB0B0FB6F894DEBF0FBECDBFF1
:1038300009942A88398848885F846E847D848C84C2
:103840009B84AA84B984C884DF80EE80FD800C81CB
:103850001B81AA81B981CE0FD11D0FB6F894DEBFAE
:103860000FBECDBFED010895A1E21A2EAA1BBB1B0E
:10387000FD010DC0AA1FBB1FEE1FFF1FA217B3073C
:10388000E407F50720F0A21BB30BE40BF50B661F52
:10389000771F881F991F1A9469F760957095809516
:1038A00090959B01AC01BD01CF010895A29FB0018D
:1038B000B39FC001A39F700D811D1124911DB29F64
:1038C000700D811D1124911D08955058BB27AA2702
:1038D0000E947D1C0C94A41B0E94961B38F00E9431
:1038E0009D1B20F039F49F3F19F426F40C94931B90
:1038F0000EF4E095E7FB0C948D1BE92F0E94B51B9D
:1039000058F3BA17620773078407950720F079F414
:10391000A6F50C94D71B0EF4E0950B2EBA2FA02D14
:103920000B01B90190010C01CA01A0011124FF276C
:10393000591B99F0593F50F4503E68F11A16F04067
:10394000A22F232F342F4427585FF3CF4695379566
:103950002795A795F0405395C9F77EF41F16BA0B2B
:10396000620B730B840BBAF09150A1F0FF0FBB1FD9
:10397000661F771F881FC2F70EC0BA0F621F731F22
:10398000841F48F4879577956795B795F7959E3F7F
:1039900008F0B0CF9395880F08F09927EE0F979510
:1039A000879508950E94E61C0C94A41B0E949D1B01
:1039B00058F00E94961B40F029F45F3F29F00C94C8
:1039C0008D1B51110C94D81B0C94931B0E94B51B9A
:1039D00068F39923B1F3552391F3951B550BBB273E
:1039E000AA2762177307840738F09F5F5F4F220F83
:1039F000331F441FAA1FA9F335D00E2E3AF0E0E87A
:103A000032D091505040E695001CCAF72BD0FE2FC3
:103A100029D0660F771F881FBB1F26173707480757
:103A2000AB07B0E809F0BB0B802DBF01FF2793580F
:103A30005F4F3AF09E3F510578F00C948D1B0C942B
:103A4000D81B5F3FE4F3983ED4F38695779567954E
:103A5000B795F7959F5FC9F7880F911D9695879544
:103A600097F90895E1E0660F771F881FBB1F621763
:103A700073078407BA0720F0621B730B840BBA0B21
:103A8000EE1F88F7E09508950E944B1D6894B111D0
:103A90000C94D81B08950E94BD1B88F09F5798F086
:103AA000B92F9927B751B0F0E1F0660F771F881F43
:103AB000991F1AF0BA95C9F714C0B13091F00E945D
:103AC000D71BB1E008950C94D71B672F782F882758
:103AD000B85F39F0B93FCCF3869577956795B39584
:103AE000D9F73EF490958095709561957F4F8F4FF3
:103AF0009F4F08950E94FC1A08F48FEF08950E94CA
:103B0000FC1A880B990B08950E94561CB7FF089564
:103B1000821B930B0895EE0FFF1F0590F491E02D8B
:103B200009940F931F93CF93DF938230910510F484
:103B300082E090E0E0914806F091490630E020E014
:103B4000B0E0A0E0309799F42115310509F44AC09E
:103B5000281B390B24303105D8F58A819B816115EA
:103B6000710589F1FB0193838283FE0111C04081BD
:103B700051810281138148175907E0F0481759070E
:103B800099F4109761F012960C93129713961C9368
:103B90003296CF01DF91CF911F910F91089500933D
:103BA000480610934906F4CF2115310551F042170C
:103BB000530738F0A901DB019A01BD01DF01F801CB
:103BC000C1CFEF01F9CF9093490680934806CDCF3E
:103BD000FE01E20FF31F8193919322503109398343
:103BE0002883D7CF2091460630914706232B41F4F6
:103BF0002091140130911501309347062093460619
:103C000020911201309113012115310541F42DB796
:103C10003EB74091160150911701241B350BE091DE
:103C20004606F0914706E217F307A0F42E1B3F0B60
:103C30002817390778F0AC014E5F5F4F241735071E
:103C400048F04E0F5F1F50934706409346068193FE
:103C500091939FCFF0E0E0E09CCFCF93DF9300976C
:103C6000E9F0FC01329713821282A0914806B091CC
:103C70004906ED0130E020E01097A1F42081318168
:103C8000820F931F20914606309147062817390767
:103C900009F061C0F0934706E0934606DF91CF91AB
:103CA0000895EA01CE17DF07E8F54A815B819E019E
:103CB00041155105B1F7E901FB83EA834991599117
:103CC000C40FD51FEC17FD0761F480819181029626
:103CD000840F951FE90199838883828193819B8357
:103CE0008A83F0E0E0E012968D919C911397009703
:103CF000B9F52D913C911197CD010296820F931F3A
:103D000020914606309147062817390739F6309733
:103D100051F51092490610924806B0934706A093B9
:103D20004606BCCFD383C28340815181840F951F47
:103D3000C817D90761F44E5F5F4F88819981480F9A
:103D4000591F518340838A819B81938382832115EC
:103D5000310509F0B0CFF0934906E09348069ECFB5
:103D6000FD01DC01C0CF13821282D7CFB0E0A0E00A
:103D7000ECEBFEE10C94FF1B8C01009751F4CB019E
:103D80000E94911D8C01C801CDB7DEB7E0E10C9413
:103D90001B1CFC01E60FF71F9C0122503109E217A2
:103DA000F30708F49DC0D901CD91DC911197C61796
:103DB000D70798F0C530D10530F3CE0104978617A8
:103DC000970708F3C61BD70B2297C193D1936D9326
:103DD0007C93CF010E942D1ED6CF5B01AC1ABD0A89
:103DE0004C018C0E9D1EA0914806B0914906512CA5
:103DF000412CF12CE12C109731F5809146069091E1
:103E000047068815990509F05CC04616570608F064
:103E100058C08091120190911301009741F48DB721
:103E20009EB74091160150911701841B950BE8171E
:103E3000F90708F055C0F0934706E0934606F901EC
:103E400071836083A0CF8D919C91119712966C9095
:103E5000129713967C901397A815B90559F56C0124
:103E600042E0C40ED11CCA14DB0420F1AC014A1993
:103E70005B09DA011296159780F062827382518392
:103E80004083D9016D937C93E114F10471F0D70163
:103E90001396FC93EE93129776CF22968C0F9D1F6C
:103EA000F90191838083F301EFCFF0934906E0930A
:103EB000480669CF4816590608F42C017D01D30144
:103EC0009ACFCB010E94911D7C01009749F0AE0171
:103ED000B8010E94781FC8010E942D1E870153CF90
:103EE00010E000E050CF81E090E0F8940C94881F3F
:103EF000FB01DC0102C001900D9241505040D8F707
:103F00000895FB01DC0101900D920020E1F7089576
:103F100011E0CDE6D1E004C0FE010E948B1D219688
:103F2000CE36D107C9F7F894FFCFFFFFFFFF01BCE2
:103F30002278BD33336340000000400100004A0690
:103F40008000000000003A029A01C7018702F801D0
:103F5000D601EA01000000000308D607520FAC07A3
:103F6000CF07BC07AD0700000000A30D9A01490D63
:103F7000510F00000000CC049A01520F510F180F8E
:103F80006E616E00696E66006F7666000D0A005005
:103F900061757365640073746172747061757365C3
:103FA0002066756E6374696F6E2063616C6C656406
:103FB000006E6F2070776D0020563A0020493A005D
:103FC000576820004168002D0050574D3D002520C6
:103FD00000585858004C69466550303400626F6F85
:103FE00074696E67004C692D696F6E004C544F0008
:103FF000766F6C74616765207479706520697320D1
:1040000073657400736574757020656E64006C6F01
:104010006F7020626567696E004331007475726E5F
:10402000206F6E2044432D44430044310064697383
:10403000636861726765726F7574696E67206C6121
:08404000756E63686564000001
:107E0000112484B714BE81FFF0D085E080938100F7
:107E100082E08093C00088E18093C10086E0809377
:107E2000C20080E18093C4008EE0C9D0259A86E02C
:107E300020E33CEF91E0309385002093840096BBD3
:107E4000B09BFECF1D9AA8958150A9F7CC24DD24C4
:107E500088248394B5E0AB2EA1E19A2EF3E0BF2EE7
:107E6000A2D0813461F49FD0082FAFD0023811F036
:107E7000013811F484E001C083E08DD089C08234E0
:107E800011F484E103C0853419F485E0A6D080C0E4
:107E9000853579F488D0E82EFF2485D0082F10E0AE
:107EA000102F00270E291F29000F111F8ED06801E7
:107EB0006FC0863521F484E090D080E0DECF843638
:107EC00009F040C070D06FD0082F6DD080E0C81688
:107ED00080E7D80618F4F601B7BEE895C0E0D1E017
:107EE00062D089930C17E1F7F0E0CF16F0E7DF06D8
:107EF00018F0F601B7BEE89568D007B600FCFDCFD4
:107F0000A601A0E0B1E02C9130E011968C91119780
:107F100090E0982F8827822B932B1296FA010C0160
:107F200087BEE89511244E5F5F4FF1E0A038BF0790
:107F300051F7F601A7BEE89507B600FCFDCF97BE46
:107F4000E89526C08437B1F42ED02DD0F82E2BD052
:107F50003CD0F601EF2C8F010F5F1F4F84911BD097
:107F6000EA94F801C1F70894C11CD11CFA94CF0C13
:107F7000D11C0EC0853739F428D08EE10CD085E9AC
:107F80000AD08FE07ACF813511F488E018D01DD067
:107F900080E101D065CF982F8091C00085FFFCCF94
:107FA0009093C60008958091C00087FFFCCF809118
:107FB000C00084FD01C0A8958091C6000895E0E648
:107FC000F0E098E1908380830895EDDF803219F02E
:107FD00088E0F5DFFFCF84E1DECF1F93182FE3DFCA
:107FE0001150E9F7F2DF1F91089580E0E8DFEE27F6
:047FF000FF270994CA
:027FFE00040479
:00000001FF
